{
  "contractName": "Airdrop",
  "abi": [
    {
      "inputs": [
        {
          "internalType": "address",
          "name": "_token",
          "type": "address"
        },
        {
          "internalType": "address",
          "name": "_admin",
          "type": "address"
        },
        {
          "internalType": "uint256",
          "name": "_airdropAmount",
          "type": "uint256"
        }
      ],
      "stateMutability": "nonpayable",
      "type": "constructor"
    },
    {
      "anonymous": false,
      "inputs": [
        {
          "indexed": false,
          "internalType": "address",
          "name": "recipient",
          "type": "address"
        },
        {
          "indexed": false,
          "internalType": "uint256",
          "name": "amount",
          "type": "uint256"
        },
        {
          "indexed": false,
          "internalType": "uint256",
          "name": "date",
          "type": "uint256"
        }
      ],
      "name": "AirdropProcessed",
      "type": "event"
    },
    {
      "anonymous": false,
      "inputs": [
        {
          "indexed": true,
          "internalType": "address",
          "name": "previousOwner",
          "type": "address"
        },
        {
          "indexed": true,
          "internalType": "address",
          "name": "newOwner",
          "type": "address"
        }
      ],
      "name": "OwnershipTransferred",
      "type": "event"
    },
    {
      "inputs": [],
      "name": "Bava",
      "outputs": [
        {
          "internalType": "contract IERC20",
          "name": "",
          "type": "address"
        }
      ],
      "stateMutability": "view",
      "type": "function"
    },
    {
      "inputs": [
        {
          "internalType": "uint256",
          "name": "",
          "type": "uint256"
        }
      ],
      "name": "accumulateAirdropAmount",
      "outputs": [
        {
          "internalType": "uint256",
          "name": "",
          "type": "uint256"
        }
      ],
      "stateMutability": "view",
      "type": "function"
    },
    {
      "inputs": [],
      "name": "admin",
      "outputs": [
        {
          "internalType": "address",
          "name": "",
          "type": "address"
        }
      ],
      "stateMutability": "view",
      "type": "function"
    },
    {
      "inputs": [],
      "name": "airdropAmount",
      "outputs": [
        {
          "internalType": "uint256",
          "name": "",
          "type": "uint256"
        }
      ],
      "stateMutability": "view",
      "type": "function"
    },
    {
      "inputs": [],
      "name": "airdropIteration",
      "outputs": [
        {
          "internalType": "uint256",
          "name": "",
          "type": "uint256"
        }
      ],
      "stateMutability": "view",
      "type": "function"
    },
    {
      "inputs": [
        {
          "internalType": "uint256",
          "name": "",
          "type": "uint256"
        }
      ],
      "name": "endAirdrop",
      "outputs": [
        {
          "internalType": "uint256",
          "name": "",
          "type": "uint256"
        }
      ],
      "stateMutability": "view",
      "type": "function"
    },
    {
      "inputs": [],
      "name": "owner",
      "outputs": [
        {
          "internalType": "address",
          "name": "",
          "type": "address"
        }
      ],
      "stateMutability": "view",
      "type": "function"
    },
    {
      "inputs": [
        {
          "internalType": "address",
          "name": "",
          "type": "address"
        },
        {
          "internalType": "uint256",
          "name": "",
          "type": "uint256"
        }
      ],
      "name": "processedAirdrops",
      "outputs": [
        {
          "internalType": "bool",
          "name": "",
          "type": "bool"
        }
      ],
      "stateMutability": "view",
      "type": "function"
    },
    {
      "inputs": [],
      "name": "renounceOwnership",
      "outputs": [],
      "stateMutability": "nonpayable",
      "type": "function"
    },
    {
      "inputs": [
        {
          "internalType": "uint256",
          "name": "",
          "type": "uint256"
        }
      ],
      "name": "startAirdrop",
      "outputs": [
        {
          "internalType": "uint256",
          "name": "",
          "type": "uint256"
        }
      ],
      "stateMutability": "view",
      "type": "function"
    },
    {
      "inputs": [
        {
          "internalType": "address",
          "name": "newOwner",
          "type": "address"
        }
      ],
      "name": "transferOwnership",
      "outputs": [],
      "stateMutability": "nonpayable",
      "type": "function"
    },
    {
      "inputs": [],
      "name": "validDuration",
      "outputs": [
        {
          "internalType": "uint256",
          "name": "",
          "type": "uint256"
        }
      ],
      "stateMutability": "view",
      "type": "function"
    },
    {
      "inputs": [
        {
          "internalType": "address",
          "name": "newAdmin",
          "type": "address"
        }
      ],
      "name": "updateAdmin",
      "outputs": [],
      "stateMutability": "nonpayable",
      "type": "function"
    },
    {
      "inputs": [
        {
          "internalType": "uint256",
          "name": "_newAmount",
          "type": "uint256"
        }
      ],
      "name": "updateAmount",
      "outputs": [],
      "stateMutability": "nonpayable",
      "type": "function"
    },
    {
      "inputs": [
        {
          "internalType": "uint256",
          "name": "_endAirdrop",
          "type": "uint256"
        }
      ],
      "name": "updateEndAirdrop",
      "outputs": [],
      "stateMutability": "nonpayable",
      "type": "function"
    },
    {
      "inputs": [
        {
          "internalType": "uint256",
          "name": "_airdropIteration",
          "type": "uint256"
        },
        {
          "internalType": "uint256",
          "name": "_startAirdrop",
          "type": "uint256"
        }
      ],
      "name": "updateStartAirdrop",
      "outputs": [],
      "stateMutability": "nonpayable",
      "type": "function"
    },
    {
      "inputs": [
        {
          "internalType": "bytes",
          "name": "signature",
          "type": "bytes"
        }
      ],
      "name": "claimTokens",
      "outputs": [],
      "stateMutability": "nonpayable",
      "type": "function"
    },
    {
      "inputs": [
        {
          "internalType": "address",
          "name": "_token",
          "type": "address"
        },
        {
          "internalType": "uint256",
          "name": "_amount",
          "type": "uint256"
        },
        {
          "internalType": "address",
          "name": "_to",
          "type": "address"
        }
      ],
      "name": "returnToken",
      "outputs": [],
      "stateMutability": "nonpayable",
      "type": "function"
    }
  ],
  "bytecode": "0x608060405262093a8060045534801561001757600080fd5b506040516110fc3803806110fc833981016040819052610036916100e2565b61003f33610076565b600180546001600160a01b039384166001600160a01b0319918216179091556002805494909316931692909217905560035561011e565b600080546001600160a01b038381166001600160a01b0319831681178455604051919092169283917f8be0079c531659141344cd1fd0a4f28419497f9722a3daafe3b4186f6b6457e09190a35050565b80516001600160a01b03811681146100dd57600080fd5b919050565b6000806000606084860312156100f757600080fd5b610100846100c6565b925061010e602085016100c6565b9150604084015190509250925092565b610fcf8061012d6000396000f3fe608060405234801561001057600080fd5b50600436106100f65760003560e01c8063beae207f11610092578063beae207f146101d4578063d16a6b1a146101f4578063dac90e6414610207578063e2f273bd1461021a578063e57c69211461022d578063f2fde38b1461024d578063f851a44014610260578063fc2ea8a514610273578063fff1ee101461027c57600080fd5b80630ad2584d146100fb57806313bb3c33146101105780631e14bb90146101405780632948ff411461017e57806334d6093d1461019557806361fac9b1146101a8578063715018a6146101bb5780638c4f728a146101c35780638da5cb5b146101cc575b600080fd5b61010e610109366004610d86565b61029c565b005b600254610123906001600160a01b031681565b6040516001600160a01b0390911681526020015b60405180910390f35b61016e61014e366004610d5c565b600960209081526000928352604080842090915290825290205460ff1681565b6040519015158152602001610137565b61018760045481565b604051908152602001610137565b61010e6101a3366004610e56565b61033e565b61010e6101b6366004610e88565b610372565b61010e6103da565b61018760055481565b610123610415565b6101876101e2366004610e56565b60086020526000908152604090205481565b61010e610202366004610e56565b610424565b61010e610215366004610de4565b610467565b61010e610228366004610d41565b610752565b61018761023b366004610e56565b60066020526000908152604090205481565b61010e61025b366004610d41565b6107a3565b600154610123906001600160a01b031681565b61018760035481565b61018761028a366004610e56565b60076020526000908152604090205481565b336102a5610415565b6001600160a01b0316146102d45760405162461bcd60e51b81526004016102cb90610f12565b60405180910390fd5b6001600160a01b0381166103255760405162461bcd60e51b815260206004820152601860248201527773656e6420746f20746865207a65726f206164647265737360401b60448201526064016102cb565b6103396001600160a01b0384168284610843565b505050565b33610347610415565b6001600160a01b03161461036d5760405162461bcd60e51b81526004016102cb90610f12565b600355565b3361037b610415565b6001600160a01b0316146103a15760405162461bcd60e51b81526004016102cb90610f12565b600582905560008281526008602052604090208190556004546103c49082610f47565b6000928352600760205260409092209190915550565b336103e3610415565b6001600160a01b0316146104095760405162461bcd60e51b81526004016102cb90610f12565b6104136000610899565b565b6000546001600160a01b031690565b3361042d610415565b6001600160a01b0316146104535760405162461bcd60e51b81526004016102cb90610f12565b600554600090815260076020526040902055565b6003546040516bffffffffffffffffffffffff193360601b166020820152603481019190915260009061050090605401604051602081830303815290604052805190602001206040517f19457468657265756d205369676e6564204d6573736167653a0a3332000000006020820152603c8101829052600090605c01604051602081830303815290604052805190602001209050919050565b600554600090815260086020526040902054909150421161055a5760405162461bcd60e51b8152602060048201526014602482015273105a5c991c9bdc081a185d995b9d081cdd185c9d60621b60448201526064016102cb565b60055460009081526007602052604090205442106105b05760405162461bcd60e51b815260206004820152601360248201527220b4b9323937b8103bb4b73237bb9037bb32b960691b60448201526064016102cb565b600154604080516020601f86018190048102820181019092528481526001600160a01b03909216916105ff9184919087908790819084018382808284376000920191909152506108e992505050565b6001600160a01b0316146106475760405162461bcd60e51b815260206004820152600f60248201526e77726f6e67207369676e617475726560881b60448201526064016102cb565b336000908152600960209081526040808320600554845290915290205460ff16156106b05760405162461bcd60e51b8152602060048201526019602482015278185a5c991c9bdc08185b1c9958591e481c1c9bd8d95cdcd959603a1b60448201526064016102cb565b336000908152600960209081526040808320600580548552908352818420805460ff1916600117905560035490548452600690925282208054919290916106f8908490610f47565b9250508190555061070b33600354610968565b6003546040805133815260208101929092524282820152517fc0312d3bf25e86c787fa77f4d038213e428dc722e16d38ca9719e987d20f7c7c9181900360600190a1505050565b3361075b610415565b6001600160a01b0316146107815760405162461bcd60e51b81526004016102cb90610f12565b600180546001600160a01b0319166001600160a01b0392909216919091179055565b336107ac610415565b6001600160a01b0316146107d25760405162461bcd60e51b81526004016102cb90610f12565b6001600160a01b0381166108375760405162461bcd60e51b815260206004820152602660248201527f4f776e61626c653a206e6577206f776e657220697320746865207a65726f206160448201526564647265737360d01b60648201526084016102cb565b61084081610899565b50565b6103398363a9059cbb60e01b8484604051602401610862929190610ec6565b60408051601f198184030181529190526020810180516001600160e01b03166001600160e01b031990931692909217909152610aaa565b600080546001600160a01b038381166001600160a01b0319831681178455604051919092169283917f8be0079c531659141344cd1fd0a4f28419497f9722a3daafe3b4186f6b6457e09190a35050565b6000806000806108f885610b7c565b6040805160008152602081018083528b905260ff8516918101919091526060810183905260808101829052929550909350915060019060a0016020604051602081039080840390855afa158015610953573d6000803e3d6000fd5b5050604051601f190151979650505050505050565b6002546040516370a0823160e01b81523060048201526000916001600160a01b0316906370a082319060240160206040518083038186803b1580156109ac57600080fd5b505afa1580156109c0573d6000803e3d6000fd5b505050506040513d601f19601f820116820180604052508101906109e49190610e6f565b905080821115610a785760025460405163a9059cbb60e01b81526001600160a01b039091169063a9059cbb90610a209086908590600401610ec6565b602060405180830381600087803b158015610a3a57600080fd5b505af1158015610a4e573d6000803e3d6000fd5b505050506040513d601f19601f82011682018060405250810190610a729190610dc2565b50505050565b60025460405163a9059cbb60e01b81526001600160a01b039091169063a9059cbb90610a209086908690600401610ec6565b6000610aff826040518060400160405280602081526020017f5361666545524332303a206c6f772d6c6576656c2063616c6c206661696c6564815250856001600160a01b0316610bab9092919063ffffffff16565b8051909150156103395780806020019051810190610b1d9190610dc2565b6103395760405162461bcd60e51b815260206004820152602a60248201527f5361666545524332303a204552433230206f7065726174696f6e20646964206e6044820152691bdd081cdd58d8d9595960b21b60648201526084016102cb565b60008060008351604114610b8f57600080fd5b5050506020810151604082015160609092015160001a92909190565b6060610bba8484600085610bc4565b90505b9392505050565b606082471015610c255760405162461bcd60e51b815260206004820152602660248201527f416464726573733a20696e73756666696369656e742062616c616e636520666f6044820152651c8818d85b1b60d21b60648201526084016102cb565b843b610c735760405162461bcd60e51b815260206004820152601d60248201527f416464726573733a2063616c6c20746f206e6f6e2d636f6e747261637400000060448201526064016102cb565b600080866001600160a01b03168587604051610c8f9190610eaa565b60006040518083038185875af1925050503d8060008114610ccc576040519150601f19603f3d011682016040523d82523d6000602084013e610cd1565b606091505b5091509150610ce1828286610cec565b979650505050505050565b60608315610cfb575081610bbd565b825115610d0b5782518084602001fd5b8160405162461bcd60e51b81526004016102cb9190610edf565b80356001600160a01b0381168114610d3c57600080fd5b919050565b600060208284031215610d5357600080fd5b610bbd82610d25565b60008060408385031215610d6f57600080fd5b610d7883610d25565b946020939093013593505050565b600080600060608486031215610d9b57600080fd5b610da484610d25565b925060208401359150610db960408501610d25565b90509250925092565b600060208284031215610dd457600080fd5b81518015158114610bbd57600080fd5b60008060208385031215610df757600080fd5b823567ffffffffffffffff80821115610e0f57600080fd5b818501915085601f830112610e2357600080fd5b813581811115610e3257600080fd5b866020828501011115610e4457600080fd5b60209290920196919550909350505050565b600060208284031215610e6857600080fd5b5035919050565b600060208284031215610e8157600080fd5b5051919050565b60008060408385031215610e9b57600080fd5b50508035926020909101359150565b60008251610ebc818460208701610f6d565b9190910192915050565b6001600160a01b03929092168252602082015260400190565b6020815260008251806020840152610efe816040850160208701610f6d565b601f01601f19169190910160400192915050565b6020808252818101527f4f776e61626c653a2063616c6c6572206973206e6f7420746865206f776e6572604082015260600190565b60008219821115610f6857634e487b7160e01b600052601160045260246000fd5b500190565b60005b83811015610f88578181015183820152602001610f70565b83811115610a72575050600091015256fea2646970667358221220f9931910c48cccfc2235cb3716310bc1bfa8d24bb5a32c6ed96a7f01075e31b564736f6c63430008070033",
  "immutableReferences": {},
  "source": "// SPDX-License-Identifier: MIT\n\npragma solidity ^0.8.7;\n\nimport \"@openzeppelin/contracts/token/ERC20/utils/SafeERC20.sol\";\nimport \"@openzeppelin/contracts/token/ERC20/IERC20.sol\";\nimport \"@openzeppelin/contracts/access/Ownable.sol\";\n\ncontract Airdrop is Ownable{\n    using SafeERC20 for IERC20;\n    \n    address public admin;\n    IERC20 public Bava;\n    uint256 public airdropAmount;\n\n    uint256 public validDuration = 7 days;\n    uint256 public airdropIteration;\n\n    mapping(uint256 => uint256) public accumulateAirdropAmount;\n    mapping(uint256 => uint256) public endAirdrop;      // airdrop iteration => airdrop enddate?\n    mapping(uint256 => uint256) public startAirdrop;    // airdrop iteration => airdrop startdate?\n    mapping(address => mapping(uint256 => bool)) public processedAirdrops;   //user address => airdrop iteration => claim?\n\n    event AirdropProcessed(address recipient, uint256 amount, uint256 date);\n\n    constructor(address _token, address _admin, uint256 _airdropAmount) {\n        admin = _admin;\n        Bava = IERC20(_token);\n        airdropAmount = _airdropAmount;\n    }\n\n    function updateAdmin(address newAdmin) external onlyOwner{\n        admin = newAdmin;\n    }\n\n    function updateAmount(uint256 _newAmount) external onlyOwner{\n        airdropAmount = _newAmount;\n    }\n\n    function updateEndAirdrop(uint256 _endAirdrop) public onlyOwner {\n        endAirdrop[airdropIteration] = _endAirdrop;\n    }\n\n    function updateStartAirdrop(uint256 _airdropIteration, uint256 _startAirdrop) public onlyOwner {\n        airdropIteration = _airdropIteration;\n        startAirdrop[_airdropIteration] = _startAirdrop;\n        endAirdrop[_airdropIteration] = _startAirdrop + validDuration;\n    }\n\n    function claimTokens(bytes calldata signature) external {\n        bytes32 message = prefixed(keccak256(abi.encodePacked(msg.sender, airdropAmount)));\n        require(block.timestamp > startAirdrop[airdropIteration], \"Airdrop havent start\");\n        require(block.timestamp < endAirdrop[airdropIteration], \"Airdrop window over\");\n        require(recoverSigner(message, signature) == admin, \"wrong signature\");\n        require(processedAirdrops[msg.sender][airdropIteration] == false, \"airdrop already processed\");\n\n        processedAirdrops[msg.sender][airdropIteration] = true;\n        accumulateAirdropAmount[airdropIteration] += airdropAmount;\n        safeBavaTransfer(msg.sender, airdropAmount);\n        emit AirdropProcessed(msg.sender, airdropAmount, block.timestamp);\n    }\n\n    function prefixed(bytes32 hash) internal pure returns (bytes32) {\n        return keccak256(abi.encodePacked(\"\\x19Ethereum Signed Message:\\n32\", hash));\n    }\n\n    function recoverSigner(bytes32 message, bytes memory sig) internal pure returns (address) {\n        uint8 v;\n        bytes32 r;\n        bytes32 s;\n\n        (v, r, s) = splitSignature(sig);\n\n        return ecrecover(message, v, r, s);\n    }\n\n    function splitSignature(bytes memory sig) internal pure returns (uint8, bytes32, bytes32) {\n        require(sig.length == 65);\n\n        bytes32 r;\n        bytes32 s;\n        uint8 v;\n\n        assembly {\n            // first 32 bytes, after the length prefix\n            r := mload(add(sig, 32))\n            // second 32 bytes\n            s := mload(add(sig, 64))\n            // final byte (first byte of the next 32 bytes)\n            v := byte(0, mload(add(sig, 96)))\n        }\n        return (v, r, s);\n    }\n\n    // Safe Bava transfer function, just in case if rounding error causes pool to not have enough Bavas.\n    function safeBavaTransfer(address _to, uint256 _amount) private {\n        uint256 BavaBal = Bava.balanceOf(address(this));\n        if (_amount > BavaBal) {\n            Bava.transfer(_to, BavaBal);\n        } else {\n            Bava.transfer(_to, _amount);\n        }\n    }\n\n    // Return unclaimable token\n    function returnToken(address _token, uint256 _amount, address _to) external onlyOwner {\n        require(_to != address(0), \"send to the zero address\");\n        IERC20(_token).safeTransfer(_to, _amount);\n    }\n}\n",
  "sourcePath": "/Users/cheekeatlim/Desktop/Others Project/Baklava/bao2Finance_Testnet/src/contracts/BavaAirdrop.sol",
  "compiler": {
    "name": "solc",
    "version": "0.8.7+commit.e28d00a7.Emscripten.clang"
  },
  "schemaVersion": "3.2.3",
  "updatedAt": "2022-02-24T11:14:35.901Z",
  "devdoc": {
    "kind": "dev",
    "methods": {
      "owner()": {
        "details": "Returns the address of the current owner."
      },
      "renounceOwnership()": {
        "details": "Leaves the contract without owner. It will not be possible to call `onlyOwner` functions anymore. Can only be called by the current owner. NOTE: Renouncing ownership will leave the contract without an owner, thereby removing any functionality that is only available to the owner."
      },
      "transferOwnership(address)": {
        "details": "Transfers ownership of the contract to a new account (`newOwner`). Can only be called by the current owner."
      }
    },
    "version": 1
  },
  "userdoc": {
    "kind": "user",
    "methods": {},
    "version": 1
  }
}