{
  "contractName": "BavaMasterFarmerV0",
  "abi": [
    {
      "inputs": [
        {
          "internalType": "contract IBavaToken",
          "name": "_IBava",
          "type": "address"
        },
        {
          "internalType": "address",
          "name": "_devaddr",
          "type": "address"
        },
        {
          "internalType": "address",
          "name": "_futureTreasuryaddr",
          "type": "address"
        },
        {
          "internalType": "address",
          "name": "_advisoraddr",
          "type": "address"
        },
        {
          "internalType": "address",
          "name": "_founderaddr",
          "type": "address"
        },
        {
          "internalType": "uint256",
          "name": "_userDepFee",
          "type": "uint256"
        },
        {
          "internalType": "uint256",
          "name": "_devDepFee",
          "type": "uint256"
        },
        {
          "internalType": "uint256[]",
          "name": "_blockDeltaStartStage",
          "type": "uint256[]"
        },
        {
          "internalType": "uint256[]",
          "name": "_blockDeltaEndStage",
          "type": "uint256[]"
        },
        {
          "internalType": "uint256[]",
          "name": "_userFeeStage",
          "type": "uint256[]"
        },
        {
          "internalType": "uint256[]",
          "name": "_devFeeStage",
          "type": "uint256[]"
        }
      ],
      "stateMutability": "nonpayable",
      "type": "constructor"
    },
    {
      "anonymous": false,
      "inputs": [
        {
          "indexed": true,
          "internalType": "address",
          "name": "user",
          "type": "address"
        },
        {
          "indexed": true,
          "internalType": "uint256",
          "name": "pid",
          "type": "uint256"
        },
        {
          "indexed": false,
          "internalType": "uint256",
          "name": "amount",
          "type": "uint256"
        }
      ],
      "name": "Deposit",
      "type": "event"
    },
    {
      "anonymous": false,
      "inputs": [
        {
          "indexed": true,
          "internalType": "address",
          "name": "user",
          "type": "address"
        },
        {
          "indexed": true,
          "internalType": "uint256",
          "name": "pid",
          "type": "uint256"
        },
        {
          "indexed": false,
          "internalType": "uint256",
          "name": "amount",
          "type": "uint256"
        }
      ],
      "name": "EmergencyWithdraw",
      "type": "event"
    },
    {
      "anonymous": false,
      "inputs": [
        {
          "indexed": true,
          "internalType": "address",
          "name": "previousOwner",
          "type": "address"
        },
        {
          "indexed": true,
          "internalType": "address",
          "name": "newOwner",
          "type": "address"
        }
      ],
      "name": "OwnershipTransferred",
      "type": "event"
    },
    {
      "anonymous": false,
      "inputs": [
        {
          "indexed": true,
          "internalType": "address",
          "name": "user",
          "type": "address"
        },
        {
          "indexed": true,
          "internalType": "uint256",
          "name": "pid",
          "type": "uint256"
        },
        {
          "indexed": false,
          "internalType": "uint256",
          "name": "lendAmount",
          "type": "uint256"
        }
      ],
      "name": "Reinvest",
      "type": "event"
    },
    {
      "anonymous": false,
      "inputs": [
        {
          "indexed": true,
          "internalType": "address",
          "name": "user",
          "type": "address"
        },
        {
          "indexed": true,
          "internalType": "uint256",
          "name": "pid",
          "type": "uint256"
        },
        {
          "indexed": false,
          "internalType": "uint256",
          "name": "lendAmount",
          "type": "uint256"
        }
      ],
      "name": "ReturnReinvest",
      "type": "event"
    },
    {
      "anonymous": false,
      "inputs": [
        {
          "indexed": true,
          "internalType": "address",
          "name": "user",
          "type": "address"
        },
        {
          "indexed": true,
          "internalType": "uint256",
          "name": "pid",
          "type": "uint256"
        },
        {
          "indexed": false,
          "internalType": "uint256",
          "name": "amount",
          "type": "uint256"
        },
        {
          "indexed": false,
          "internalType": "uint256",
          "name": "lockAmount",
          "type": "uint256"
        }
      ],
      "name": "SendBavaReward",
      "type": "event"
    },
    {
      "anonymous": false,
      "inputs": [
        {
          "indexed": true,
          "internalType": "address",
          "name": "user",
          "type": "address"
        },
        {
          "indexed": true,
          "internalType": "uint256",
          "name": "pid",
          "type": "uint256"
        },
        {
          "indexed": false,
          "internalType": "uint256",
          "name": "amount",
          "type": "uint256"
        }
      ],
      "name": "Withdraw",
      "type": "event"
    },
    {
      "inputs": [],
      "name": "Bava",
      "outputs": [
        {
          "internalType": "contract IBavaToken",
          "name": "",
          "type": "address"
        }
      ],
      "stateMutability": "view",
      "type": "function"
    },
    {
      "inputs": [],
      "name": "FINISH_BONUS_AT_BLOCK",
      "outputs": [
        {
          "internalType": "uint256",
          "name": "",
          "type": "uint256"
        }
      ],
      "stateMutability": "view",
      "type": "function"
    },
    {
      "inputs": [
        {
          "internalType": "uint256",
          "name": "",
          "type": "uint256"
        }
      ],
      "name": "HALVING_AT_BLOCK",
      "outputs": [
        {
          "internalType": "uint256",
          "name": "",
          "type": "uint256"
        }
      ],
      "stateMutability": "view",
      "type": "function"
    },
    {
      "inputs": [],
      "name": "PERCENT_FOR_ADR",
      "outputs": [
        {
          "internalType": "uint256",
          "name": "",
          "type": "uint256"
        }
      ],
      "stateMutability": "view",
      "type": "function"
    },
    {
      "inputs": [],
      "name": "PERCENT_FOR_DEV",
      "outputs": [
        {
          "internalType": "uint256",
          "name": "",
          "type": "uint256"
        }
      ],
      "stateMutability": "view",
      "type": "function"
    },
    {
      "inputs": [],
      "name": "PERCENT_FOR_FOUNDERS",
      "outputs": [
        {
          "internalType": "uint256",
          "name": "",
          "type": "uint256"
        }
      ],
      "stateMutability": "view",
      "type": "function"
    },
    {
      "inputs": [],
      "name": "PERCENT_FOR_FT",
      "outputs": [
        {
          "internalType": "uint256",
          "name": "",
          "type": "uint256"
        }
      ],
      "stateMutability": "view",
      "type": "function"
    },
    {
      "inputs": [],
      "name": "PERCENT_LOCK_BONUS_REWARD",
      "outputs": [
        {
          "internalType": "uint256",
          "name": "",
          "type": "uint256"
        }
      ],
      "stateMutability": "view",
      "type": "function"
    },
    {
      "inputs": [
        {
          "internalType": "uint256",
          "name": "",
          "type": "uint256"
        }
      ],
      "name": "REWARD_MULTIPLIER",
      "outputs": [
        {
          "internalType": "uint256",
          "name": "",
          "type": "uint256"
        }
      ],
      "stateMutability": "view",
      "type": "function"
    },
    {
      "inputs": [],
      "name": "REWARD_PER_BLOCK",
      "outputs": [
        {
          "internalType": "uint256",
          "name": "",
          "type": "uint256"
        }
      ],
      "stateMutability": "view",
      "type": "function"
    },
    {
      "inputs": [],
      "name": "START_BLOCK",
      "outputs": [
        {
          "internalType": "uint256",
          "name": "",
          "type": "uint256"
        }
      ],
      "stateMutability": "view",
      "type": "function"
    },
    {
      "inputs": [
        {
          "internalType": "address",
          "name": "_toAdd",
          "type": "address"
        }
      ],
      "name": "addAuthorized",
      "outputs": [],
      "stateMutability": "nonpayable",
      "type": "function"
    },
    {
      "inputs": [],
      "name": "advisoraddr",
      "outputs": [
        {
          "internalType": "address",
          "name": "",
          "type": "address"
        }
      ],
      "stateMutability": "view",
      "type": "function"
    },
    {
      "inputs": [
        {
          "internalType": "address",
          "name": "",
          "type": "address"
        }
      ],
      "name": "authorized",
      "outputs": [
        {
          "internalType": "bool",
          "name": "",
          "type": "bool"
        }
      ],
      "stateMutability": "view",
      "type": "function"
    },
    {
      "inputs": [
        {
          "internalType": "uint256",
          "name": "",
          "type": "uint256"
        }
      ],
      "name": "blockDeltaEndStage",
      "outputs": [
        {
          "internalType": "uint256",
          "name": "",
          "type": "uint256"
        }
      ],
      "stateMutability": "view",
      "type": "function"
    },
    {
      "inputs": [
        {
          "internalType": "uint256",
          "name": "",
          "type": "uint256"
        }
      ],
      "name": "blockDeltaStartStage",
      "outputs": [
        {
          "internalType": "uint256",
          "name": "",
          "type": "uint256"
        }
      ],
      "stateMutability": "view",
      "type": "function"
    },
    {
      "inputs": [],
      "name": "devDepFee",
      "outputs": [
        {
          "internalType": "uint256",
          "name": "",
          "type": "uint256"
        }
      ],
      "stateMutability": "view",
      "type": "function"
    },
    {
      "inputs": [
        {
          "internalType": "uint256",
          "name": "",
          "type": "uint256"
        }
      ],
      "name": "devFeeStage",
      "outputs": [
        {
          "internalType": "uint256",
          "name": "",
          "type": "uint256"
        }
      ],
      "stateMutability": "view",
      "type": "function"
    },
    {
      "inputs": [],
      "name": "devaddr",
      "outputs": [
        {
          "internalType": "address",
          "name": "",
          "type": "address"
        }
      ],
      "stateMutability": "view",
      "type": "function"
    },
    {
      "inputs": [],
      "name": "founderaddr",
      "outputs": [
        {
          "internalType": "address",
          "name": "",
          "type": "address"
        }
      ],
      "stateMutability": "view",
      "type": "function"
    },
    {
      "inputs": [],
      "name": "futureTreasuryaddr",
      "outputs": [
        {
          "internalType": "address",
          "name": "",
          "type": "address"
        }
      ],
      "stateMutability": "view",
      "type": "function"
    },
    {
      "inputs": [],
      "name": "migrator",
      "outputs": [
        {
          "internalType": "contract IMigratorToBavaSwap",
          "name": "",
          "type": "address"
        }
      ],
      "stateMutability": "view",
      "type": "function"
    },
    {
      "inputs": [],
      "name": "owner",
      "outputs": [
        {
          "internalType": "address",
          "name": "",
          "type": "address"
        }
      ],
      "stateMutability": "view",
      "type": "function"
    },
    {
      "inputs": [
        {
          "internalType": "address",
          "name": "",
          "type": "address"
        }
      ],
      "name": "poolId1",
      "outputs": [
        {
          "internalType": "uint256",
          "name": "",
          "type": "uint256"
        }
      ],
      "stateMutability": "view",
      "type": "function"
    },
    {
      "inputs": [
        {
          "internalType": "uint256",
          "name": "",
          "type": "uint256"
        }
      ],
      "name": "poolInfo",
      "outputs": [
        {
          "internalType": "contract IERC20",
          "name": "lpToken",
          "type": "address"
        },
        {
          "internalType": "uint256",
          "name": "allocPoint",
          "type": "uint256"
        },
        {
          "internalType": "uint256",
          "name": "lastRewardBlock",
          "type": "uint256"
        },
        {
          "internalType": "uint256",
          "name": "accBavaPerShare",
          "type": "uint256"
        },
        {
          "internalType": "uint256",
          "name": "depositAmount",
          "type": "uint256"
        },
        {
          "internalType": "uint256",
          "name": "lendAmount",
          "type": "uint256"
        }
      ],
      "stateMutability": "view",
      "type": "function"
    },
    {
      "inputs": [],
      "name": "previousOwner",
      "outputs": [
        {
          "internalType": "address",
          "name": "",
          "type": "address"
        }
      ],
      "stateMutability": "view",
      "type": "function"
    },
    {
      "inputs": [
        {
          "internalType": "address",
          "name": "_toRemove",
          "type": "address"
        }
      ],
      "name": "removeAuthorized",
      "outputs": [],
      "stateMutability": "nonpayable",
      "type": "function"
    },
    {
      "inputs": [],
      "name": "renounceOwnership",
      "outputs": [],
      "stateMutability": "nonpayable",
      "type": "function"
    },
    {
      "inputs": [],
      "name": "totalAllocPoint",
      "outputs": [
        {
          "internalType": "uint256",
          "name": "",
          "type": "uint256"
        }
      ],
      "stateMutability": "view",
      "type": "function"
    },
    {
      "inputs": [
        {
          "internalType": "address",
          "name": "newOwner",
          "type": "address"
        }
      ],
      "name": "transferOwnership",
      "outputs": [],
      "stateMutability": "nonpayable",
      "type": "function"
    },
    {
      "inputs": [],
      "name": "usdOracle",
      "outputs": [
        {
          "internalType": "address",
          "name": "",
          "type": "address"
        }
      ],
      "stateMutability": "view",
      "type": "function"
    },
    {
      "inputs": [],
      "name": "userDepFee",
      "outputs": [
        {
          "internalType": "uint256",
          "name": "",
          "type": "uint256"
        }
      ],
      "stateMutability": "view",
      "type": "function"
    },
    {
      "inputs": [
        {
          "internalType": "uint256",
          "name": "",
          "type": "uint256"
        }
      ],
      "name": "userFeeStage",
      "outputs": [
        {
          "internalType": "uint256",
          "name": "",
          "type": "uint256"
        }
      ],
      "stateMutability": "view",
      "type": "function"
    },
    {
      "inputs": [
        {
          "internalType": "address",
          "name": "",
          "type": "address"
        }
      ],
      "name": "userGlobalInfo",
      "outputs": [
        {
          "internalType": "uint256",
          "name": "globalAmount",
          "type": "uint256"
        },
        {
          "internalType": "uint256",
          "name": "totalReferals",
          "type": "uint256"
        },
        {
          "internalType": "uint256",
          "name": "globalRefAmount",
          "type": "uint256"
        }
      ],
      "stateMutability": "view",
      "type": "function"
    },
    {
      "inputs": [
        {
          "internalType": "uint256",
          "name": "",
          "type": "uint256"
        },
        {
          "internalType": "address",
          "name": "",
          "type": "address"
        }
      ],
      "name": "userInfo",
      "outputs": [
        {
          "internalType": "uint256",
          "name": "amount",
          "type": "uint256"
        },
        {
          "internalType": "uint256",
          "name": "rewardDebt",
          "type": "uint256"
        },
        {
          "internalType": "uint256",
          "name": "rewardDebtAtBlock",
          "type": "uint256"
        },
        {
          "internalType": "uint256",
          "name": "lastWithdrawBlock",
          "type": "uint256"
        },
        {
          "internalType": "uint256",
          "name": "firstDepositBlock",
          "type": "uint256"
        },
        {
          "internalType": "uint256",
          "name": "blockdelta",
          "type": "uint256"
        },
        {
          "internalType": "uint256",
          "name": "lastDepositBlock",
          "type": "uint256"
        }
      ],
      "stateMutability": "view",
      "type": "function"
    },
    {
      "inputs": [
        {
          "internalType": "uint256",
          "name": "_rewardPerBlock",
          "type": "uint256"
        },
        {
          "internalType": "uint256",
          "name": "_startBlock",
          "type": "uint256"
        },
        {
          "internalType": "uint256",
          "name": "_halvingAfterBlock",
          "type": "uint256"
        }
      ],
      "name": "initPool",
      "outputs": [],
      "stateMutability": "nonpayable",
      "type": "function"
    },
    {
      "inputs": [],
      "name": "poolLength",
      "outputs": [
        {
          "internalType": "uint256",
          "name": "",
          "type": "uint256"
        }
      ],
      "stateMutability": "view",
      "type": "function"
    },
    {
      "inputs": [
        {
          "internalType": "uint256",
          "name": "_allocPoint",
          "type": "uint256"
        },
        {
          "internalType": "contract IERC20",
          "name": "_lpToken",
          "type": "address"
        },
        {
          "internalType": "bool",
          "name": "_withUpdate",
          "type": "bool"
        }
      ],
      "name": "add",
      "outputs": [],
      "stateMutability": "nonpayable",
      "type": "function"
    },
    {
      "inputs": [
        {
          "internalType": "uint256",
          "name": "_pid",
          "type": "uint256"
        },
        {
          "internalType": "uint256",
          "name": "_allocPoint",
          "type": "uint256"
        },
        {
          "internalType": "bool",
          "name": "_withUpdate",
          "type": "bool"
        }
      ],
      "name": "set",
      "outputs": [],
      "stateMutability": "nonpayable",
      "type": "function"
    },
    {
      "inputs": [
        {
          "internalType": "contract IMigratorToBavaSwap",
          "name": "_migrator",
          "type": "address"
        }
      ],
      "name": "setMigrator",
      "outputs": [],
      "stateMutability": "nonpayable",
      "type": "function"
    },
    {
      "inputs": [
        {
          "internalType": "uint256",
          "name": "_pid",
          "type": "uint256"
        }
      ],
      "name": "migrate",
      "outputs": [],
      "stateMutability": "nonpayable",
      "type": "function"
    },
    {
      "inputs": [],
      "name": "massUpdatePools",
      "outputs": [],
      "stateMutability": "nonpayable",
      "type": "function"
    },
    {
      "inputs": [
        {
          "internalType": "uint256",
          "name": "_pid",
          "type": "uint256"
        }
      ],
      "name": "updatePool",
      "outputs": [],
      "stateMutability": "nonpayable",
      "type": "function"
    },
    {
      "inputs": [
        {
          "internalType": "uint256",
          "name": "_from",
          "type": "uint256"
        },
        {
          "internalType": "uint256",
          "name": "_to",
          "type": "uint256"
        }
      ],
      "name": "getMultiplier",
      "outputs": [
        {
          "internalType": "uint256",
          "name": "",
          "type": "uint256"
        }
      ],
      "stateMutability": "view",
      "type": "function"
    },
    {
      "inputs": [
        {
          "internalType": "uint256",
          "name": "_from",
          "type": "uint256"
        },
        {
          "internalType": "uint256",
          "name": "_to",
          "type": "uint256"
        },
        {
          "internalType": "uint256",
          "name": "_allocPoint",
          "type": "uint256"
        }
      ],
      "name": "getPoolReward",
      "outputs": [
        {
          "internalType": "uint256",
          "name": "forDev",
          "type": "uint256"
        },
        {
          "internalType": "uint256",
          "name": "forFarmer",
          "type": "uint256"
        },
        {
          "internalType": "uint256",
          "name": "forFT",
          "type": "uint256"
        },
        {
          "internalType": "uint256",
          "name": "forAdr",
          "type": "uint256"
        },
        {
          "internalType": "uint256",
          "name": "forFounders",
          "type": "uint256"
        }
      ],
      "stateMutability": "view",
      "type": "function"
    },
    {
      "inputs": [
        {
          "internalType": "uint256",
          "name": "_pid",
          "type": "uint256"
        },
        {
          "internalType": "address",
          "name": "_user",
          "type": "address"
        }
      ],
      "name": "pendingReward",
      "outputs": [
        {
          "internalType": "uint256",
          "name": "",
          "type": "uint256"
        }
      ],
      "stateMutability": "view",
      "type": "function"
    },
    {
      "inputs": [
        {
          "internalType": "uint256",
          "name": "_pid",
          "type": "uint256"
        }
      ],
      "name": "claimReward",
      "outputs": [],
      "stateMutability": "nonpayable",
      "type": "function"
    },
    {
      "inputs": [
        {
          "internalType": "address",
          "name": "_user",
          "type": "address"
        }
      ],
      "name": "getGlobalAmount",
      "outputs": [
        {
          "internalType": "uint256",
          "name": "",
          "type": "uint256"
        }
      ],
      "stateMutability": "view",
      "type": "function"
    },
    {
      "inputs": [
        {
          "internalType": "address",
          "name": "_user",
          "type": "address"
        }
      ],
      "name": "getGlobalRefAmount",
      "outputs": [
        {
          "internalType": "uint256",
          "name": "",
          "type": "uint256"
        }
      ],
      "stateMutability": "view",
      "type": "function"
    },
    {
      "inputs": [
        {
          "internalType": "address",
          "name": "_user",
          "type": "address"
        }
      ],
      "name": "getTotalRefs",
      "outputs": [
        {
          "internalType": "uint256",
          "name": "",
          "type": "uint256"
        }
      ],
      "stateMutability": "view",
      "type": "function"
    },
    {
      "inputs": [
        {
          "internalType": "address",
          "name": "_user",
          "type": "address"
        },
        {
          "internalType": "address",
          "name": "_user2",
          "type": "address"
        }
      ],
      "name": "getRefValueOf",
      "outputs": [
        {
          "internalType": "uint256",
          "name": "",
          "type": "uint256"
        }
      ],
      "stateMutability": "view",
      "type": "function"
    },
    {
      "inputs": [
        {
          "internalType": "uint256",
          "name": "_pid",
          "type": "uint256"
        },
        {
          "internalType": "uint256",
          "name": "_amount",
          "type": "uint256"
        },
        {
          "internalType": "address",
          "name": "_ref",
          "type": "address"
        }
      ],
      "name": "deposit",
      "outputs": [],
      "stateMutability": "nonpayable",
      "type": "function"
    },
    {
      "inputs": [
        {
          "internalType": "uint256",
          "name": "_pid",
          "type": "uint256"
        },
        {
          "internalType": "uint256",
          "name": "_amount",
          "type": "uint256"
        },
        {
          "internalType": "address",
          "name": "_ref",
          "type": "address"
        }
      ],
      "name": "withdraw",
      "outputs": [],
      "stateMutability": "nonpayable",
      "type": "function"
    },
    {
      "inputs": [
        {
          "internalType": "uint256",
          "name": "_pid",
          "type": "uint256"
        }
      ],
      "name": "emergencyWithdraw",
      "outputs": [],
      "stateMutability": "nonpayable",
      "type": "function"
    },
    {
      "inputs": [
        {
          "internalType": "uint256",
          "name": "_pid",
          "type": "uint256"
        },
        {
          "internalType": "uint256",
          "name": "_amount",
          "type": "uint256"
        },
        {
          "internalType": "address",
          "name": "_to",
          "type": "address"
        }
      ],
      "name": "reinvest",
      "outputs": [],
      "stateMutability": "nonpayable",
      "type": "function"
    },
    {
      "inputs": [
        {
          "internalType": "uint256",
          "name": "_pid",
          "type": "uint256"
        },
        {
          "internalType": "uint256",
          "name": "_amount",
          "type": "uint256"
        }
      ],
      "name": "returnReinvest",
      "outputs": [],
      "stateMutability": "nonpayable",
      "type": "function"
    },
    {
      "inputs": [
        {
          "internalType": "address",
          "name": "_devaddr",
          "type": "address"
        }
      ],
      "name": "devUpdate",
      "outputs": [],
      "stateMutability": "nonpayable",
      "type": "function"
    },
    {
      "inputs": [
        {
          "internalType": "uint256",
          "name": "_newFinish",
          "type": "uint256"
        }
      ],
      "name": "bonusFinishUpdate",
      "outputs": [],
      "stateMutability": "nonpayable",
      "type": "function"
    },
    {
      "inputs": [
        {
          "internalType": "uint256[]",
          "name": "_newHalving",
          "type": "uint256[]"
        }
      ],
      "name": "halvingUpdate",
      "outputs": [],
      "stateMutability": "nonpayable",
      "type": "function"
    },
    {
      "inputs": [
        {
          "internalType": "address",
          "name": "_newFT",
          "type": "address"
        }
      ],
      "name": "ftUpdate",
      "outputs": [],
      "stateMutability": "nonpayable",
      "type": "function"
    },
    {
      "inputs": [
        {
          "internalType": "address",
          "name": "_newAdr",
          "type": "address"
        }
      ],
      "name": "adrUpdate",
      "outputs": [],
      "stateMutability": "nonpayable",
      "type": "function"
    },
    {
      "inputs": [
        {
          "internalType": "address",
          "name": "_newFounder",
          "type": "address"
        }
      ],
      "name": "founderUpdate",
      "outputs": [],
      "stateMutability": "nonpayable",
      "type": "function"
    },
    {
      "inputs": [
        {
          "internalType": "uint256",
          "name": "_newReward",
          "type": "uint256"
        }
      ],
      "name": "rewardUpdate",
      "outputs": [],
      "stateMutability": "nonpayable",
      "type": "function"
    },
    {
      "inputs": [
        {
          "internalType": "uint256[]",
          "name": "_newMulReward",
          "type": "uint256[]"
        }
      ],
      "name": "rewardMulUpdate",
      "outputs": [],
      "stateMutability": "nonpayable",
      "type": "function"
    },
    {
      "inputs": [
        {
          "internalType": "uint256",
          "name": "_newlock",
          "type": "uint256"
        }
      ],
      "name": "lockUpdate",
      "outputs": [],
      "stateMutability": "nonpayable",
      "type": "function"
    },
    {
      "inputs": [
        {
          "internalType": "uint256",
          "name": "_newdevlock",
          "type": "uint256"
        }
      ],
      "name": "lockdevUpdate",
      "outputs": [],
      "stateMutability": "nonpayable",
      "type": "function"
    },
    {
      "inputs": [
        {
          "internalType": "uint256",
          "name": "_newftlock",
          "type": "uint256"
        }
      ],
      "name": "lockftUpdate",
      "outputs": [],
      "stateMutability": "nonpayable",
      "type": "function"
    },
    {
      "inputs": [
        {
          "internalType": "uint256",
          "name": "_newadrlock",
          "type": "uint256"
        }
      ],
      "name": "lockadrUpdate",
      "outputs": [],
      "stateMutability": "nonpayable",
      "type": "function"
    },
    {
      "inputs": [
        {
          "internalType": "uint256",
          "name": "_newfounderlock",
          "type": "uint256"
        }
      ],
      "name": "lockfounderUpdate",
      "outputs": [],
      "stateMutability": "nonpayable",
      "type": "function"
    },
    {
      "inputs": [
        {
          "internalType": "uint256",
          "name": "_newstarblock",
          "type": "uint256"
        }
      ],
      "name": "starblockUpdate",
      "outputs": [],
      "stateMutability": "nonpayable",
      "type": "function"
    },
    {
      "inputs": [
        {
          "internalType": "uint256",
          "name": "pid1",
          "type": "uint256"
        }
      ],
      "name": "getNewRewardPerBlock",
      "outputs": [
        {
          "internalType": "uint256",
          "name": "",
          "type": "uint256"
        }
      ],
      "stateMutability": "view",
      "type": "function"
    },
    {
      "inputs": [
        {
          "internalType": "uint256",
          "name": "_pid",
          "type": "uint256"
        }
      ],
      "name": "userDelta",
      "outputs": [
        {
          "internalType": "uint256",
          "name": "",
          "type": "uint256"
        }
      ],
      "stateMutability": "view",
      "type": "function"
    },
    {
      "inputs": [
        {
          "internalType": "uint256",
          "name": "_pid",
          "type": "uint256"
        },
        {
          "internalType": "address",
          "name": "_user",
          "type": "address"
        },
        {
          "internalType": "uint256",
          "name": "_block",
          "type": "uint256"
        }
      ],
      "name": "reviseWithdraw",
      "outputs": [],
      "stateMutability": "nonpayable",
      "type": "function"
    },
    {
      "inputs": [
        {
          "internalType": "uint256",
          "name": "_pid",
          "type": "uint256"
        },
        {
          "internalType": "address",
          "name": "_user",
          "type": "address"
        },
        {
          "internalType": "uint256",
          "name": "_block",
          "type": "uint256"
        }
      ],
      "name": "reviseDeposit",
      "outputs": [],
      "stateMutability": "nonpayable",
      "type": "function"
    },
    {
      "inputs": [
        {
          "internalType": "uint256[]",
          "name": "_blockStarts",
          "type": "uint256[]"
        }
      ],
      "name": "setStageStarts",
      "outputs": [],
      "stateMutability": "nonpayable",
      "type": "function"
    },
    {
      "inputs": [
        {
          "internalType": "uint256[]",
          "name": "_blockEnds",
          "type": "uint256[]"
        }
      ],
      "name": "setStageEnds",
      "outputs": [],
      "stateMutability": "nonpayable",
      "type": "function"
    },
    {
      "inputs": [
        {
          "internalType": "uint256[]",
          "name": "_userFees",
          "type": "uint256[]"
        }
      ],
      "name": "setUserFeeStage",
      "outputs": [],
      "stateMutability": "nonpayable",
      "type": "function"
    },
    {
      "inputs": [
        {
          "internalType": "uint256[]",
          "name": "_devFees",
          "type": "uint256[]"
        }
      ],
      "name": "setDevFeeStage",
      "outputs": [],
      "stateMutability": "nonpayable",
      "type": "function"
    },
    {
      "inputs": [
        {
          "internalType": "uint256",
          "name": "_devDepFees",
          "type": "uint256"
        }
      ],
      "name": "setDevDepFee",
      "outputs": [],
      "stateMutability": "nonpayable",
      "type": "function"
    },
    {
      "inputs": [
        {
          "internalType": "uint256",
          "name": "_usrDepFees",
          "type": "uint256"
        }
      ],
      "name": "setUserDepFee",
      "outputs": [],
      "stateMutability": "nonpayable",
      "type": "function"
    }
  ],
  "bytecode": "0x610d406040908152611000608090815261080060a081905260c081905261040060e08190526101008181526102006101208190526101408190526101608290526101808290526101a08290526101c08290526101e08290528190526102208190526102408190526102608490526102808490526102a08490526102c08490526102e08490526103008490526103208490526103408490526103608490526103808590526103a08590526103c08590526103e0859052908490526104208490526104408490526104608490526104808490526104a08490526104c084905260106104e0819052600861050081905261052081905261054081905261056081905260206105808190526105a08190526105c08790526105e08790526106008790526106208690526106408690526106608690526106808690526106a08690526106c08690526106e08690526107008690526107208690526107408690526107608490526107808490526107a0939093526107c08590526107e0859052928490526108208490526108408490526108608490526108808490526108a08490526108c08490526108e08590526109008590526109208590526109408590526109608590526109808590526109a08590526109c08590526109e0859052610a00859052610a2094909452610a40819052610a60819052610a80819052610aa0819052610ac0819052610ae0819052610b00819052610b20819052610b40819052610b60819052610b80819052610ba0819052610bc052610be0839052610c00839052610c20839052610c4092909252610c60829052610c80829052610ca0919091526004610cc0526002610ce0526001610d00526000610d20526200028490600a906066620003c4565b506000601e553480156200029757600080fd5b506040516200494938038062004949833981016040819052620002ba9162000536565b600080546001600160a01b031916339081178255604051909182917f8be0079c531659141344cd1fd0a4f28419497f9722a3daafe3b4186f6b6457e0908290a350600380546001600160a01b03199081166001600160a01b038e8116919091179092556005805482168d84161790556006805482168c84161790556007805482168b8416179055600880549091169189169190911790556011869055601285905583516200037090600c9060208701906200041a565b5082516200038690600d9060208601906200041a565b5081516200039c90600e9060208501906200041a565b508051620003b290600f9060208401906200041a565b50505050505050505050505062000691565b82805482825590600052602060002090810192821562000408579160200282015b8281111562000408578251829061ffff16905591602001919060010190620003e5565b506200041692915062000458565b5090565b82805482825590600052602060002090810192821562000408579160200282015b82811115620004085782518255916020019190600101906200043b565b5b8082111562000416576000815560010162000459565b80516001600160a01b03811681146200048757600080fd5b919050565b600082601f8301126200049e57600080fd5b815160206001600160401b0380831115620004bd57620004bd6200067b565b8260051b604051601f19603f83011681018181108482111715620004e557620004e56200067b565b604052848152838101925086840182880185018910156200050557600080fd5b600092505b858310156200052a5780518452928401926001929092019184016200050a565b50979650505050505050565b60008060008060008060008060008060006101608c8e0312156200055957600080fd5b620005648c6200046f565b9a506200057460208d016200046f565b99506200058460408d016200046f565b98506200059460608d016200046f565b9750620005a460808d016200046f565b60a08d015160c08e015160e08f015192995090975095506001600160401b03811115620005d057600080fd5b620005de8e828f016200048c565b6101008e015190955090506001600160401b03811115620005fe57600080fd5b6200060c8e828f016200048c565b6101208e015190945090506001600160401b038111156200062c57600080fd5b6200063a8e828f016200048c565b6101408e015190935090506001600160401b038111156200065a57600080fd5b620006688e828f016200048c565b9150509295989b509295989b9093969950565b634e487b7160e01b600052604160045260246000fd5b6142a880620006a16000396000f3fe608060405234801561001057600080fd5b50600436106104805760003560e01c80637c39c9c911610257578063b918161111610146578063d1ae7d70116100c3578063e668ecf211610087578063e668ecf214610b56578063ec12173d14610b69578063ed9bdeda14610b7c578063f2fde38b14610b85578063fb07543314610b9857600080fd5b8063d1ae7d7014610a96578063d49e77cd14610aa9578063d9608d8a14610abc578063dd77b9fd14610b06578063de98852414610b4357600080fd5b8063c8ed76801161010a578063c8ed768014610a02578063cb0b8ca114610a3d578063ce2529c914610a50578063cf1c316a14610a70578063d007db2914610a8357600080fd5b8063b918161114610997578063beff2a53146109ca578063c56a10ff146109dd578063c6929e53146109e6578063c8a4271f146109ef57600080fd5b80638dbdbe6d116101d4578063980c2a9811610198578063980c2a98146109425780639886046b1461094b57806398969e821461095e578063ae169a5014610971578063b60669621461098457600080fd5b80638dbdbe6d14610862578063929c69711461087557806393f1a40b1461089e57806395fdf25814610930578063975532dc1461093957600080fd5b806385ee2a7f1161021b57806385ee2a7f1461081857806387423c36146108215780638cc883ce146108345780638da5cb5b146108475780638dbb1e3a1461084f57600080fd5b80637c39c9c9146107c35780637cd07e47146107d657806382386d58146107e957806382796e98146107fc578063847bdaa41461080557600080fd5b8063354affb71161037357806351eb05a6116102f0578063630b5ba1116102b4578063630b5ba11461077c57806364482f7914610784578063674f220f146107975780636b966b9f146107a8578063715018a6146107bb57600080fd5b806351eb05a6146107045780635312ea8e146107175780635c5e490b1461072a5780636066debd146107565780636245f0841461076957600080fd5b8063454b060811610337578063454b0608146106a557806346664064146106b85780634756bfb7146106cb578063485d7d94146106de5780634af0e3e1146106f157600080fd5b8063354affb71461063757806336ebcde61461064a57806339b3e826146106765780633d479cd51461067f5780634179b4fb1461069257600080fd5b80631e0872d71161040157806324b95c3e116103c557806324b95c3e146105d85780632a7b0107146105eb5780632fda7735146105fe57806330fb8e0e1461061157806333b8154a1461062457600080fd5b80631e0872d7146105835780631eaaa045146105965780631f84593e146105a957806323cf3118146105b2578063245b211d146105c557600080fd5b80630ce4c922116104485780630ce4c922146104ea57806313bb3c33146104fd5780631526fe271461051d57806317caf6f1146105675780631d465c821461057057600080fd5b806301b689c01461048557806303ebeb9c1461049a578063081e3eda146104ad57806309ae4d2c146104c45780630ad58d2f146104d7575b600080fd5b610498610493366004613ef3565b610bab565b005b6104986104a8366004613ef3565b610be6565b601a545b6040519081526020015b60405180910390f35b6104b16104d2366004613ef3565b610c21565b6104986104e5366004613fe6565b610c70565b6104986104f8366004614042565b611845565b600354610510906001600160a01b031681565b6040516104bb919061408a565b61053061052b366004613ef3565b611960565b604080516001600160a01b0390971687526020870195909552938501929092526060840152608083015260a082015260c0016104bb565b6104b1601e5481565b6104b161057e366004613ef3565b6119b0565b600754610510906001600160a01b031681565b6104986105a4366004613f82565b611a36565b6104b160165481565b6104986105c0366004613d9e565b611c59565b6104986105d3366004613ef3565b611ca5565b6104986105e6366004613ef3565b611ce0565b6104986105f9366004613df4565b611d1b565b6104b161060c366004613ef3565b611d68565b61049861061f366004613d9e565b611d89565b610498610632366004613d9e565b611de1565b610498610645366004613df4565b611e39565b6104b1610658366004613d9e565b6001600160a01b03166000908152601d602052604090206002015490565b6104b160135481565b61049861068d366004613ef3565b611e82565b6104b16106a0366004613ef3565b611ebd565b6104986106b3366004613ef3565b611ecd565b6104986106c6366004613df4565b6120ce565b6104986106d9366004613fc4565b612117565b6104986106ec366004613d9e565b61221d565b6104986106ff366004613df4565b61227e565b610498610712366004613ef3565b6122c7565b610498610725366004613ef3565b6127b5565b6104b1610738366004613d9e565b6001600160a01b03166000908152601d602052604090206003015490565b610498610764366004613f4a565b61290f565b6104b1610777366004613ef3565b61296e565b61049861297e565b610498610792366004614014565b6129a5565b6001546001600160a01b0316610510565b6104986107b6366004613fe6565b612a4e565b610498612b7a565b6104986107d1366004613ef3565b612bee565b601954610510906001600160a01b031681565b6104986107f7366004613f4a565b612c29565b6104b160115481565b610498610813366004613df4565b612c88565b6104b160175481565b61049861082f366004613d9e565b612cd1565b610498610842366004613df4565b612d29565b610510612d72565b6104b161085d366004613fc4565b612d81565b610498610870366004613fe6565b612e8d565b6104b1610883366004613d9e565b6001600160a01b03166000908152601d602052604090205490565b6108fb6108ac366004613f25565b601c602052816000526040600020602052806000526040600020600091509150508060000154908060010154908060020154908060030154908060040154908060050154908060060154905087565b604080519788526020880196909652948601939093526060850191909152608084015260a083015260c082015260e0016104bb565b6104b160145481565b6104b160095481565b6104b160105481565b610498610959366004613d9e565b613191565b6104b161096c366004613f25565b6131e9565b61049861097f366004613ef3565b6132d5565b610498610992366004613ef3565b6132ea565b6109ba6109a5366004613d9e565b60026020526000908152604090205460ff1681565b60405190151581526020016104bb565b6104b16109d8366004613ef3565b613325565b6104b160125481565b6104b160185481565b600454610510906001600160a01b031681565b610a15610a10366004614042565b613335565b604080519586526020860194909452928401919091526060830152608082015260a0016104bb565b6104b1610a4b366004613ef3565b613535565b6104b1610a5e366004613d9e565b601b6020526000908152604090205481565b610498610a7e366004613d9e565b613545565b6104b1610a91366004613ef3565b613593565b600654610510906001600160a01b031681565b600554610510906001600160a01b031681565b610aeb610aca366004613d9e565b601d6020526000908152604090208054600282015460039092015490919083565b604080519384526020840192909252908201526060016104bb565b6104b1610b14366004613dbb565b6001600160a01b039182166000908152601d602090815260408083209390941682526001909201909152205490565b610498610b51366004613ef3565b6135a3565b610498610b64366004613ef3565b6135de565b600854610510906001600160a01b031681565b6104b160155481565b610498610b93366004613d9e565b613619565b610498610ba6366004613ef3565b613703565b3360009081526002602052604090205460ff1680610bd8575033610bcd612d72565b6001600160a01b0316145b610be157600080fd5b601455565b3360009081526002602052604090205460ff1680610c13575033610c08612d72565b6001600160a01b0316145b610c1c57600080fd5b601755565b6000818152601c602090815260408083203384529091528120600381015415610c5e576000816003015443610c5691906141af565b949350505050565b6000816004015443610c5691906141af565b6000601a8481548110610c8557610c85614223565b60009182526020808320878452601c8252604080852033865290925292206004600690920290920190810154825491935090811015610cdf5760405162461bcd60e51b8152600401610cd6906140ea565b60405180910390fd5b6001600160a01b0384166000908152601d602052604080822033835291208354871115610d435760405162461bcd60e51b81526020600482015260126024820152711dda5d1a191c985dce881b9bdd0819dbdbd960721b6044820152606401610cd6565b6001600160a01b03861615610d9757336000908152600183016020526040902054610d6f9088906141af565b3360009081526001840160205260409020556003820154610d919088906141af565b60038301555b8054610da49088906141af565b8155610daf886122c7565b610db88861373e565b861561183b578354610dcb9088906141af565b8455600384015415610df0576003840154610de690436141af565b6005850155610e05565b6004840154610dff90436141af565b60058501555b600c600081548110610e1957610e19614223565b906000526020600020015484600501541480610e385750836006015443145b15610f55576064600e600081548110610e5357610e53614223565b906000526020600020015488610e699190614190565b610e73919061416e565b856004016000828254610e8691906141af565b925050819055506064600f600081548110610ea357610ea3614223565b906000526020600020015488610eb99190614190565b610ec3919061416e565b856004016000828254610ed691906141af565b92505081905550610f29336064600e600081548110610ef757610ef7614223565b90600052602060002001548a610f0d9190614190565b610f17919061416e565b87546001600160a01b031691906139ca565b600554600f8054610f50926001600160a01b031691606491600090610ef757610ef7614223565b6117d7565b600c600181548110610f6957610f69614223565b9060005260206000200154846005015410158015610fa95750600d600081548110610f9657610f96614223565b9060005260206000200154846005015411155b15611091576064600e600181548110610fc457610fc4614223565b906000526020600020015488610fda9190614190565b610fe4919061416e565b856004016000828254610ff791906141af565b925050819055506064600f60018154811061101457611014614223565b90600052602060002001548861102a9190614190565b611034919061416e565b85600401600082825461104791906141af565b92505081905550611068336064600e600181548110610ef757610ef7614223565b600554600f8054610f50926001600160a01b0316916064916001908110610ef757610ef7614223565b600c6002815481106110a5576110a5614223565b90600052602060002001548460050154101580156110e55750600d6001815481106110d2576110d2614223565b9060005260206000200154846005015411155b156111cd576064600e60028154811061110057611100614223565b9060005260206000200154886111169190614190565b611120919061416e565b85600401600082825461113391906141af565b925050819055506064600f60028154811061115057611150614223565b9060005260206000200154886111669190614190565b611170919061416e565b85600401600082825461118391906141af565b925050819055506111a4336064600e600281548110610ef757610ef7614223565b600554600f8054610f50926001600160a01b0316916064916002908110610ef757610ef7614223565b600c6003815481106111e1576111e1614223565b90600052602060002001548460050154101580156112215750600d60028154811061120e5761120e614223565b9060005260206000200154846005015411155b15611309576064600e60038154811061123c5761123c614223565b9060005260206000200154886112529190614190565b61125c919061416e565b85600401600082825461126f91906141af565b925050819055506064600f60038154811061128c5761128c614223565b9060005260206000200154886112a29190614190565b6112ac919061416e565b8560040160008282546112bf91906141af565b925050819055506112e0336064600e600381548110610ef757610ef7614223565b600554600f8054610f50926001600160a01b0316916064916003908110610ef757610ef7614223565b600c60048154811061131d5761131d614223565b906000526020600020015484600501541015801561135d5750600d60038154811061134a5761134a614223565b9060005260206000200154846005015411155b15611445576064600e60048154811061137857611378614223565b90600052602060002001548861138e9190614190565b611398919061416e565b8560040160008282546113ab91906141af565b925050819055506064600f6004815481106113c8576113c8614223565b9060005260206000200154886113de9190614190565b6113e8919061416e565b8560040160008282546113fb91906141af565b9250508190555061141c336064600e600481548110610ef757610ef7614223565b600554600f8054610f50926001600160a01b0316916064916004908110610ef757610ef7614223565b600c60058154811061145957611459614223565b90600052602060002001548460050154101580156114995750600d60048154811061148657611486614223565b9060005260206000200154846005015411155b15611586576103e8600e6005815481106114b5576114b5614223565b9060005260206000200154886114cb9190614190565b6114d5919061416e565b8560040160008282546114e891906141af565b925050819055506103e8600f60058154811061150657611506614223565b90600052602060002001548861151c9190614190565b611526919061416e565b85600401600082825461153991906141af565b9250508190555061155b336103e8600e600581548110610ef757610ef7614223565b60058054600f8054610f50936001600160a01b03909316926103e892918110610ef757610ef7614223565b600c60068154811061159a5761159a614223565b90600052602060002001548460050154101580156115da5750600d6005815481106115c7576115c7614223565b9060005260206000200154846005015411155b156116c657612710600e6006815481106115f6576115f6614223565b90600052602060002001548861160c9190614190565b611616919061416e565b85600401600082825461162991906141af565b92505081905550612710600f60068154811061164757611647614223565b90600052602060002001548861165d9190614190565b611667919061416e565b85600401600082825461167a91906141af565b9250508190555061169c33612710600e600681548110610ef757610ef7614223565b600554600f8054610f50926001600160a01b031691612710916006908110610ef757610ef7614223565b600c6007815481106116da576116da614223565b9060005260206000200154846005015411156117d757612710600e60078154811061170757611707614223565b90600052602060002001548861171d9190614190565b611727919061416e565b85600401600082825461173a91906141af565b92505081905550612710600f60078154811061175857611758614223565b90600052602060002001548861176e9190614190565b611778919061416e565b85600401600082825461178b91906141af565b925050819055506117ad33612710600e600781548110610ef757610ef7614223565b600554600f80546117d7926001600160a01b031691612710916007908110610ef757610ef7614223565b6003850154845464e8d4a51000916117ee91614190565b6117f8919061416e565b6001850155604051878152889033907ff279e6a1f5e320cca91135676d9cb6e44ca8a08c0b88342bcdb1144f6511b5689060200160405180910390a34360038501555b5050505050505050565b6000546001600160a01b0316331461186f5760405162461bcd60e51b8152600401610cd690614121565b6009839055601382905560005b600a5461188b906001906141af565b8110156118fa576000836118a0836001614156565b6118aa9085614190565b6118b49190614156565b600b80546001810182556000919091527f0175b7a638427703f0dbe7bb9bbf987a2551717b34e79f33b5b1008d1fa01db9015550806118f2816141f2565b91505061187c565b50600a54829061190c906001906141af565b6119169083614190565b6119209190614156565b6010555050600b80546001810182556000919091526000197f0175b7a638427703f0dbe7bb9bbf987a2551717b34e79f33b5b1008d1fa01db99091015550565b601a818154811061197057600080fd5b60009182526020909120600690910201805460018201546002830154600384015460048501546005909501546001600160a01b0390941695509193909286565b6000806119c76119c16001436141af565b43612d81565b9050826119e2576009546119db9082614190565b9392505050565b601e54601a6119f26001866141af565b81548110611a0257611a02614223565b90600052602060002090600602016001015460095483611a229190614190565b611a2c9190614190565b6119db919061416e565b6000546001600160a01b03163314611a605760405162461bcd60e51b8152600401610cd690614121565b6001600160a01b0382166000908152601b602052604090205415611abe5760405162461bcd60e51b81526020600482015260156024820152741b1c081a5cc8185b1c9958591e481a5b881c1bdbdb605a1b6044820152606401610cd6565b8015611acc57611acc61297e565b60006013544311611adf57601354611ae1565b435b905083601e54611af19190614156565b601e55601a54611b02906001614156565b6001600160a01b039384166000818152601b6020908152604080832094909455835160c0810185529283528201968752918101928352606081018281526080820183815260a08301848152601a8054600181018255955292517f057c384a7d1c54f3a1b2e5e67b2617b8224fdfd1ea7234eea573a6ff665ff63e600690950294850180546001600160a01b031916919098161790965595517f057c384a7d1c54f3a1b2e5e67b2617b8224fdfd1ea7234eea573a6ff665ff63f83015591517f057c384a7d1c54f3a1b2e5e67b2617b8224fdfd1ea7234eea573a6ff665ff64082015593517f057c384a7d1c54f3a1b2e5e67b2617b8224fdfd1ea7234eea573a6ff665ff64185015591517f057c384a7d1c54f3a1b2e5e67b2617b8224fdfd1ea7234eea573a6ff665ff64284015550517f057c384a7d1c54f3a1b2e5e67b2617b8224fdfd1ea7234eea573a6ff665ff64390910155565b6000546001600160a01b03163314611c835760405162461bcd60e51b8152600401610cd690614121565b601980546001600160a01b0319166001600160a01b0392909216919091179055565b3360009081526002602052604090205460ff1680611cd2575033611cc7612d72565b6001600160a01b0316145b611cdb57600080fd5b601055565b3360009081526002602052604090205460ff1680611d0d575033611d02612d72565b6001600160a01b0316145b611d1657600080fd5b601355565b3360009081526002602052604090205460ff1680611d48575033611d3d612d72565b6001600160a01b0316145b611d5157600080fd5b8051611d6490600e906020840190613d3e565b5050565b600a8181548110611d7857600080fd5b600091825260209091200154905081565b3360009081526002602052604090205460ff1680611db6575033611dab612d72565b6001600160a01b0316145b611dbf57600080fd5b600880546001600160a01b0319166001600160a01b0392909216919091179055565b3360009081526002602052604090205460ff1680611e0e575033611e03612d72565b6001600160a01b0316145b611e1757600080fd5b600680546001600160a01b0319166001600160a01b0392909216919091179055565b3360009081526002602052604090205460ff1680611e66575033611e5b612d72565b6001600160a01b0316145b611e6f57600080fd5b8051611d6490600b906020840190613d3e565b3360009081526002602052604090205460ff1680611eaf575033611ea4612d72565b6001600160a01b0316145b611eb857600080fd5b600955565b600b8181548110611d7857600080fd5b6019546001600160a01b0316611f115760405162461bcd60e51b815260206004820152600960248201526830206164647265737360b81b6044820152606401610cd6565b6000601a8281548110611f2657611f26614223565b60009182526020909120600690910201805460048201546019549293506001600160a01b03918216929091611f5e9184911683613a20565b80836004016000828254611f7291906141af565b909155505060195460405163ce5494bb60e01b81526000916001600160a01b03169063ce5494bb90611fa890869060040161408a565b602060405180830381600087803b158015611fc257600080fd5b505af1158015611fd6573d6000803e3d6000fd5b505050506040513d601f19601f82011682018060405250810190611ffa9190613ed6565b6040516370a0823160e01b81529091506001600160a01b038216906370a082319061202990309060040161408a565b60206040518083038186803b15801561204157600080fd5b505afa158015612055573d6000803e3d6000fd5b505050506040513d601f19601f820116820180604052508101906120799190613f0c565b82146120ad5760405162461bcd60e51b815260206004820152600360248201526218985960ea1b6044820152606401610cd6565b83546001600160a01b0319166001600160a01b039190911617909255505050565b3360009081526002602052604090205460ff16806120fb5750336120f0612d72565b6001600160a01b0316145b61210457600080fd5b8051611d6490600a906020840190613d3e565b6000601a838154811061212c5761212c614223565b90600052602060002090600602019050600081600501549050808311156121955760405162461bcd60e51b815260206004820152601b60248201527f72657475726e20416d6f756e74203e206c656e6420616d6f756e7400000000006044820152606401610cd6565b81546121ac906001600160a01b0316333086613b33565b828260040160008282546121c09190614156565b92505081905550828260050160008282546121db91906141af565b9091555050604051838152849033907f8b360b45c40ff2b07f82c48e15372be7b837d6d03be7196df552834c7de02c679060200160405180910390a350505050565b6000546001600160a01b031633146122475760405162461bcd60e51b8152600401610cd690614121565b6001600160a01b03811633141561225d57600080fd5b6001600160a01b03166000908152600260205260409020805460ff19169055565b3360009081526002602052604090205460ff16806122ab5750336122a0612d72565b6001600160a01b0316145b6122b457600080fd5b8051611d6490600d906020840190613d3e565b6000601a82815481106122dc576122dc614223565b90600052602060002090600602019050806002015443116122fb575050565b60048101548061231057504360029091015550565b600080600080600061232b8760020154438960010154613335565b6003546040516340c10f1960e01b8152959a50939850919650945092506001600160a01b0316906340c10f1990612368903090889060040161409e565b600060405180830381600087803b15801561238257600080fd5b505af1158015612396573d6000803e3d6000fd5b50505050858464e8d4a510006123ac9190614190565b6123b6919061416e565b87600301546123c59190614156565b600388015543600288015584156124c7576003546005546040516340c10f1960e01b81526001600160a01b03928316926340c10f199261240c92911690899060040161409e565b600060405180830381600087803b15801561242657600080fd5b505af115801561243a573d6000803e3d6000fd5b5050505060105443116124c7576003546005546001600160a01b039182169163282d3fdf9116606461246d89604b614190565b612477919061416e565b6040518363ffffffff1660e01b815260040161249492919061409e565b600060405180830381600087803b1580156124ae57600080fd5b505af11580156124c2573d6000803e3d6000fd5b505050505b82156125be576003546006546040516340c10f1960e01b81526001600160a01b03928316926340c10f199261250392911690879060040161409e565b600060405180830381600087803b15801561251d57600080fd5b505af1158015612531573d6000803e3d6000fd5b5050505060105443116125be576003546006546001600160a01b039182169163282d3fdf9116606461256487602d614190565b61256e919061416e565b6040518363ffffffff1660e01b815260040161258b92919061409e565b600060405180830381600087803b1580156125a557600080fd5b505af11580156125b9573d6000803e3d6000fd5b505050505b81156126b5576003546007546040516340c10f1960e01b81526001600160a01b03928316926340c10f19926125fa92911690869060040161409e565b600060405180830381600087803b15801561261457600080fd5b505af1158015612628573d6000803e3d6000fd5b5050505060105443116126b5576003546007546001600160a01b039182169163282d3fdf9116606461265b866055614190565b612665919061416e565b6040518363ffffffff1660e01b815260040161268292919061409e565b600060405180830381600087803b15801561269c57600080fd5b505af11580156126b0573d6000803e3d6000fd5b505050505b801561183b576003546008546040516340c10f1960e01b81526001600160a01b03928316926340c10f19926126f192911690859060040161409e565b600060405180830381600087803b15801561270b57600080fd5b505af115801561271f573d6000803e3d6000fd5b50505050601054431161183b576003546008546001600160a01b039182169163282d3fdf9116606461275285605f614190565b61275c919061416e565b6040518363ffffffff1660e01b815260040161277992919061409e565b600060405180830381600087803b15801561279357600080fd5b505af11580156127a7573d6000803e3d6000fd5b505050505050505050505050565b6000601a82815481106127ca576127ca614223565b60009182526020808320858452601c825260408085203386529092529220600460069092029092019081015482549193509081101561281b5760405162461bcd60e51b8152600401610cd6906140ea565b815460009060649061282e90604b614190565b612838919061416e565b9050600060648460000154601961284f9190614190565b612859919061416e565b600080865560018601819055600487018054929350849290919061287e9084906141af565b925050819055508085600401600082825461289991906141af565b909155505084546128b4906001600160a01b031633846139ca565b60055485546128d0916001600160a01b039182169116836139ca565b604051828152869033907fbb757047c2b5f3974fe26b7c10f732e7bce710b0952a71082702781e62ae05959060200160405180910390a3505050505050565b3360009081526002602052604090205460ff168061293c575033612931612d72565b6001600160a01b0316145b61294557600080fd5b6000928352601c602090815260408085206001600160a01b039094168552929052912060030155565b600c8181548110611d7857600080fd5b601a5460005b81811015611d6457612995816122c7565b61299e816141f2565b9050612984565b6000546001600160a01b031633146129cf5760405162461bcd60e51b8152600401610cd690614121565b80156129dd576129dd61297e565b81601a84815481106129f1576129f1614223565b906000526020600020906006020160010154601e54612a1091906141af565b612a1a9190614156565b601e8190555081601a8481548110612a3457612a34614223565b906000526020600020906006020160010181905550505050565b6000546001600160a01b03163314612a785760405162461bcd60e51b8152600401610cd690614121565b6000601a8481548110612a8d57612a8d614223565b9060005260206000209060060201905060008160040154905083811015612af25760405162461bcd60e51b81526020600482015260196024820152786c656e6420616d6f756e74203e206661726d42616c616e636560381b6044820152606401610cd6565b83826005016000828254612b069190614156565b9250508190555083826004016000828254612b2191906141af565b90915550508154612b3c906001600160a01b031684866139ca565b604051848152859033907fc003f45bc224d116b6d079100d4ab57a5b9633244c47a5a92a176c5b79a85f289060200160405180910390a35050505050565b6000546001600160a01b03163314612ba45760405162461bcd60e51b8152600401610cd690614121565b600080546040516001600160a01b03909116907f8be0079c531659141344cd1fd0a4f28419497f9722a3daafe3b4186f6b6457e0908390a3600080546001600160a01b0319169055565b3360009081526002602052604090205460ff1680612c1b575033612c10612d72565b6001600160a01b0316145b612c2457600080fd5b601155565b3360009081526002602052604090205460ff1680612c56575033612c4b612d72565b6001600160a01b0316145b612c5f57600080fd5b6000928352601c602090815260408085206001600160a01b039094168552929052912060040155565b3360009081526002602052604090205460ff1680612cb5575033612caa612d72565b6001600160a01b0316145b612cbe57600080fd5b8051611d6490600c906020840190613d3e565b3360009081526002602052604090205460ff1680612cfe575033612cf3612d72565b6001600160a01b0316145b612d0757600080fd5b600580546001600160a01b0319166001600160a01b0392909216919091179055565b3360009081526002602052604090205460ff1680612d56575033612d4b612d72565b6001600160a01b0316145b612d5f57600080fd5b8051611d6490600f906020840190613d3e565b6000546001600160a01b031690565b6013546000908190841015612d9a576000915050612e87565b60005b600b54811015612e83576000600b8281548110612dbc57612dbc614223565b90600052602060002001549050808511612e1d576000600a8381548110612de557612de5614223565b90600052602060002001548787612dfc91906141af565b612e069190614190565b9050612e128185614156565b945050505050612e87565b80861015612e70576000600a8381548110612e3a57612e3a614223565b90600052602060002001548783612e5191906141af565b612e5b9190614190565b90508196508084612e6c9190614156565b9350505b5080612e7b816141f2565b915050612d9d565b5090505b92915050565b60008211612edd5760405162461bcd60e51b815260206004820152601a60248201527f616d6f756e74206d7573742067726561746572207468616e20300000000000006044820152606401610cd6565b6000601a8481548110612ef257612ef2614223565b60009182526020808320878452601c82526040808520338087529084528186206005546001600160a01b039081168852838820908a168852601d865283882092885283882060018401909652929096205460069590950290920195509290919015612fa057336000908152600183016020526040902054612f74908890614156565b3360009081526001840160205260409020556003820154612f96908890614156565b6003830155612ffd565b336000908152600183016020526040902054612fbd908890614156565b33600090815260018085016020526040909120919091556002830154612fe291614156565b60028301556003820154612ff7908890614156565b60038301555b6127106011548861300e9190614190565b613018919061416e565b61302290886141af565b815461302e9190614156565b8155613039886122c7565b6130428861373e565b8454613059906001600160a01b031633308a613b33565b8685600401600082825461306d9190614156565b9091555050835461307f574360028501555b612710601154886130909190614190565b61309a919061416e565b6130a490886141af565b84546130b09190614156565b808555600386015464e8d4a51000916130c99190614190565b6130d3919061416e565b6001850155601254612710906130e99089614190565b6130f3919061416e565b6130fd90886141af565b83546131099190614156565b808455600386015464e8d4a51000916131229190614190565b61312c919061416e565b6001840155604051878152889033907f90890809c654f11d6e72a28fa60149770a0d11ec6c92319d6ceb2bb0a4ea1a159060200160405180910390a36004840154156131775761317e565b4360048501555b4384600601819055505050505050505050565b3360009081526002602052604090205460ff16806131be5750336131b3612d72565b6001600160a01b0316145b6131c757600080fd5b600780546001600160a01b0319166001600160a01b0392909216919091179055565b600080601a84815481106131ff576131ff614223565b60009182526020808320878452601c825260408085206001600160a01b038916865290925292206003600690920290920190810154600482015460028301549294509091431180156132515750600081115b1561329d57600061326b8560020154438760010154613335565b50919350849250613285915083905064e8d4a51000614190565b61328f919061416e565b6132999084614156565b9250505b6001830154835464e8d4a51000906132b6908590614190565b6132c0919061416e565b6132ca91906141af565b979650505050505050565b6132de816122c7565b6132e78161373e565b50565b3360009081526002602052604090205460ff168061331757503361330c612d72565b6001600160a01b0316145b61332057600080fd5b601555565b600f8181548110611d7857600080fd5b6000806000806000806133488989612d81565b90506000601e54886009548461335e9190614190565b6133689190614190565b613372919061416e565b90506000600360009054906101000a90046001600160a01b03166001600160a01b03166318160ddd6040518163ffffffff1660e01b815260040160206040518083038186803b1580156133c457600080fd5b505afa1580156133d8573d6000803e3d6000fd5b505050506040513d601f19601f820116820180604052508101906133fc9190613f0c565b600360009054906101000a90046001600160a01b03166001600160a01b031663355274ea6040518163ffffffff1660e01b815260040160206040518083038186803b15801561344a57600080fd5b505afa15801561345e573d6000803e3d6000fd5b505050506040513d601f19601f820116820180604052508101906134829190613f0c565b61348c91906141af565b9050818110156134ae5760009750809650600095506000945060009350613527565b620186a0601554836134c09190614190565b6134ca919061416e565b97508196506064601654836134df9190614190565b6134e9919061416e565b9550612710601754836134fc9190614190565b613506919061416e565b9450620186a06018548361351a9190614190565b613524919061416e565b93505b505050939792965093509350565b600d8181548110611d7857600080fd5b6000546001600160a01b0316331461356f5760405162461bcd60e51b8152600401610cd690614121565b6001600160a01b03166000908152600260205260409020805460ff19166001179055565b600e8181548110611d7857600080fd5b3360009081526002602052604090205460ff16806135d05750336135c5612d72565b6001600160a01b0316145b6135d957600080fd5b601855565b3360009081526002602052604090205460ff168061360b575033613600612d72565b6001600160a01b0316145b61361457600080fd5b601655565b6000546001600160a01b031633146136435760405162461bcd60e51b8152600401610cd690614121565b6001600160a01b0381166136a85760405162461bcd60e51b815260206004820152602660248201527f4f776e61626c653a206e6577206f776e657220697320746865207a65726f206160448201526564647265737360d01b6064820152608401610cd6565b600080546040516001600160a01b03808516939216917f8be0079c531659141344cd1fd0a4f28419497f9722a3daafe3b4186f6b6457e091a3600080546001600160a01b0319166001600160a01b0392909216919091179055565b3360009081526002602052604090205460ff1680613730575033613725612d72565b6001600160a01b0316145b61373957600080fd5b601255565b6000601a828154811061375357613753614223565b60009182526020808320858452601c825260408085203386529092529220805460069092029092019250156139c5576000816001015464e8d4a51000846003015484600001546137a39190614190565b6137ad919061416e565b6137b791906141af565b6003546040516370a0823160e01b81529192506000916001600160a01b03909116906370a08231906137ed90309060040161408a565b60206040518083038186803b15801561380557600080fd5b505afa158015613819573d6000803e3d6000fd5b505050506040513d601f19601f8201168201806040525081019061383d9190613f0c565b90508082111561384b578091505b811561399c5760035460405163a9059cbb60e01b81526001600160a01b039091169063a9059cbb90613883903390869060040161409e565b602060405180830381600087803b15801561389d57600080fd5b505af11580156138b1573d6000803e3d6000fd5b505050506040513d601f19601f820116820180604052508101906138d59190613eb9565b5060006064601454846138e89190614190565b6138f2919061416e565b60035460405163282d3fdf60e01b81529192506001600160a01b03169063282d3fdf90613925903390859060040161409e565b600060405180830381600087803b15801561393f57600080fd5b505af1158015613953573d6000803e3d6000fd5b505043600287015550506040805184815260208101839052879133917f93fdfb615a61d5d994a2a785eb4628417adaea7d6acdc5b224303687f2269a16910160405180910390a3505b6003840154835464e8d4a51000916139b391614190565b6139bd919061416e565b600184015550505b505050565b6139c58363a9059cbb60e01b84846040516024016139e992919061409e565b60408051601f198184030181529190526020810180516001600160e01b03166001600160e01b031990931692909217909152613b71565b801580613aa95750604051636eb1769f60e11b81523060048201526001600160a01b03838116602483015284169063dd62ed3e9060440160206040518083038186803b158015613a6f57600080fd5b505afa158015613a83573d6000803e3d6000fd5b505050506040513d601f19601f82011682018060405250810190613aa79190613f0c565b155b613b145760405162461bcd60e51b815260206004820152603660248201527f5361666545524332303a20617070726f76652066726f6d206e6f6e2d7a65726f60448201527520746f206e6f6e2d7a65726f20616c6c6f77616e636560501b6064820152608401610cd6565b6139c58363095ea7b360e01b84846040516024016139e992919061409e565b6040516001600160a01b0380851660248301528316604482015260648101829052613b6b9085906323b872dd60e01b906084016139e9565b50505050565b6000613bc6826040518060400160405280602081526020017f5361666545524332303a206c6f772d6c6576656c2063616c6c206661696c6564815250856001600160a01b0316613c439092919063ffffffff16565b8051909150156139c55780806020019051810190613be49190613eb9565b6139c55760405162461bcd60e51b815260206004820152602a60248201527f5361666545524332303a204552433230206f7065726174696f6e20646964206e6044820152691bdd081cdd58d8d9595960b21b6064820152608401610cd6565b6060610c56848460008585843b613c9c5760405162461bcd60e51b815260206004820152601d60248201527f416464726573733a2063616c6c20746f206e6f6e2d636f6e74726163740000006044820152606401610cd6565b600080866001600160a01b03168587604051613cb8919061406e565b60006040518083038185875af1925050503d8060008114613cf5576040519150601f19603f3d011682016040523d82523d6000602084013e613cfa565b606091505b50915091506132ca82828660608315613d145750816119db565b825115613d245782518084602001fd5b8160405162461bcd60e51b8152600401610cd691906140b7565b828054828255906000526020600020908101928215613d79579160200282015b82811115613d79578251825591602001919060010190613d5e565b50613d85929150613d89565b5090565b5b80821115613d855760008155600101613d8a565b600060208284031215613db057600080fd5b81356119db8161424f565b60008060408385031215613dce57600080fd5b8235613dd98161424f565b91506020830135613de98161424f565b809150509250929050565b60006020808385031215613e0757600080fd5b823567ffffffffffffffff80821115613e1f57600080fd5b818501915085601f830112613e3357600080fd5b813581811115613e4557613e45614239565b8060051b604051601f19603f83011681018181108582111715613e6a57613e6a614239565b604052828152858101935084860182860187018a1015613e8957600080fd5b600095505b83861015613eac578035855260019590950194938601938601613e8e565b5098975050505050505050565b600060208284031215613ecb57600080fd5b81516119db81614264565b600060208284031215613ee857600080fd5b81516119db8161424f565b600060208284031215613f0557600080fd5b5035919050565b600060208284031215613f1e57600080fd5b5051919050565b60008060408385031215613f3857600080fd5b823591506020830135613de98161424f565b600080600060608486031215613f5f57600080fd5b833592506020840135613f718161424f565b929592945050506040919091013590565b600080600060608486031215613f9757600080fd5b833592506020840135613fa98161424f565b91506040840135613fb981614264565b809150509250925092565b60008060408385031215613fd757600080fd5b50508035926020909101359150565b600080600060608486031215613ffb57600080fd5b83359250602084013591506040840135613fb98161424f565b60008060006060848603121561402957600080fd5b83359250602084013591506040840135613fb981614264565b60008060006060848603121561405757600080fd5b505081359360208301359350604090920135919050565b600082516140808184602087016141c6565b9190910192915050565b6001600160a01b0391909116815260200190565b6001600160a01b03929092168252602082015260400190565b60208152600082518060208401526140d68160408501602087016141c6565b601f01601f19169190910160400192915050565b6020808252601d908201527f776974686472617720616d6f756e74203e206661726d42616c616e6365000000604082015260600190565b6020808252818101527f4f776e61626c653a2063616c6c6572206973206e6f7420746865206f776e6572604082015260600190565b600082198211156141695761416961420d565b500190565b60008261418b57634e487b7160e01b600052601260045260246000fd5b500490565b60008160001904831182151516156141aa576141aa61420d565b500290565b6000828210156141c1576141c161420d565b500390565b60005b838110156141e15781810151838201526020016141c9565b83811115613b6b5750506000910152565b60006000198214156142065761420661420d565b5060010190565b634e487b7160e01b600052601160045260246000fd5b634e487b7160e01b600052603260045260246000fd5b634e487b7160e01b600052604160045260246000fd5b6001600160a01b03811681146132e757600080fd5b80151581146132e757600080fdfea2646970667358221220cb2ea34c1dc32006690e80cd26987a837865a1a071335e839677cc94dc73f45064736f6c63430008070033",
  "immutableReferences": {},
  "source": "// SPDX-License-Identifier: UNLICENSED\r\n\r\npragma solidity ^0.8.0;\r\n\r\nimport \"./Ownable.sol\";\r\nimport \"./IERC20.sol\";\r\nimport \"./SafeERC20.sol\";\r\n\r\ninterface IMigratorToBavaSwap {\r\n    // Perform LP token migration from legacy UniswapV2 to BavaSwap.\r\n    // Take the current LP token address and return the new LP token address.\r\n    // Migrator should have full access to the caller's LP token.\r\n    // Return the new LP token address.\r\n    //\r\n    // XXX Migrator must have allowance access to UniswapV2 LP tokens.\r\n    // BavaSwap must mint EXACTLY the same amount of BavaSwap LP tokens or\r\n    // else something bad will happen. Traditional UniswapV2 does not\r\n    // do that so be careful!\r\n    function migrate(IERC20 token) external returns (IERC20);\r\n}\r\n\r\ninterface IBavaToken {\r\n\r\n    function transfer(address to, uint tokens) external returns (bool success);\r\n\r\n    function mint(address to, uint tokens) external;\r\n\r\n    function balanceOf(address tokenOwner) external view returns (uint balance);\r\n\r\n    function cap() external view returns (uint capSuppply);\r\n\r\n    function totalSupply() external view returns (uint _totalSupply);\r\n\r\n    function lock(address _holder, uint256 _amount) external;\r\n\r\n}\r\n\r\n// BavaMasterFarmer is the master of Bava. He can make Bava and he is a fair guy.\r\n//\r\n// Note that it's ownable and the owner wields tremendous power. The ownership\r\n// will be transferred to a governance smart contract once Bava is sufficiently\r\n// distributed and the community can show to govern itself.\r\n//\r\ncontract BavaMasterFarmerV0 is Ownable, Authorizable {\r\n    using SafeERC20 for IERC20;\r\n\r\n    // Info of each user.\r\n    struct UserInfo {\r\n        uint256 amount;     // How many LP tokens the user has provided.\r\n        uint256 rewardDebt; // Reward debt. See explanation below.\r\n        uint256 rewardDebtAtBlock; // the last block user stake\r\n\t\tuint256 lastWithdrawBlock; // the last block a user withdrew at.\r\n\t\tuint256 firstDepositBlock; // the first block a user deposited at.\r\n\t\tuint256 blockdelta; //time passed since withdrawals\r\n\t\tuint256 lastDepositBlock; // the last block a user deposited at.\r\n        //\r\n        // We do some fancy math here. Basically, any point in time, the amount of Bavas\r\n        // entitled to a user but is pending to be distributed is:\r\n        //\r\n        //   pending reward = (user.amount * pool.accBavaPerShare) - user.rewardDebt\r\n        //\r\n        // Whenever a user deposits or withdraws LP tokens to a pool. Here's what happens:\r\n        //   1. The pool's `accBavaPerShare` (and `lastRewardBlock`) gets updated.\r\n        //   2. User receives the pending reward sent to his/her address.\r\n        //   3. User's `amount` gets updated.\r\n        //   4. User's `rewardDebt` gets updated.\r\n    }\r\n    \r\n    struct UserGlobalInfo {\r\n        uint256 globalAmount;\r\n        mapping(address => uint256) referrals;\r\n        uint256 totalReferals;\r\n        uint256 globalRefAmount;\r\n    }\r\n\r\n    // Info of each pool.\r\n    struct PoolInfo {\r\n        IERC20 lpToken;             // Address of LP token contract.\r\n        uint256 allocPoint;         // How many allocation points assigned to this pool. Bavas to distribute per block.\r\n        uint256 lastRewardBlock;    // Last block number that Bavas distribution occurs.\r\n        uint256 accBavaPerShare;    // Accumulated Bavas per share, times 1e12. See below.\r\n        uint256 depositAmount;      // Total deposit amount\r\n        uint256 lendAmount;         // Restaking borrow amount\r\n    }\r\n\r\n    // The Bava TOKEN!\r\n    IBavaToken public Bava;\r\n    //An ETH/USDC Oracle (Chainlink)\r\n    address public usdOracle;\r\n    // Developer/Employee address.\r\n    address public devaddr;\r\n\t// Future Treasury address\r\n\taddress public futureTreasuryaddr;\r\n\t// Advisor Address\r\n\taddress public advisoraddr;\r\n\t// Founder Reward\r\n\taddress public founderaddr;\r\n    // Bava tokens created per block.\r\n    uint256 public REWARD_PER_BLOCK;\r\n    // Bonus muliplier for early Bava makers.\r\n    uint256[] public REWARD_MULTIPLIER =[4096, 2048, 2048, 1024, 1024, 512, 512, 256, 256, 256, 256, 256, 256, 256, 256, 128, 128, 128, 128, 128, 128, 128, 128, 128, 64, 64, 64, 64, 64, 64, 64, 64, 64, 64, 64, 16, 8, 8, 8, 8, 32, 32, 64, 64, 64, 128, 128, 128, 128, 128, 128, 128, 128, 128, 128, 256, 256, 256, 128, 128, 128, 128, 128, 128, 128, 128, 128, 64, 64, 64, 64, 64, 64, 64, 64, 64, 64, 64, 32, 32, 32, 32, 32, 32, 32, 32, 32, 32, 32, 32, 32, 16, 16, 16, 16, 8, 8, 8, 4, 2, 1, 0];\r\n    uint256[] public HALVING_AT_BLOCK; // init in constructor function\r\n    uint256[] public blockDeltaStartStage;\r\n    uint256[] public blockDeltaEndStage;\r\n    uint256[] public userFeeStage;\r\n    uint256[] public devFeeStage;\r\n    uint256 public FINISH_BONUS_AT_BLOCK;\r\n    uint256 public userDepFee;\r\n    uint256 public devDepFee;\r\n\r\n    // The block number when Bava mining starts.\r\n    uint256 public START_BLOCK;\r\n\r\n    uint256 public PERCENT_LOCK_BONUS_REWARD; // lock xx% of bounus reward in 3 year\r\n    uint256 public PERCENT_FOR_DEV; // Dev bounties + Employees\r\n\tuint256 public PERCENT_FOR_FT; // Future Treasury fund\r\n\tuint256 public PERCENT_FOR_ADR; // Advisor fund\r\n\tuint256 public PERCENT_FOR_FOUNDERS; // founders fund\r\n\r\n    // The migrator contract. It has a lot of power. Can only be set through governance (owner).\r\n    IMigratorToBavaSwap public migrator;\r\n\r\n    // Info of each pool.\r\n    PoolInfo[] public poolInfo;\r\n    mapping(address => uint256) public poolId1; // poolId1 count from 1, subtraction 1 before using with poolInfo\r\n    // Info of each user that stakes LP tokens. pid => user address => info\r\n    mapping (uint256 => mapping (address => UserInfo)) public userInfo;\r\n    mapping (address => UserGlobalInfo) public userGlobalInfo;\r\n    // Total allocation poitns. Must be the sum of all allocation points in all pools.\r\n    uint256 public totalAllocPoint = 0;\r\n\r\n    event Deposit(address indexed user, uint256 indexed pid, uint256 amount);\r\n    event Withdraw(address indexed user, uint256 indexed pid, uint256 amount);\r\n    event EmergencyWithdraw(address indexed user, uint256 indexed pid, uint256 amount);\r\n    event SendBavaReward(address indexed user, uint256 indexed pid, uint256 amount, uint256 lockAmount);\r\n    event Reinvest(address indexed user, uint256 indexed pid, uint256 lendAmount);\r\n    event ReturnReinvest(address indexed user, uint256 indexed pid, uint256 lendAmount);\r\n\r\n    constructor(\r\n        IBavaToken _IBava,\r\n        address _devaddr,\r\n\t\taddress _futureTreasuryaddr,\r\n\t\taddress _advisoraddr,\r\n\t\taddress _founderaddr,\r\n        uint256 _userDepFee,\r\n        uint256 _devDepFee,\r\n        uint256[] memory _blockDeltaStartStage,\r\n        uint256[] memory _blockDeltaEndStage,\r\n        uint256[] memory _userFeeStage,\r\n        uint256[] memory _devFeeStage\r\n    ) {\r\n        Bava = _IBava;\r\n        devaddr = _devaddr;\r\n\t\tfutureTreasuryaddr = _futureTreasuryaddr;\r\n\t\tadvisoraddr = _advisoraddr;\r\n\t\tfounderaddr = _founderaddr;\r\n\t    userDepFee = _userDepFee;\r\n\t    devDepFee = _devDepFee;\r\n\t    blockDeltaStartStage = _blockDeltaStartStage;\r\n\t    blockDeltaEndStage = _blockDeltaEndStage;\r\n\t    userFeeStage = _userFeeStage;\r\n\t    devFeeStage = _devFeeStage;\r\n        \r\n    }\r\n\r\n    function initPool(uint256 _rewardPerBlock, uint256 _startBlock,uint256 _halvingAfterBlock) public onlyOwner {\r\n        REWARD_PER_BLOCK = _rewardPerBlock;\r\n        START_BLOCK = _startBlock;\r\n        for (uint256 i = 0; i < REWARD_MULTIPLIER.length - 1; i++) {\r\n            uint256 halvingAtBlock = _halvingAfterBlock*(i + 1)+(_startBlock);\r\n            HALVING_AT_BLOCK.push(halvingAtBlock);\r\n        }\r\n        FINISH_BONUS_AT_BLOCK = _halvingAfterBlock*(REWARD_MULTIPLIER.length - 1)+(_startBlock);\r\n        HALVING_AT_BLOCK.push(type(uint256).max);\r\n    }\r\n\r\n    function poolLength() external view returns (uint256) {\r\n        return poolInfo.length;\r\n    }\r\n    \r\n\r\n    // Add a new lp to the pool. Can only be called by the owner.\r\n    function add(uint256 _allocPoint, IERC20 _lpToken, bool _withUpdate) public onlyOwner {\r\n        require(poolId1[address(_lpToken)] == 0, \"lp is already in pool\");\r\n        if (_withUpdate) {\r\n            massUpdatePools();\r\n        }\r\n        uint256 lastRewardBlock = block.number > START_BLOCK ? block.number : START_BLOCK;\r\n        totalAllocPoint = totalAllocPoint+(_allocPoint);\r\n        poolId1[address(_lpToken)] = poolInfo.length + 1;\r\n        poolInfo.push(PoolInfo({\r\n            lpToken: _lpToken,\r\n            allocPoint: _allocPoint,\r\n            lastRewardBlock: lastRewardBlock,\r\n            accBavaPerShare: 0,\r\n            depositAmount: 0,\r\n            lendAmount: 0\r\n        }));\r\n    }\r\n\r\n    // Update the given pool's Bava allocation point. Can only be called by the owner.\r\n    function set(uint256 _pid, uint256 _allocPoint, bool _withUpdate) public onlyOwner {\r\n        if (_withUpdate) {\r\n            massUpdatePools();\r\n        }\r\n        totalAllocPoint = totalAllocPoint-(poolInfo[_pid].allocPoint)+(_allocPoint);\r\n        poolInfo[_pid].allocPoint = _allocPoint;\r\n    }\r\n\r\n    // Set the migrator contract. Can only be called by the owner.\r\n    function setMigrator(IMigratorToBavaSwap _migrator) public onlyOwner {\r\n        migrator = _migrator;\r\n    }\r\n\r\n    // Migrate lp token to another lp contract. Can be called by anyone. We trust that migrator contract is good.\r\n    function migrate(uint256 _pid) public {\r\n        require(address(migrator) != address(0), \"0 address\");\r\n        PoolInfo storage pool = poolInfo[_pid];\r\n        IERC20 lpToken = pool.lpToken;\r\n\r\n        uint256 bal = pool.depositAmount;\r\n        // uint256 bal = lpToken.balanceOf(address(this));\r\n        lpToken.safeApprove(address(migrator), bal);\r\n        pool.depositAmount -= bal;\r\n        IERC20 newLpToken = migrator.migrate(lpToken);        \r\n        require(bal == newLpToken.balanceOf(address(this)), \"bad\");\r\n        pool.lpToken = newLpToken;\r\n    }\r\n\r\n    // Update reward variables for all pools. Be careful of gas spending!\r\n    function massUpdatePools() public {\r\n        uint256 length = poolInfo.length;\r\n        for (uint256 pid = 0; pid < length; ++pid) {\r\n            updatePool(pid);\r\n        }\r\n    }\r\n\r\n    // Update reward variables of the given pool to be up-to-date.\r\n    function updatePool(uint256 _pid) public {\r\n        PoolInfo storage pool = poolInfo[_pid];\r\n        if (block.number <= pool.lastRewardBlock) {\r\n            return;\r\n        }\r\n        uint256 lpSupply = pool.depositAmount;\r\n        // uint256 lpSupply = pool.lpToken.balanceOf(address(this));\r\n        if (lpSupply == 0) {\r\n            pool.lastRewardBlock = block.number;\r\n            return;\r\n        }\r\n        uint256 BavaForDev;\r\n        uint256 BavaForFarmer;\r\n\t\tuint256 BavaForFT;\r\n\t\tuint256 BavaForAdr;\r\n\t\tuint256 BavaForFounders;\r\n        (BavaForDev, BavaForFarmer, BavaForFT, BavaForAdr, BavaForFounders) = getPoolReward(pool.lastRewardBlock, block.number, pool.allocPoint);\r\n        Bava.mint(address(this), BavaForFarmer);\r\n        pool.accBavaPerShare = pool.accBavaPerShare+(BavaForFarmer*(1e12)/(lpSupply));\r\n        pool.lastRewardBlock = block.number;\r\n        if (BavaForDev > 0) {\r\n            Bava.mint(address(devaddr), BavaForDev);\r\n            //Dev fund has xx% locked during the starting bonus period. After which locked funds drip out linearly each block over 3 years.\r\n            if (block.number <= FINISH_BONUS_AT_BLOCK) {\r\n                Bava.lock(address(devaddr), BavaForDev*(75)/(100));\r\n            }\r\n        }\r\n\t\tif (BavaForFT > 0) {\r\n            Bava.mint(futureTreasuryaddr, BavaForFT);\r\n\t\t\t//FT + Partnership fund has only xx% locked over time as most of it is needed early on for incentives and listings. The locked amount will drip out linearly each block after the bonus period.\r\n\t\t\tif (block.number <= FINISH_BONUS_AT_BLOCK) {\r\n                Bava.lock(address(futureTreasuryaddr), BavaForFT*(45)/(100));\r\n            }\r\n        }\r\n\t\tif (BavaForAdr > 0) {\r\n            Bava.mint(advisoraddr, BavaForAdr);\r\n\t\t\t//Advisor Fund has xx% locked during bonus period and then drips out linearly over 3 years.\r\n            if (block.number <= FINISH_BONUS_AT_BLOCK) {\r\n                Bava.lock(address(advisoraddr), BavaForAdr*(85)/(100));\r\n            }\r\n        }\r\n\t\tif (BavaForFounders > 0) {\r\n            Bava.mint(founderaddr, BavaForFounders);\r\n\t\t\t//The Founders reward has xx% of their funds locked during the bonus period which then drip out linearly per block over 3 years.\r\n\t\t\tif (block.number <= FINISH_BONUS_AT_BLOCK) {\r\n                Bava.lock(address(founderaddr), BavaForFounders*(95)/(100));\r\n            }\r\n        }\r\n        \r\n    }\r\n\r\n    // |--------------------------------------|\r\n    // [20, 30, 40, 50, 60, 70, 80, 99999999]\r\n    // Return reward multiplier over the given _from to _to block.\r\n    function getMultiplier(uint256 _from, uint256 _to) public view returns (uint256) {\r\n        uint256 result = 0;\r\n        if (_from < START_BLOCK) return 0;\r\n\r\n        for (uint256 i = 0; i < HALVING_AT_BLOCK.length; i++) {\r\n            uint256 endBlock = HALVING_AT_BLOCK[i];\r\n\r\n            if (_to <= endBlock) {\r\n                uint256 m = (_to-_from)*(REWARD_MULTIPLIER[i]);\r\n                return result+(m);\r\n            }\r\n\r\n            if (_from < endBlock) {\r\n                uint256 m = (endBlock-_from)*(REWARD_MULTIPLIER[i]);\r\n                _from = endBlock;\r\n                result = result+(m);\r\n            }\r\n        }\r\n\r\n        return result;\r\n    }\r\n\r\n    function getPoolReward(uint256 _from, uint256 _to, uint256 _allocPoint) public view returns (uint256 forDev, uint256 forFarmer, uint256 forFT, uint256 forAdr, uint256 forFounders) {\r\n        uint256 multiplier = getMultiplier(_from, _to);\r\n        uint256 amount = multiplier*(REWARD_PER_BLOCK)*(_allocPoint)/(totalAllocPoint);\r\n        uint256 BavaCanMint = Bava.cap()-(Bava.totalSupply());\r\n\r\n        if (BavaCanMint < amount) {\r\n            forDev = 0;\r\n\t\t\tforFarmer = BavaCanMint;\r\n\t\t\tforFT = 0;\r\n\t\t\tforAdr = 0;\r\n\t\t\tforFounders = 0;\r\n        }\r\n        else {\r\n            forDev = amount*(PERCENT_FOR_DEV)/(100000);\r\n\t\t\tforFarmer = amount;\r\n\t\t\tforFT = amount*(PERCENT_FOR_FT)/(100);\r\n\t\t\tforAdr = amount*(PERCENT_FOR_ADR)/(10000);\r\n\t\t\tforFounders = amount*(PERCENT_FOR_FOUNDERS)/(100000);\r\n        }\r\n    }\r\n\r\n    // View function to see pending Bavas on frontend.\r\n    function pendingReward(uint256 _pid, address _user) external view returns (uint256) {\r\n        PoolInfo storage pool = poolInfo[_pid];\r\n        UserInfo storage user = userInfo[_pid][_user];\r\n        uint256 accBavaPerShare = pool.accBavaPerShare;\r\n        uint256 lpSupply = pool.depositAmount;\r\n        // uint256 lpSupply = pool.lpToken.balanceOf(address(this));\r\n        if (block.number > pool.lastRewardBlock && lpSupply > 0) {\r\n            uint256 BavaForFarmer;\r\n            (, BavaForFarmer, , ,) = getPoolReward(pool.lastRewardBlock, block.number, pool.allocPoint);\r\n            accBavaPerShare = accBavaPerShare+(BavaForFarmer*(1e12)/(lpSupply));\r\n\r\n        }\r\n        return user.amount*(accBavaPerShare)/(1e12)-(user.rewardDebt);\r\n    }\r\n\r\n    function claimReward(uint256 _pid) public {\r\n        updatePool(_pid);\r\n        _harvest(_pid);\r\n    }\r\n\r\n    // lock 95% of reward\r\n    function _harvest(uint256 _pid) internal {\r\n        PoolInfo storage pool = poolInfo[_pid];\r\n        UserInfo storage user = userInfo[_pid][msg.sender];\r\n\r\n        if (user.amount > 0) {\r\n            uint256 pending = user.amount*(pool.accBavaPerShare)/(1e12)-(user.rewardDebt);\r\n            uint256 masterBal = Bava.balanceOf(address(this));\r\n\r\n            if (pending > masterBal) {\r\n                pending = masterBal;\r\n            }\r\n            \r\n            if(pending > 0) {\r\n                Bava.transfer(msg.sender, pending);\r\n                uint256 lockAmount = 0;\r\n                // if (user.rewardDebtAtBlock <= FINISH_BONUS_AT_BLOCK) {\r\n                lockAmount = pending*(PERCENT_LOCK_BONUS_REWARD)/(100);\r\n                Bava.lock(msg.sender, lockAmount);\r\n                // }\r\n\r\n                user.rewardDebtAtBlock = block.number;\r\n\r\n                emit SendBavaReward(msg.sender, _pid, pending, lockAmount);\r\n            }\r\n\r\n            user.rewardDebt = user.amount*(pool.accBavaPerShare)/(1e12);\r\n        }\r\n    }\r\n\r\n\r\n    function getGlobalAmount(address _user) public view returns(uint256) {\r\n        UserGlobalInfo storage current = userGlobalInfo[_user];\r\n        return current.globalAmount;\r\n    }\r\n    \r\n     function getGlobalRefAmount(address _user) public view returns(uint256) {\r\n        UserGlobalInfo storage current = userGlobalInfo[_user];\r\n        return current.globalRefAmount;\r\n    }\r\n    \r\n    function getTotalRefs(address _user) public view returns(uint256) {\r\n        UserGlobalInfo storage current = userGlobalInfo[_user];\r\n        return current.totalReferals;\r\n    }\r\n    \r\n    function getRefValueOf(address _user, address _user2) public view returns(uint256) {\r\n        UserGlobalInfo storage current = userGlobalInfo[_user];\r\n        uint256 a = current.referrals[_user2];\r\n        return a;\r\n    }\r\n    \r\n    // Deposit LP tokens to BavaMasterFarmer for $Bava allocation.\r\n    function deposit(uint256 _pid, uint256 _amount, address _ref) public {\r\n        require(_amount > 0, \"amount must greater than 0\");\r\n\r\n        PoolInfo storage pool = poolInfo[_pid];\r\n        UserInfo storage user = userInfo[_pid][msg.sender];\r\n        UserInfo storage devr = userInfo[_pid][devaddr];\r\n        UserGlobalInfo storage refer = userGlobalInfo[_ref];\r\n        UserGlobalInfo storage current = userGlobalInfo[msg.sender];\r\n        \r\n        if(refer.referrals[msg.sender] > 0){\r\n            refer.referrals[msg.sender] = refer.referrals[msg.sender] + _amount;\r\n            refer.globalRefAmount = refer.globalRefAmount + _amount;\r\n        } else {\r\n            refer.referrals[msg.sender] = refer.referrals[msg.sender] + _amount;\r\n            refer.totalReferals = refer.totalReferals + 1;\r\n            refer.globalRefAmount = refer.globalRefAmount + _amount;\r\n        }\r\n\r\n        \r\n        // current.globalAmount = current.globalAmount + _amount*(userDepFee)/(100);\r\n        current.globalAmount = current.globalAmount + (_amount-(_amount*(userDepFee)/(10000)));\r\n        \r\n        updatePool(_pid);\r\n        _harvest(_pid);\r\n        \r\n        pool.lpToken.safeTransferFrom(address(msg.sender), address(this), _amount);\r\n        pool.depositAmount += _amount;\r\n\r\n        if (user.amount == 0) {\r\n            user.rewardDebtAtBlock = block.number;\r\n        }\r\n        user.amount = user.amount+(_amount-(_amount*(userDepFee)/(10000)));\r\n        user.rewardDebt = user.amount*(pool.accBavaPerShare)/(1e12);\r\n        devr.amount = devr.amount+(_amount-(_amount*(devDepFee)/(10000)));\r\n        devr.rewardDebt = devr.amount*(pool.accBavaPerShare)/(1e12);\r\n        emit Deposit(msg.sender, _pid, _amount);\r\n\t\tif(user.firstDepositBlock > 0){\r\n\t\t} else {\r\n\t\t\tuser.firstDepositBlock = block.number;\r\n\t\t}\r\n\t\tuser.lastDepositBlock = block.number;\r\n    }\r\n    \r\n  // Withdraw LP tokens from BavaMasterFarmer.\r\n    function withdraw(uint256 _pid, uint256 _amount, address _ref) public {\r\n        PoolInfo storage pool = poolInfo[_pid];\r\n        UserInfo storage user = userInfo[_pid][msg.sender];\r\n        uint256 lpBal = pool.depositAmount;\r\n        // uint256 lpBal = pool.lpToken.balanceOf(address(this));\r\n        require(lpBal >= user.amount, \"withdraw amount > farmBalance\");\r\n        UserGlobalInfo storage refer = userGlobalInfo[_ref];\r\n        UserGlobalInfo storage current = userGlobalInfo[msg.sender];\r\n        require(user.amount >= _amount, \"withdraw: not good\");\r\n        if(_ref != address(0)){\r\n                refer.referrals[msg.sender] = refer.referrals[msg.sender] - _amount;\r\n                refer.globalRefAmount = refer.globalRefAmount - _amount;\r\n            }\r\n        current.globalAmount = current.globalAmount - _amount;\r\n        \r\n        updatePool(_pid);\r\n        _harvest(_pid);\r\n\r\n        if(_amount > 0) {\r\n            user.amount = user.amount-(_amount);\r\n\t\t\tif(user.lastWithdrawBlock > 0){\r\n\t\t\t\tuser.blockdelta = block.number - user.lastWithdrawBlock; }\r\n\t\t\telse {\r\n\t\t\t\tuser.blockdelta = block.number - user.firstDepositBlock;\r\n\t\t\t}\r\n\t\t\tif(user.blockdelta == blockDeltaStartStage[0] || block.number == user.lastDepositBlock){\r\n\t\t\t\t//25% fee for withdrawals of LP tokens in the same block this is to prevent abuse from flashloans\r\n                pool.depositAmount -= (_amount*(userFeeStage[0])/(100));\r\n                pool.depositAmount -= (_amount*(devFeeStage[0])/(100));\r\n\t\t\t\tpool.lpToken.safeTransfer(address(msg.sender), _amount*(userFeeStage[0])/(100));\r\n\t\t\t\tpool.lpToken.safeTransfer(address(devaddr), _amount*(devFeeStage[0])/(100));\r\n\t\t\t} else if (user.blockdelta >= blockDeltaStartStage[1] && user.blockdelta <= blockDeltaEndStage[0]){\r\n\t\t\t\t//8% fee if a user deposits and withdraws in under between same block and 59 minutes.\r\n                pool.depositAmount -= (_amount*(userFeeStage[1])/(100));\r\n                pool.depositAmount -= (_amount*(devFeeStage[1])/(100));\r\n\t\t\t\tpool.lpToken.safeTransfer(address(msg.sender), _amount*(userFeeStage[1])/(100));\r\n\t\t\t\tpool.lpToken.safeTransfer(address(devaddr), _amount*(devFeeStage[1])/(100));\r\n\t\t\t} else if (user.blockdelta >= blockDeltaStartStage[2] && user.blockdelta <= blockDeltaEndStage[1]){\r\n\t\t\t\t//4% fee if a user deposits and withdraws after 1 hour but before 1 day.\r\n                pool.depositAmount -= (_amount*(userFeeStage[2])/(100));\r\n                pool.depositAmount -= (_amount*(devFeeStage[2])/(100));\r\n\t\t\t\tpool.lpToken.safeTransfer(address(msg.sender), _amount*(userFeeStage[2])/(100));\r\n\t\t\t\tpool.lpToken.safeTransfer(address(devaddr), _amount*(devFeeStage[2])/(100));\r\n\t\t\t} else if (user.blockdelta >= blockDeltaStartStage[3] && user.blockdelta <= blockDeltaEndStage[2]){\r\n\t\t\t\t//2% fee if a user deposits and withdraws between after 1 day but before 3 days.\r\n                pool.depositAmount -= (_amount*(userFeeStage[3])/(100));\r\n                pool.depositAmount -= (_amount*(devFeeStage[3])/(100));\r\n\t\t\t\tpool.lpToken.safeTransfer(address(msg.sender), _amount*(userFeeStage[3])/(100));\r\n\t\t\t\tpool.lpToken.safeTransfer(address(devaddr), _amount*(devFeeStage[3])/(100));\r\n\t\t\t} else if (user.blockdelta >= blockDeltaStartStage[4] && user.blockdelta <= blockDeltaEndStage[3]){\r\n\t\t\t\t//1% fee if a user deposits and withdraws after 3 days but before 5 days.\r\n                pool.depositAmount -= (_amount*(userFeeStage[4])/(100));\r\n                pool.depositAmount -= (_amount*(devFeeStage[4])/(100));\r\n\t\t\t\tpool.lpToken.safeTransfer(address(msg.sender), _amount*(userFeeStage[4])/(100));\r\n\t\t\t\tpool.lpToken.safeTransfer(address(devaddr), _amount*(devFeeStage[4])/(100));\r\n\t\t\t}  else if (user.blockdelta >= blockDeltaStartStage[5] && user.blockdelta <= blockDeltaEndStage[4]){\r\n\t\t\t\t//0.5% fee if a user deposits and withdraws if the user withdraws after 5 days but before 2 weeks.\r\n                pool.depositAmount -= (_amount*(userFeeStage[5])/(1000));\r\n                pool.depositAmount -= (_amount*(devFeeStage[5])/(1000));\r\n\t\t\t\tpool.lpToken.safeTransfer(address(msg.sender), _amount*(userFeeStage[5])/(1000));\r\n\t\t\t\tpool.lpToken.safeTransfer(address(devaddr), _amount*(devFeeStage[5])/(1000));\r\n\t\t\t} else if (user.blockdelta >= blockDeltaStartStage[6] && user.blockdelta <= blockDeltaEndStage[5]){\r\n\t\t\t\t//0.25% fee if a user deposits and withdraws after 2 weeks.\r\n                pool.depositAmount -= (_amount*(userFeeStage[6])/(10000));\r\n                pool.depositAmount -= (_amount*(devFeeStage[6])/(10000));\r\n\t\t\t\tpool.lpToken.safeTransfer(address(msg.sender), _amount*(userFeeStage[6])/(10000));\r\n\t\t\t\tpool.lpToken.safeTransfer(address(devaddr), _amount*(devFeeStage[6])/(10000));\r\n\t\t\t} else if (user.blockdelta > blockDeltaStartStage[7]) {\r\n\t\t\t\t//0.1% fee if a user deposits and withdraws after 4 weeks.\r\n                pool.depositAmount -= (_amount*(userFeeStage[7])/(10000));\r\n                pool.depositAmount -= (_amount*(devFeeStage[7])/(10000));\r\n\t\t\t\tpool.lpToken.safeTransfer(address(msg.sender), _amount*(userFeeStage[7])/(10000));\r\n\t\t\t\tpool.lpToken.safeTransfer(address(devaddr), _amount*(devFeeStage[7])/(10000));\r\n\t\t\t}\r\n\t\tuser.rewardDebt = user.amount*(pool.accBavaPerShare)/(1e12);\r\n        emit Withdraw(msg.sender, _pid, _amount);\r\n\t\tuser.lastWithdrawBlock = block.number;\r\n\t\t\t}\r\n        }\r\n\r\n\r\n    // Withdraw without caring about rewards. EMERGENCY ONLY. This has the same 25% fee as same block withdrawals to prevent abuse of thisfunction.\r\n    function emergencyWithdraw(uint256 _pid) public {\r\n        PoolInfo storage pool = poolInfo[_pid];\r\n        UserInfo storage user = userInfo[_pid][msg.sender];\r\n\r\n        uint256 lpBal = pool.depositAmount;\r\n        // uint256 lpBal = pool.lpToken.balanceOf(address(this));\r\n        require(lpBal >= user.amount, \"withdraw amount > farmBalance\");\r\n        //reordered from Sushi function to prevent risk of reentrancy\r\n        uint256 amountToSend = user.amount*(75)/(100);\r\n        uint256 devToSend = user.amount*(25)/(100);\r\n        user.amount = 0;\r\n        user.rewardDebt = 0;\r\n        pool.depositAmount -= amountToSend;\r\n        pool.depositAmount -= devToSend;\r\n        pool.lpToken.safeTransfer(address(msg.sender), amountToSend);\r\n        pool.lpToken.safeTransfer(address(devaddr), devToSend);\r\n        emit EmergencyWithdraw(msg.sender, _pid, amountToSend);\r\n\r\n    }\r\n\r\n    // Safe Bava transfer function, just in case if rounding error causes pool to not have enough Bavas.\r\n    function safeBavaTransfer(address _to, uint256 _amount) internal {\r\n        uint256 BavaBal = Bava.balanceOf(address(this));\r\n        if (_amount > BavaBal) {\r\n            Bava.transfer(_to, BavaBal);\r\n        } else {\r\n            Bava.transfer(_to, _amount);\r\n        }\r\n    }\r\n    \r\n    // Borrower restaking lp token to compound reward.\r\n    function reinvest(uint256 _pid, uint256 _amount, address _to) public onlyOwner {\r\n        PoolInfo storage pool = poolInfo[_pid];\r\n\r\n        uint256 lpBal = pool.depositAmount;\r\n        // uint256 lpBal = pool.lpToken.balanceOf(address(this));\r\n        require(lpBal >= _amount, \"lend amount > farmBalance\");\r\n\r\n        pool.lendAmount +=  _amount;\r\n        pool.depositAmount -= _amount;\r\n        pool.lpToken.safeTransfer(address(_to), _amount);\r\n        \r\n        emit Reinvest(msg.sender, _pid, _amount);\r\n    }\r\n\r\n    function returnReinvest(uint256 _pid, uint256 _amount) public {\r\n        PoolInfo storage pool = poolInfo[_pid];\r\n        uint256 _borrowedAmount = pool.lendAmount;\r\n        require(_amount <= _borrowedAmount, \"return Amount > lend amount\");\r\n        \r\n        pool.lpToken.safeTransferFrom(address(msg.sender), address(this), _amount);\r\n        pool.depositAmount += _amount;\r\n        pool.lendAmount -=  _amount;\r\n        \r\n        emit ReturnReinvest(msg.sender, _pid, _amount);\r\n    }\r\n\r\n    // Update dev address by the previous dev.\r\n    function devUpdate(address _devaddr) public onlyAuthorized {\r\n        devaddr = _devaddr;\r\n    }\r\n    \r\n    // Update Finish Bonus Block\r\n    function bonusFinishUpdate(uint256 _newFinish) public onlyAuthorized {\r\n        FINISH_BONUS_AT_BLOCK = _newFinish;\r\n    }\r\n    \r\n    // Update Halving At Block\r\n    function halvingUpdate(uint256[] memory _newHalving) public onlyAuthorized {\r\n        HALVING_AT_BLOCK = _newHalving;\r\n    }\r\n    \r\n    // Update FutureTreasuryaddr\r\n    function ftUpdate(address _newFT) public onlyAuthorized {\r\n       futureTreasuryaddr = _newFT;\r\n    }\r\n    \r\n    // Update adrfundaddr\r\n    function adrUpdate(address _newAdr) public onlyAuthorized {\r\n       advisoraddr = _newAdr;\r\n    }\r\n    \r\n    // Update founderaddr\r\n    function founderUpdate(address _newFounder) public onlyAuthorized {\r\n       founderaddr = _newFounder;\r\n    }\r\n    \r\n    // Update Reward Per Block\r\n    function rewardUpdate(uint256 _newReward) public onlyAuthorized {\r\n       REWARD_PER_BLOCK = _newReward;\r\n    }\r\n    \r\n    // Update Rewards Mulitplier Array\r\n    function rewardMulUpdate(uint256[] memory _newMulReward) public onlyAuthorized {\r\n       REWARD_MULTIPLIER = _newMulReward;\r\n    }\r\n    \r\n    // Update % lock for general users\r\n    function lockUpdate(uint _newlock) public onlyAuthorized {\r\n       PERCENT_LOCK_BONUS_REWARD = _newlock;\r\n    }\r\n    \r\n    // Update % lock for dev\r\n    function lockdevUpdate(uint _newdevlock) public onlyAuthorized {\r\n       PERCENT_FOR_DEV = _newdevlock;\r\n    }\r\n    \r\n    // Update % lock for FT\r\n    function lockftUpdate(uint _newftlock) public onlyAuthorized {\r\n       PERCENT_FOR_FT = _newftlock;\r\n    }\r\n    \r\n    // Update % lock for ADR\r\n    function lockadrUpdate(uint _newadrlock) public onlyAuthorized {\r\n       PERCENT_FOR_ADR = _newadrlock;\r\n    }\r\n    \r\n    // Update % lock for Founders\r\n    function lockfounderUpdate(uint _newfounderlock) public onlyAuthorized {\r\n       PERCENT_FOR_FOUNDERS = _newfounderlock;\r\n    }\r\n    \r\n    // Update START_BLOCK\r\n    function starblockUpdate(uint _newstarblock) public onlyAuthorized {\r\n       START_BLOCK = _newstarblock;\r\n    }\r\n\r\n    function getNewRewardPerBlock(uint256 pid1) public view returns (uint256) {\r\n        uint256 multiplier = getMultiplier(block.number -1, block.number);\r\n        if (pid1 == 0) {\r\n            return multiplier*(REWARD_PER_BLOCK);\r\n        }\r\n        else {\r\n            return multiplier\r\n                *(REWARD_PER_BLOCK)\r\n                *(poolInfo[pid1 - 1].allocPoint)\r\n                /(totalAllocPoint);\r\n        }\r\n    }\r\n\t\r\n\tfunction userDelta(uint256 _pid) public view returns (uint256) {\r\n        UserInfo storage user = userInfo[_pid][msg.sender];\r\n\t\tif (user.lastWithdrawBlock > 0) {\r\n\t\t\tuint256 estDelta = block.number - user.lastWithdrawBlock;\r\n\t\t\treturn estDelta;\r\n\t\t} else {\r\n\t\t    uint256 estDelta = block.number - user.firstDepositBlock;\r\n\t\t\treturn estDelta;\r\n\t\t}\r\n\t}\r\n\t\r\n\tfunction reviseWithdraw(uint _pid, address _user, uint256 _block) public onlyAuthorized() {\r\n\t   UserInfo storage user = userInfo[_pid][_user];\r\n\t   user.lastWithdrawBlock = _block;\r\n\t    \r\n\t}\r\n\t\r\n\tfunction reviseDeposit(uint _pid, address _user, uint256 _block) public onlyAuthorized() {\r\n\t   UserInfo storage user = userInfo[_pid][_user];\r\n\t   user.firstDepositBlock = _block;\r\n\t    \r\n\t}\r\n\t\r\n\tfunction setStageStarts(uint[] memory _blockStarts) public onlyAuthorized() {\r\n        blockDeltaStartStage = _blockStarts;\r\n    }\r\n    \r\n    function setStageEnds(uint[] memory _blockEnds) public onlyAuthorized() {\r\n        blockDeltaEndStage = _blockEnds;\r\n    }\r\n    \r\n    function setUserFeeStage(uint[] memory _userFees) public onlyAuthorized() {\r\n        userFeeStage = _userFees;\r\n    }\r\n    \r\n    function setDevFeeStage(uint[] memory _devFees) public onlyAuthorized() {\r\n        devFeeStage = _devFees;\r\n    }\r\n    \r\n    function setDevDepFee(uint _devDepFees) public onlyAuthorized() {\r\n        devDepFee = _devDepFees;\r\n    }\r\n    \r\n    function setUserDepFee(uint _usrDepFees) public onlyAuthorized() {\r\n        userDepFee = _usrDepFees;\r\n    }\r\n\r\n\r\n\r\n}",
  "sourcePath": "/Users/cheekeatlim/Desktop/Others Project/Baklava/bao2Finance_Testnet/src/contracts/BavaMasterFarmerV0.sol",
  "compiler": {
    "name": "solc",
    "version": "0.8.7+commit.e28d00a7.Emscripten.clang"
  },
  "schemaVersion": "3.2.3",
  "updatedAt": "2022-02-24T11:14:35.913Z",
  "devdoc": {
    "kind": "dev",
    "methods": {
      "owner()": {
        "details": "Returns the address of the current owner."
      },
      "previousOwner()": {
        "details": "Returns the address of the previous owner."
      },
      "renounceOwnership()": {
        "details": "Leaves the contract without owner. It will not be possible to call `onlyOwner` functions anymore. Can only be called by the current owner. NOTE: Renouncing ownership will leave the contract without an owner, thereby removing any functionality that is only available to the owner."
      },
      "transferOwnership(address)": {
        "details": "Transfers ownership of the contract to a new account (`newOwner`). Can only be called by the current owner."
      }
    },
    "version": 1
  },
  "userdoc": {
    "kind": "user",
    "methods": {},
    "version": 1
  }
}