{
  "contractName": "BavaToken",
  "abi": [
    {
      "inputs": [
        {
          "internalType": "uint256",
          "name": "_lockFromBlock",
          "type": "uint256"
        },
        {
          "internalType": "uint256",
          "name": "_lockToBlock",
          "type": "uint256"
        },
        {
          "internalType": "address",
          "name": "_disPool",
          "type": "address"
        },
        {
          "internalType": "uint256",
          "name": "_burnPercent",
          "type": "uint256"
        },
        {
          "internalType": "uint256",
          "name": "_disPercent",
          "type": "uint256"
        },
        {
          "internalType": "uint256",
          "name": "_taxStartDate",
          "type": "uint256"
        }
      ],
      "stateMutability": "nonpayable",
      "type": "constructor"
    },
    {
      "anonymous": false,
      "inputs": [
        {
          "indexed": true,
          "internalType": "address",
          "name": "owner",
          "type": "address"
        },
        {
          "indexed": true,
          "internalType": "address",
          "name": "spender",
          "type": "address"
        },
        {
          "indexed": false,
          "internalType": "uint256",
          "name": "value",
          "type": "uint256"
        }
      ],
      "name": "Approval",
      "type": "event"
    },
    {
      "anonymous": false,
      "inputs": [
        {
          "indexed": true,
          "internalType": "address",
          "name": "_from",
          "type": "address"
        },
        {
          "indexed": false,
          "internalType": "uint256",
          "name": "_value",
          "type": "uint256"
        }
      ],
      "name": "Burn",
      "type": "event"
    },
    {
      "anonymous": false,
      "inputs": [
        {
          "indexed": true,
          "internalType": "address",
          "name": "delegator",
          "type": "address"
        },
        {
          "indexed": true,
          "internalType": "address",
          "name": "fromDelegate",
          "type": "address"
        },
        {
          "indexed": true,
          "internalType": "address",
          "name": "toDelegate",
          "type": "address"
        }
      ],
      "name": "DelegateChanged",
      "type": "event"
    },
    {
      "anonymous": false,
      "inputs": [
        {
          "indexed": true,
          "internalType": "address",
          "name": "delegate",
          "type": "address"
        },
        {
          "indexed": false,
          "internalType": "uint256",
          "name": "previousBalance",
          "type": "uint256"
        },
        {
          "indexed": false,
          "internalType": "uint256",
          "name": "newBalance",
          "type": "uint256"
        }
      ],
      "name": "DelegateVotesChanged",
      "type": "event"
    },
    {
      "anonymous": false,
      "inputs": [
        {
          "indexed": true,
          "internalType": "address",
          "name": "to",
          "type": "address"
        },
        {
          "indexed": false,
          "internalType": "uint256",
          "name": "value",
          "type": "uint256"
        }
      ],
      "name": "Lock",
      "type": "event"
    },
    {
      "anonymous": false,
      "inputs": [
        {
          "indexed": true,
          "internalType": "address",
          "name": "previousOwner",
          "type": "address"
        },
        {
          "indexed": true,
          "internalType": "address",
          "name": "newOwner",
          "type": "address"
        }
      ],
      "name": "OwnershipTransferred",
      "type": "event"
    },
    {
      "anonymous": false,
      "inputs": [
        {
          "indexed": true,
          "internalType": "address",
          "name": "from",
          "type": "address"
        },
        {
          "indexed": true,
          "internalType": "address",
          "name": "to",
          "type": "address"
        },
        {
          "indexed": false,
          "internalType": "uint256",
          "name": "value",
          "type": "uint256"
        }
      ],
      "name": "Transfer",
      "type": "event"
    },
    {
      "inputs": [],
      "name": "DELEGATION_TYPEHASH",
      "outputs": [
        {
          "internalType": "bytes32",
          "name": "",
          "type": "bytes32"
        }
      ],
      "stateMutability": "view",
      "type": "function"
    },
    {
      "inputs": [],
      "name": "DOMAIN_TYPEHASH",
      "outputs": [
        {
          "internalType": "bytes32",
          "name": "",
          "type": "bytes32"
        }
      ],
      "stateMutability": "view",
      "type": "function"
    },
    {
      "inputs": [
        {
          "internalType": "address",
          "name": "_toAdd",
          "type": "address"
        }
      ],
      "name": "addAuthorized",
      "outputs": [],
      "stateMutability": "nonpayable",
      "type": "function"
    },
    {
      "inputs": [
        {
          "internalType": "address",
          "name": "owner",
          "type": "address"
        },
        {
          "internalType": "address",
          "name": "spender",
          "type": "address"
        }
      ],
      "name": "allowance",
      "outputs": [
        {
          "internalType": "uint256",
          "name": "",
          "type": "uint256"
        }
      ],
      "stateMutability": "view",
      "type": "function"
    },
    {
      "inputs": [
        {
          "internalType": "address",
          "name": "spender",
          "type": "address"
        },
        {
          "internalType": "uint256",
          "name": "amount",
          "type": "uint256"
        }
      ],
      "name": "approve",
      "outputs": [
        {
          "internalType": "bool",
          "name": "",
          "type": "bool"
        }
      ],
      "stateMutability": "nonpayable",
      "type": "function"
    },
    {
      "inputs": [
        {
          "internalType": "address",
          "name": "",
          "type": "address"
        }
      ],
      "name": "authorized",
      "outputs": [
        {
          "internalType": "bool",
          "name": "",
          "type": "bool"
        }
      ],
      "stateMutability": "view",
      "type": "function"
    },
    {
      "inputs": [
        {
          "internalType": "address",
          "name": "account",
          "type": "address"
        }
      ],
      "name": "balanceOf",
      "outputs": [
        {
          "internalType": "uint256",
          "name": "",
          "type": "uint256"
        }
      ],
      "stateMutability": "view",
      "type": "function"
    },
    {
      "inputs": [],
      "name": "burnPercent",
      "outputs": [
        {
          "internalType": "uint256",
          "name": "",
          "type": "uint256"
        }
      ],
      "stateMutability": "view",
      "type": "function"
    },
    {
      "inputs": [
        {
          "internalType": "address",
          "name": "",
          "type": "address"
        },
        {
          "internalType": "uint32",
          "name": "",
          "type": "uint32"
        }
      ],
      "name": "checkpoints",
      "outputs": [
        {
          "internalType": "uint32",
          "name": "fromBlock",
          "type": "uint32"
        },
        {
          "internalType": "uint256",
          "name": "votes",
          "type": "uint256"
        }
      ],
      "stateMutability": "view",
      "type": "function"
    },
    {
      "inputs": [],
      "name": "decimals",
      "outputs": [
        {
          "internalType": "uint8",
          "name": "",
          "type": "uint8"
        }
      ],
      "stateMutability": "view",
      "type": "function"
    },
    {
      "inputs": [
        {
          "internalType": "address",
          "name": "spender",
          "type": "address"
        },
        {
          "internalType": "uint256",
          "name": "subtractedValue",
          "type": "uint256"
        }
      ],
      "name": "decreaseAllowance",
      "outputs": [
        {
          "internalType": "bool",
          "name": "",
          "type": "bool"
        }
      ],
      "stateMutability": "nonpayable",
      "type": "function"
    },
    {
      "inputs": [],
      "name": "disPercent",
      "outputs": [
        {
          "internalType": "uint256",
          "name": "",
          "type": "uint256"
        }
      ],
      "stateMutability": "view",
      "type": "function"
    },
    {
      "inputs": [],
      "name": "disPool",
      "outputs": [
        {
          "internalType": "address",
          "name": "",
          "type": "address"
        }
      ],
      "stateMutability": "view",
      "type": "function"
    },
    {
      "inputs": [],
      "name": "dynamicTaxReduction",
      "outputs": [
        {
          "internalType": "uint256",
          "name": "",
          "type": "uint256"
        }
      ],
      "stateMutability": "view",
      "type": "function"
    },
    {
      "inputs": [
        {
          "internalType": "address",
          "name": "spender",
          "type": "address"
        },
        {
          "internalType": "uint256",
          "name": "addedValue",
          "type": "uint256"
        }
      ],
      "name": "increaseAllowance",
      "outputs": [
        {
          "internalType": "bool",
          "name": "",
          "type": "bool"
        }
      ],
      "stateMutability": "nonpayable",
      "type": "function"
    },
    {
      "inputs": [
        {
          "internalType": "address",
          "name": "",
          "type": "address"
        }
      ],
      "name": "isWhitelistedFrom",
      "outputs": [
        {
          "internalType": "bool",
          "name": "",
          "type": "bool"
        }
      ],
      "stateMutability": "view",
      "type": "function"
    },
    {
      "inputs": [
        {
          "internalType": "address",
          "name": "",
          "type": "address"
        }
      ],
      "name": "isWhitelistedTo",
      "outputs": [
        {
          "internalType": "bool",
          "name": "",
          "type": "bool"
        }
      ],
      "stateMutability": "view",
      "type": "function"
    },
    {
      "inputs": [],
      "name": "lockFromBlock",
      "outputs": [
        {
          "internalType": "uint256",
          "name": "",
          "type": "uint256"
        }
      ],
      "stateMutability": "view",
      "type": "function"
    },
    {
      "inputs": [],
      "name": "lockToBlock",
      "outputs": [
        {
          "internalType": "uint256",
          "name": "",
          "type": "uint256"
        }
      ],
      "stateMutability": "view",
      "type": "function"
    },
    {
      "inputs": [],
      "name": "manualMintLimit",
      "outputs": [
        {
          "internalType": "uint256",
          "name": "",
          "type": "uint256"
        }
      ],
      "stateMutability": "view",
      "type": "function"
    },
    {
      "inputs": [],
      "name": "manualMinted",
      "outputs": [
        {
          "internalType": "uint256",
          "name": "",
          "type": "uint256"
        }
      ],
      "stateMutability": "view",
      "type": "function"
    },
    {
      "inputs": [],
      "name": "minimumSupply",
      "outputs": [
        {
          "internalType": "uint256",
          "name": "",
          "type": "uint256"
        }
      ],
      "stateMutability": "view",
      "type": "function"
    },
    {
      "inputs": [],
      "name": "name",
      "outputs": [
        {
          "internalType": "string",
          "name": "",
          "type": "string"
        }
      ],
      "stateMutability": "view",
      "type": "function"
    },
    {
      "inputs": [
        {
          "internalType": "address",
          "name": "",
          "type": "address"
        }
      ],
      "name": "nonces",
      "outputs": [
        {
          "internalType": "uint256",
          "name": "",
          "type": "uint256"
        }
      ],
      "stateMutability": "view",
      "type": "function"
    },
    {
      "inputs": [
        {
          "internalType": "address",
          "name": "",
          "type": "address"
        }
      ],
      "name": "numCheckpoints",
      "outputs": [
        {
          "internalType": "uint32",
          "name": "",
          "type": "uint32"
        }
      ],
      "stateMutability": "view",
      "type": "function"
    },
    {
      "inputs": [],
      "name": "owner",
      "outputs": [
        {
          "internalType": "address",
          "name": "",
          "type": "address"
        }
      ],
      "stateMutability": "view",
      "type": "function"
    },
    {
      "inputs": [],
      "name": "previousOwner",
      "outputs": [
        {
          "internalType": "address",
          "name": "",
          "type": "address"
        }
      ],
      "stateMutability": "view",
      "type": "function"
    },
    {
      "inputs": [
        {
          "internalType": "address",
          "name": "_toRemove",
          "type": "address"
        }
      ],
      "name": "removeAuthorized",
      "outputs": [],
      "stateMutability": "nonpayable",
      "type": "function"
    },
    {
      "inputs": [],
      "name": "renounceOwnership",
      "outputs": [],
      "stateMutability": "nonpayable",
      "type": "function"
    },
    {
      "inputs": [],
      "name": "symbol",
      "outputs": [
        {
          "internalType": "string",
          "name": "",
          "type": "string"
        }
      ],
      "stateMutability": "view",
      "type": "function"
    },
    {
      "inputs": [],
      "name": "taxReductionDuration",
      "outputs": [
        {
          "internalType": "uint256",
          "name": "",
          "type": "uint256"
        }
      ],
      "stateMutability": "view",
      "type": "function"
    },
    {
      "inputs": [],
      "name": "taxStartDate",
      "outputs": [
        {
          "internalType": "uint256",
          "name": "",
          "type": "uint256"
        }
      ],
      "stateMutability": "view",
      "type": "function"
    },
    {
      "inputs": [],
      "name": "totalSupply",
      "outputs": [
        {
          "internalType": "uint256",
          "name": "",
          "type": "uint256"
        }
      ],
      "stateMutability": "view",
      "type": "function"
    },
    {
      "inputs": [
        {
          "internalType": "address",
          "name": "newOwner",
          "type": "address"
        }
      ],
      "name": "transferOwnership",
      "outputs": [],
      "stateMutability": "nonpayable",
      "type": "function"
    },
    {
      "inputs": [],
      "name": "cap",
      "outputs": [
        {
          "internalType": "uint256",
          "name": "",
          "type": "uint256"
        }
      ],
      "stateMutability": "view",
      "type": "function"
    },
    {
      "inputs": [
        {
          "internalType": "uint256",
          "name": "_newCap",
          "type": "uint256"
        }
      ],
      "name": "capUpdate",
      "outputs": [],
      "stateMutability": "nonpayable",
      "type": "function"
    },
    {
      "inputs": [
        {
          "internalType": "uint256",
          "name": "_newLockFrom",
          "type": "uint256"
        }
      ],
      "name": "lockFromUpdate",
      "outputs": [],
      "stateMutability": "nonpayable",
      "type": "function"
    },
    {
      "inputs": [
        {
          "internalType": "uint256",
          "name": "_newLockTo",
          "type": "uint256"
        }
      ],
      "name": "lockToUpdate",
      "outputs": [],
      "stateMutability": "nonpayable",
      "type": "function"
    },
    {
      "inputs": [
        {
          "internalType": "uint256",
          "name": "_newTaxStartDate",
          "type": "uint256"
        }
      ],
      "name": "taxStartDateUpdate",
      "outputs": [],
      "stateMutability": "nonpayable",
      "type": "function"
    },
    {
      "inputs": [
        {
          "internalType": "uint256",
          "name": "_newBurnPercent",
          "type": "uint256"
        }
      ],
      "name": "burnPercentUpdate",
      "outputs": [],
      "stateMutability": "nonpayable",
      "type": "function"
    },
    {
      "inputs": [
        {
          "internalType": "uint256",
          "name": "_newMinimumSupply",
          "type": "uint256"
        }
      ],
      "name": "minimumSupplyUpdate",
      "outputs": [],
      "stateMutability": "nonpayable",
      "type": "function"
    },
    {
      "inputs": [
        {
          "internalType": "address",
          "name": "_newDisPool",
          "type": "address"
        }
      ],
      "name": "disPoolUpdate",
      "outputs": [],
      "stateMutability": "nonpayable",
      "type": "function"
    },
    {
      "inputs": [
        {
          "internalType": "uint256",
          "name": "_newDisPercent",
          "type": "uint256"
        }
      ],
      "name": "disPercentUpdate",
      "outputs": [],
      "stateMutability": "nonpayable",
      "type": "function"
    },
    {
      "inputs": [
        {
          "internalType": "uint256",
          "name": "_newTaxReductionDuration",
          "type": "uint256"
        }
      ],
      "name": "taxReductionDurationUpdate",
      "outputs": [],
      "stateMutability": "nonpayable",
      "type": "function"
    },
    {
      "inputs": [
        {
          "internalType": "uint256",
          "name": "_newDynamicTaxReduction",
          "type": "uint256"
        }
      ],
      "name": "dynamicTaxReductionUpdate",
      "outputs": [],
      "stateMutability": "nonpayable",
      "type": "function"
    },
    {
      "inputs": [
        {
          "internalType": "address",
          "name": "newWhitelist",
          "type": "address"
        }
      ],
      "name": "setWhitelistedTo",
      "outputs": [],
      "stateMutability": "nonpayable",
      "type": "function"
    },
    {
      "inputs": [
        {
          "internalType": "address",
          "name": "newWhitelist",
          "type": "address"
        }
      ],
      "name": "removeWhitelistedTo",
      "outputs": [],
      "stateMutability": "nonpayable",
      "type": "function"
    },
    {
      "inputs": [
        {
          "internalType": "address",
          "name": "newWhitelist",
          "type": "address"
        }
      ],
      "name": "setWhitelistedFrom",
      "outputs": [],
      "stateMutability": "nonpayable",
      "type": "function"
    },
    {
      "inputs": [
        {
          "internalType": "address",
          "name": "newWhitelist",
          "type": "address"
        }
      ],
      "name": "removeWhitelistedFrom",
      "outputs": [],
      "stateMutability": "nonpayable",
      "type": "function"
    },
    {
      "inputs": [],
      "name": "unlockedSupply",
      "outputs": [
        {
          "internalType": "uint256",
          "name": "",
          "type": "uint256"
        }
      ],
      "stateMutability": "view",
      "type": "function"
    },
    {
      "inputs": [],
      "name": "lockedSupply",
      "outputs": [
        {
          "internalType": "uint256",
          "name": "",
          "type": "uint256"
        }
      ],
      "stateMutability": "view",
      "type": "function"
    },
    {
      "inputs": [],
      "name": "circulatingSupply",
      "outputs": [
        {
          "internalType": "uint256",
          "name": "",
          "type": "uint256"
        }
      ],
      "stateMutability": "view",
      "type": "function"
    },
    {
      "inputs": [],
      "name": "totalLock",
      "outputs": [
        {
          "internalType": "uint256",
          "name": "",
          "type": "uint256"
        }
      ],
      "stateMutability": "view",
      "type": "function"
    },
    {
      "inputs": [
        {
          "internalType": "address",
          "name": "_to",
          "type": "address"
        },
        {
          "internalType": "uint256",
          "name": "_amount",
          "type": "uint256"
        }
      ],
      "name": "mint",
      "outputs": [],
      "stateMutability": "nonpayable",
      "type": "function"
    },
    {
      "inputs": [
        {
          "internalType": "address",
          "name": "_to",
          "type": "address"
        },
        {
          "internalType": "uint256",
          "name": "_amount",
          "type": "uint256"
        }
      ],
      "name": "manualMint",
      "outputs": [],
      "stateMutability": "nonpayable",
      "type": "function"
    },
    {
      "inputs": [
        {
          "internalType": "address",
          "name": "to",
          "type": "address"
        },
        {
          "internalType": "uint256",
          "name": "amount",
          "type": "uint256"
        }
      ],
      "name": "transfer",
      "outputs": [
        {
          "internalType": "bool",
          "name": "",
          "type": "bool"
        }
      ],
      "stateMutability": "nonpayable",
      "type": "function"
    },
    {
      "inputs": [
        {
          "internalType": "address",
          "name": "from",
          "type": "address"
        },
        {
          "internalType": "address",
          "name": "to",
          "type": "address"
        },
        {
          "internalType": "uint256",
          "name": "amount",
          "type": "uint256"
        }
      ],
      "name": "transferFrom",
      "outputs": [
        {
          "internalType": "bool",
          "name": "",
          "type": "bool"
        }
      ],
      "stateMutability": "nonpayable",
      "type": "function"
    },
    {
      "inputs": [
        {
          "internalType": "address",
          "name": "_holder",
          "type": "address"
        }
      ],
      "name": "totalBalanceOf",
      "outputs": [
        {
          "internalType": "uint256",
          "name": "",
          "type": "uint256"
        }
      ],
      "stateMutability": "view",
      "type": "function"
    },
    {
      "inputs": [
        {
          "internalType": "address",
          "name": "_holder",
          "type": "address"
        }
      ],
      "name": "lockOf",
      "outputs": [
        {
          "internalType": "uint256",
          "name": "",
          "type": "uint256"
        }
      ],
      "stateMutability": "view",
      "type": "function"
    },
    {
      "inputs": [
        {
          "internalType": "address",
          "name": "_holder",
          "type": "address"
        }
      ],
      "name": "lastUnlockBlock",
      "outputs": [
        {
          "internalType": "uint256",
          "name": "",
          "type": "uint256"
        }
      ],
      "stateMutability": "view",
      "type": "function"
    },
    {
      "inputs": [
        {
          "internalType": "address",
          "name": "_holder",
          "type": "address"
        },
        {
          "internalType": "uint256",
          "name": "_amount",
          "type": "uint256"
        }
      ],
      "name": "lock",
      "outputs": [],
      "stateMutability": "nonpayable",
      "type": "function"
    },
    {
      "inputs": [
        {
          "internalType": "address",
          "name": "_holder",
          "type": "address"
        }
      ],
      "name": "canUnlockAmount",
      "outputs": [
        {
          "internalType": "uint256",
          "name": "",
          "type": "uint256"
        }
      ],
      "stateMutability": "view",
      "type": "function"
    },
    {
      "inputs": [],
      "name": "unlock",
      "outputs": [],
      "stateMutability": "nonpayable",
      "type": "function"
    },
    {
      "inputs": [
        {
          "internalType": "address",
          "name": "_to",
          "type": "address"
        }
      ],
      "name": "transferAll",
      "outputs": [],
      "stateMutability": "nonpayable",
      "type": "function"
    },
    {
      "inputs": [
        {
          "internalType": "address",
          "name": "delegator",
          "type": "address"
        }
      ],
      "name": "delegates",
      "outputs": [
        {
          "internalType": "address",
          "name": "",
          "type": "address"
        }
      ],
      "stateMutability": "view",
      "type": "function"
    },
    {
      "inputs": [
        {
          "internalType": "address",
          "name": "delegatee",
          "type": "address"
        }
      ],
      "name": "delegate",
      "outputs": [],
      "stateMutability": "nonpayable",
      "type": "function"
    },
    {
      "inputs": [
        {
          "internalType": "address",
          "name": "delegatee",
          "type": "address"
        },
        {
          "internalType": "uint256",
          "name": "nonce",
          "type": "uint256"
        },
        {
          "internalType": "uint256",
          "name": "expiry",
          "type": "uint256"
        },
        {
          "internalType": "uint8",
          "name": "v",
          "type": "uint8"
        },
        {
          "internalType": "bytes32",
          "name": "r",
          "type": "bytes32"
        },
        {
          "internalType": "bytes32",
          "name": "s",
          "type": "bytes32"
        }
      ],
      "name": "delegateBySig",
      "outputs": [],
      "stateMutability": "nonpayable",
      "type": "function"
    },
    {
      "inputs": [
        {
          "internalType": "address",
          "name": "account",
          "type": "address"
        }
      ],
      "name": "getCurrentVotes",
      "outputs": [
        {
          "internalType": "uint256",
          "name": "",
          "type": "uint256"
        }
      ],
      "stateMutability": "view",
      "type": "function"
    },
    {
      "inputs": [
        {
          "internalType": "address",
          "name": "account",
          "type": "address"
        },
        {
          "internalType": "uint256",
          "name": "blockNumber",
          "type": "uint256"
        }
      ],
      "name": "getPriorVotes",
      "outputs": [
        {
          "internalType": "uint256",
          "name": "",
          "type": "uint256"
        }
      ],
      "stateMutability": "view",
      "type": "function"
    }
  ],
  "bytecode": "0x60806040526b033b2e3c9fd0803ce80000006008556b019d971e4fe8401e74000000600c556000600d5569d3c21bcecceda1000000600e553480156200004457600080fd5b50604051620031ac380380620031ac833981016040819052620000679162000225565b60408051808201825260098152682130bb30aa37b5b2b760b91b6020808301918252835180850190945260048452634241564160e01b908401528151919291620000b4916003916200017f565b508051620000ca9060049060208401906200017f565b50506005805460ff19166012179055506000620000e43390565b60058054610100600160a81b0319166101006001600160a01b03841690810291909117909155604051919250906000907f8be0079c531659141344cd1fd0a4f28419497f9722a3daafe3b4186f6b6457e0908290a350600a958655600b94909455600f80546001600160a01b0319166001600160a01b03949094169390931790925560105560115560125562093a80601355601455620002c6565b8280546200018d9062000289565b90600052602060002090601f016020900481019282620001b15760008555620001fc565b82601f10620001cc57805160ff1916838001178555620001fc565b82800160010185558215620001fc579182015b82811115620001fc578251825591602001919060010190620001df565b506200020a9291506200020e565b5090565b5b808211156200020a57600081556001016200020f565b60008060008060008060c087890312156200023f57600080fd5b86516020880151604089015191975095506001600160a01b03811681146200026657600080fd5b80945050606087015192506080870151915060a087015190509295509295509295565b600181811c908216806200029e57607f821691505b60208210811415620002c057634e487b7160e01b600052602260045260246000fd5b50919050565b612ed680620002d66000396000f3fe608060405234801561001057600080fd5b50600436106103875760003560e01c80637ecebe00116101e0578063c3cda52011610110578063e6b2fb4a116100a8578063e6b2fb4a14610870578063e7a324dc14610879578063e7c5372c146108a0578063f0f8f356146108b3578063f1127ed8146108c6578063f2fde38b1461091d578063f756724414610930578063f85b84a414610943578063fd3d27b81461094c57600080fd5b8063c3cda520146107a4578063c6ef9246146107b7578063c7c8db3e146107c0578063ca04d2d8146107d3578063ca5c7b91146107f6578063cf1c316a146107fe578063dd62ed3e14610811578063e2657da11461084a578063e4c5ff461461085d57600080fd5b806395d89b411161018357806395d89b4114610709578063a00c950314610711578063a3a7e7f31461071a578063a457c2d71461072d578063a69df4b514610740578063a9059cbb14610748578063b4b5ea571461075b578063b91816111461076e578063c38533c61461079157600080fd5b80637ecebe00146106785780637ede036d1461069857806384036fb9146106a157806389a2867c146106b45780638cdbcdc6146106dd5780638da5cb5b146106f05780638e875e1a146106f85780639358928b1461070157600080fd5b80633b6b8183116102bb5780635a46d3b51161025e5780635a46d3b5146105965780635b014029146105bf5780635c19a95c146105e257806366fc237b146105f5578063674f220f146105fe5780636fcfff451461060f57806370a082311461064a578063715018a61461065d578063782d6fe11461066557600080fd5b80633b6b8183146104e557806340346c49146104f857806340c10f191461050b578063485d7d941461051e5780634b0ee02a146105315780634b30c23e146105445780634d28b4ba14610557578063587cde1e1461056a57600080fd5b806320606b701161032e57806320606b701461042257806323b872dd1461044957806327ba6e111461045c578063282d3fdf14610487578063313ce5671461049a578063355274ea146104af5780633838d4e3146104b757806339509351146104ca5780633a1aae35146104dd57600080fd5b806303807ee51461038c57806306fdde03146103a8578063095ea7b3146103bd5780630cb285e2146103e057806318160ddd146103f557806318325c3a146103fd5780631995600114610406578063202b17601461040f575b600080fd5b61039560105481565b6040519081526020015b60405180910390f35b6103b0610954565b60405161039f9190612b7b565b6103d06103cb366004612a98565b6109e6565b604051901515815260200161039f565b6103f36103ee366004612b62565b6109fd565b005b600254610395565b61039560125481565b61039560135481565b61039561041d366004612a0e565b610a38565b6103957f8cad95687ba82c2ce50e74f7b754645e5117c3a5bec8151c0726d5857980a86681565b6103d0610457366004612a5c565b610aff565b600f5461046f906001600160a01b031681565b6040516001600160a01b03909116815260200161039f565b6103f3610495366004612a98565b610b67565b60055460405160ff909116815260200161039f565b600854610395565b6103f36104c5366004612a0e565b610d2f565b6103d06104d8366004612a98565b610dc2565b600954610395565b6103f36104f3366004612b62565b610dfd565b6103f3610506366004612b62565b610e38565b6103f3610519366004612a98565b610e73565b6103f361052c366004612a0e565b610edc565b61039561053f366004612a0e565b610f43565b6103f3610552366004612a0e565b610f71565b6103f3610565366004612a0e565b610fc9565b61046f610578366004612a0e565b6001600160a01b039081166000908152601960205260409020541690565b6103956105a4366004612a0e565b6001600160a01b031660009081526015602052604090205490565b6103d06105cd366004612a0e565b60176020526000908152604090205460ff1681565b6103f36105f0366004612a0e565b611058565b610395600a5481565b6006546001600160a01b031661046f565b61063561061d366004612a0e565b601b6020526000908152604090205463ffffffff1681565b60405163ffffffff909116815260200161039f565b610395610658366004612a0e565b611065565b6103f3611080565b610395610673366004612a98565b611100565b610395610686366004612a0e565b601c6020526000908152604090205481565b610395600e5481565b6103f36106af366004612b62565b611365565b6103956106c2366004612a0e565b6001600160a01b031660009081526016602052604090205490565b6103f36106eb366004612b62565b6113a0565b61046f6113db565b610395600b5481565b6103956113ef565b6103b06113ff565b61039560145481565b6103f3610728366004612a0e565b61140e565b6103d061073b366004612a98565b6114fd565b6103f361154c565b6103d0610756366004612a98565b611620565b610395610769366004612a0e565b61167f565b6103d061077c366004612a0e565b60076020526000908152604090205460ff1681565b6103f361079f366004612b62565b6116f3565b6103f36107b2366004612ac2565b61172e565b61039560115481565b6103f36107ce366004612b62565b6119fc565b6103d06107e1366004612a0e565b60186020526000908152604090205460ff1681565b610395611a37565b6103f361080c366004612a0e565b611a42565b61039561081f366004612a29565b6001600160a01b03918216600090815260016020908152604080832093909416825291909152205490565b6103f3610858366004612a0e565b611a96565b6103f361086b366004612a98565b611b25565b610395600d5481565b6103957fe48329057bfd03d55e49b547132e39cffd9c1820ad7b9d4c5307691425d15adf81565b6103f36108ae366004612b62565b611bab565b6103f36108c1366004612b62565b611be6565b6109016108d4366004612b22565b601a6020908152600092835260408084209091529082529020805460019091015463ffffffff9091169082565b6040805163ffffffff909316835260208301919091520161039f565b6103f361092b366004612a0e565b611c21565b6103f361093e366004612a0e565b611d1d565b610395600c5481565b610395611db0565b60606003805461096390612d35565b80601f016020809104026020016040519081016040528092919081815260200182805461098f90612d35565b80156109dc5780601f106109b1576101008083540402835291602001916109dc565b820191906000526020600020905b8154815290600101906020018083116109bf57829003601f168201915b5050505050905090565b60006109f3338484611dc8565b5060015b92915050565b3360009081526007602052604090205460ff1680610a2a575033610a1f6113db565b6001600160a01b0316145b610a3357600080fd5b600b55565b6000600a54431015610a4c57506000919050565b600b544310610a7157506001600160a01b031660009081526015602052604090205490565b6001600160a01b038216600090815260166020526040812054610a949043612cf9565b6001600160a01b038416600090815260166020526040812054600b549293509091610abf9190612cf9565b6001600160a01b0385166000908152601560205260409020549091508190610ae8908490612cda565b610af29190612ca3565b949350505050565b919050565b6001600160a01b03821660009081526017602052604081205460ff1680610b3557503360009081526018602052604090205460ff165b15610b4c57610b45848484611eed565b9050610b60565b610b458484610b5b8533611f51565b611eed565b9392505050565b3360009081526007602052604090205460ff1680610b94575033610b896113db565b6001600160a01b0316145b610b9d57600080fd5b6001600160a01b038216610bf85760405162461bcd60e51b815260206004820152601f60248201527f45524332303a206c6f636b20746f20746865207a65726f20616464726573730060448201526064015b60405180910390fd5b610c0182611065565b811115610c505760405162461bcd60e51b815260206004820152601e60248201527f45524332303a206c6f636b20616d6f756e74206f76657220626c616e636500006044820152606401610bef565b610c5b823083611fea565b6001600160a01b038216600090815260156020526040902054610c7f908290612c63565b6001600160a01b038316600090815260156020526040902055600954610ca6908290612c63565b600955600a546001600160a01b0383166000908152601660205260409020541015610ce857600a546001600160a01b0383166000908152601660205260409020555b816001600160a01b03167f625fed9875dada8643f2418b838ae0bc78d9a148a18eee4ee1979ff0f3f5d42782604051610d2391815260200190565b60405180910390a25050565b3360009081526007602052604090205460ff1680610d5c575033610d516113db565b6001600160a01b0316145b610d6557600080fd5b6001600160a01b03811660009081526018602052604090205460ff1615610d9e5760405162461bcd60e51b8152600401610bef90612c05565b6001600160a01b03166000908152601860205260409020805460ff19166001179055565b3360008181526001602090815260408083206001600160a01b038716845290915281205490916109f3918590610df8908661202c565b611dc8565b3360009081526007602052604090205460ff1680610e2a575033610e1f6113db565b6001600160a01b0316145b610e3357600080fd5b601455565b3360009081526007602052604090205460ff1680610e65575033610e5a6113db565b6001600160a01b0316145b610e6e57600080fd5b600855565b3360009081526007602052604090205460ff1680610ea0575033610e956113db565b6001600160a01b0316145b610ea957600080fd5b610eb3828261208b565b6001600160a01b03808316600090815260196020526040812054610ed8921683612164565b5050565b6005546001600160a01b03610100909104163314610f0c5760405162461bcd60e51b8152600401610bef90612bd0565b6001600160a01b038116331415610f2257600080fd5b6001600160a01b03166000908152600760205260409020805460ff19169055565b6000610f4e82611065565b6001600160a01b0383166000908152601560205260409020546109f79190612c63565b3360009081526007602052604090205460ff1680610f9e575033610f936113db565b6001600160a01b0316145b610fa757600080fd5b600f80546001600160a01b0319166001600160a01b0392909216919091179055565b3360009081526007602052604090205460ff1680610ff6575033610feb6113db565b6001600160a01b0316145b610fff57600080fd5b6001600160a01b03811660009081526018602052604090205460ff166110375760405162461bcd60e51b8152600401610bef90612c32565b6001600160a01b03166000908152601860205260409020805460ff19169055565b61106233826122c3565b50565b6001600160a01b031660009081526020819052604090205490565b6005546001600160a01b036101009091041633146110b05760405162461bcd60e51b8152600401610bef90612bd0565b60055460405160009161010090046001600160a01b0316907f8be0079c531659141344cd1fd0a4f28419497f9722a3daafe3b4186f6b6457e0908390a360058054610100600160a81b0319169055565b60004382106111615760405162461bcd60e51b815260206004820152602760248201527f424156413a3a6765745072696f72566f7465733a206e6f742079657420646574604482015266195c9b5a5b995960ca1b6064820152608401610bef565b6001600160a01b0383166000908152601b602052604090205463ffffffff168061118f5760009150506109f7565b6001600160a01b0384166000908152601a6020526040812084916111b4600185612d10565b63ffffffff9081168252602082019290925260400160002054161161121d576001600160a01b0384166000908152601a60205260408120906111f7600184612d10565b63ffffffff1663ffffffff168152602001908152602001600020600101549150506109f7565b6001600160a01b0384166000908152601a6020908152604080832083805290915290205463ffffffff168310156112585760009150506109f7565b600080611266600184612d10565b90505b8163ffffffff168163ffffffff16111561132e576000600261128b8484612d10565b6112959190612cb7565b61129f9083612d10565b6001600160a01b0388166000908152601a6020908152604080832063ffffffff8086168552908352928190208151808301909252805490931680825260019093015491810191909152919250871415611302576020015194506109f79350505050565b805163ffffffff1687111561131957819350611327565b611324600183612d10565b92505b5050611269565b506001600160a01b0385166000908152601a6020908152604080832063ffffffff9094168352929052206001015491505092915050565b3360009081526007602052604090205460ff16806113925750336113876113db565b6001600160a01b0316145b61139b57600080fd5b601255565b3360009081526007602052604090205460ff16806113cd5750336113c26113db565b6001600160a01b0316145b6113d657600080fd5b601155565b60055461010090046001600160a01b031690565b60006113fa60025490565b905090565b60606004805461096390612d35565b33600090815260156020526040808220546001600160a01b03841683529120546114389190612c63565b6001600160a01b038216600090815260156020908152604080832093909355600a54601690915291902054101561148657600a546001600160a01b0382166000908152601660205260409020555b33600090815260166020526040808220546001600160a01b038416835291205410156114cd5733600090815260166020526040808220546001600160a01b03841683529120555b336000818152601560209081526040808320839055601690915281205561106290826114f882611065565b611fea565b60006109f33384610df885604051806060016040528060258152602001612e7c602591393360009081526001602090815260408083206001600160a01b038d1684529091529020549190612358565b3360009081526015602052604090205461159f5760405162461bcd60e51b815260206004820152601460248201527345524332303a2063616e6e6f7420756e6c6f636b60601b6044820152606401610bef565b60006115aa33610a38565b90506115b530611065565b8111156115c8576115c530611065565b90505b6115d3303383611fea565b336000908152601560205260409020546115ee908290612cf9565b33600090815260156020908152604080832093909355601690522043905560095461161a908290612cf9565b60095550565b6001600160a01b03821660009081526017602052604081205460ff168061165657503360009081526018602052604090205460ff165b1561166c576116658383612392565b90506109f7565b6116658361167a8433611f51565b612392565b6001600160a01b0381166000908152601b602052604081205463ffffffff16806116aa576000610b60565b6001600160a01b0383166000908152601a60205260408120906116ce600184612d10565b63ffffffff1663ffffffff168152602001908152602001600020600101549392505050565b3360009081526007602052604090205460ff16806117205750336117156113db565b6001600160a01b0316145b61172957600080fd5b600a55565b60007f8cad95687ba82c2ce50e74f7b754645e5117c3a5bec8151c0726d5857980a866611759610954565b805190602001206117674690565b60408051602080820195909552808201939093526060830191909152306080808401919091528151808403909101815260a0830182528051908401207fe48329057bfd03d55e49b547132e39cffd9c1820ad7b9d4c5307691425d15adf60c08401526001600160a01b038b1660e084015261010083018a90526101208084018a90528251808503909101815261014084019092528151919093012061190160f01b610160830152610162820183905261018282018190529192506000906101a20160408051601f198184030181528282528051602091820120600080855291840180845281905260ff8a169284019290925260608301889052608083018790529092509060019060a0016020604051602081039080840390855afa158015611893573d6000803e3d6000fd5b5050604051601f1901519150506001600160a01b0381166119055760405162461bcd60e51b815260206004820152602660248201527f424156413a3a64656c656761746542795369673a20696e76616c6964207369676044820152656e617475726560d01b6064820152608401610bef565b6001600160a01b0381166000908152601c6020526040812080549161192983612d70565b9190505589146119865760405162461bcd60e51b815260206004820152602260248201527f424156413a3a64656c656761746542795369673a20696e76616c6964206e6f6e604482015261636560f01b6064820152608401610bef565b874211156119e55760405162461bcd60e51b815260206004820152602660248201527f424156413a3a64656c656761746542795369673a207369676e617475726520656044820152651e1c1a5c995960d21b6064820152608401610bef565b6119ef818b6122c3565b505050505b505050505050565b3360009081526007602052604090205460ff1680611a29575033611a1e6113db565b6001600160a01b0316145b611a3257600080fd5b601055565b60006113fa60095490565b6005546001600160a01b03610100909104163314611a725760405162461bcd60e51b8152600401610bef90612bd0565b6001600160a01b03166000908152600760205260409020805460ff19166001179055565b3360009081526007602052604090205460ff1680611ac3575033611ab86113db565b6001600160a01b0316145b611acc57600080fd5b6001600160a01b03811660009081526017602052604090205460ff16611b045760405162461bcd60e51b8152600401610bef90612c32565b6001600160a01b03166000908152601760205260409020805460ff19169055565b3360009081526007602052604090205460ff1680611b52575033611b476113db565b6001600160a01b0316145b611b5b57600080fd5b600c54600d541015610ed857611b71828261208b565b6001600160a01b03808316600090815260196020526040812054611b96921683612164565b80600d54611ba49190612c63565b600d555050565b3360009081526007602052604090205460ff1680611bd8575033611bcd6113db565b6001600160a01b0316145b611be157600080fd5b600e55565b3360009081526007602052604090205460ff1680611c13575033611c086113db565b6001600160a01b0316145b611c1c57600080fd5b601355565b6005546001600160a01b03610100909104163314611c515760405162461bcd60e51b8152600401610bef90612bd0565b6001600160a01b038116611cb65760405162461bcd60e51b815260206004820152602660248201527f4f776e61626c653a206e6577206f776e657220697320746865207a65726f206160448201526564647265737360d01b6064820152608401610bef565b6005546040516001600160a01b0380841692610100900416907f8be0079c531659141344cd1fd0a4f28419497f9722a3daafe3b4186f6b6457e090600090a3600580546001600160a01b0390921661010002610100600160a81b0319909216919091179055565b3360009081526007602052604090205460ff1680611d4a575033611d3f6113db565b6001600160a01b0316145b611d5357600080fd5b6001600160a01b03811660009081526017602052604090205460ff1615611d8c5760405162461bcd60e51b8152600401610bef90612c05565b6001600160a01b03166000908152601760205260409020805460ff19166001179055565b6000600954611dbe60025490565b6113fa9190612cf9565b6001600160a01b038316611e2a5760405162461bcd60e51b8152602060048201526024808201527f45524332303a20617070726f76652066726f6d20746865207a65726f206164646044820152637265737360e01b6064820152608401610bef565b6001600160a01b038216611e8b5760405162461bcd60e51b815260206004820152602260248201527f45524332303a20617070726f766520746f20746865207a65726f206164647265604482015261737360f01b6064820152608401610bef565b6001600160a01b0383811660008181526001602090815260408083209487168084529482529182902085905590518481527f8c5be1e5ebec7d5bd14f71427d1e84f3dd0314c0f7b2291e5b200ac8c7c3b92591015b60405180910390a3505050565b6000611efa848484611fea565b611f478433610df885604051806060016040528060288152602001612e34602891396001600160a01b038a1660009081526001602090815260408083203384529091529020549190612358565b5060019392505050565b6000808080611f5f8661239f565b9092509050611f6e85836124fa565b600f54611f869086906001600160a01b031683611fea565b80611f918388612cf9565b611f9b9190612cf9565b9250846001600160a01b03167fcc16f5dbb4873280815c1ee09dbd06736cffcc184412cf7a71a0fdb75d397ca583604051611fd891815260200190565b60405180910390a25090949350505050565b611ff58383836125f8565b6001600160a01b0380841660009081526019602052604080822054858416835291205461202792918216911683612164565b505050565b6000806120398385612c63565b905083811015610b605760405162461bcd60e51b815260206004820152601b60248201527f536166654d6174683a206164646974696f6e206f766572666c6f7700000000006044820152606401610bef565b6001600160a01b0382166120e15760405162461bcd60e51b815260206004820152601f60248201527f45524332303a206d696e7420746f20746865207a65726f2061646472657373006044820152606401610bef565b6120ed60008383612774565b6002546120fa908261202c565b6002556001600160a01b038216600090815260208190526040902054612120908261202c565b6001600160a01b03831660008181526020818152604080832094909455925184815291929091600080516020612e5c83398151915291015b60405180910390a35050565b816001600160a01b0316836001600160a01b0316141580156121865750600081115b15612027576001600160a01b03831615612229576001600160a01b0383166000908152601b602052604081205463ffffffff1690816121c6576000612209565b6001600160a01b0385166000908152601a60205260408120906121ea600185612d10565b63ffffffff1663ffffffff168152602001908152602001600020600101545b905060006122178483612cf9565b9050612225868484846127e3565b5050505b6001600160a01b03821615612027576001600160a01b0382166000908152601b602052604081205463ffffffff1690816122645760006122a7565b6001600160a01b0384166000908152601a6020526040812090612288600185612d10565b63ffffffff1663ffffffff168152602001908152602001600020600101545b905060006122b58483612c63565b90506119f4858484846127e3565b6001600160a01b03808316600090815260196020526040812054909116906122ea84611065565b6001600160a01b0385811660008181526019602052604080822080546001600160a01b031916898616908117909155905194955093928616927f3134e8a2e6d97e929a7e54011ea5485d7d196dd5f0ba4d4ef95803e8e3fc257f9190a4612352828483612164565b50505050565b6000818484111561237c5760405162461bcd60e51b8152600401610bef9190612b7b565b5060006123898486612cf9565b95945050505050565b60006109f3338484611fea565b600080600080600e546123b160025490565b11156124f05760125442101561242757612710601054866123d29190612cda565b6123dc9190612ca3565b9150612710601154866123ef9190612cda565b6123f99190612ca3565b90506000600e5461240960025490565b6124139190612cf9565b905080831115612421578092505b506124f0565b60006014546013546012544261243d9190612cf9565b6124479190612ca3565b6124519190612cda565b90506010548110612465576000925061248d565b612710816010546124769190612cf9565b6124809088612cda565b61248a9190612ca3565b92505b601154811061249f57600091506124c7565b612710816011546124b09190612cf9565b6124ba9088612cda565b6124c49190612ca3565b91505b6000600e546124d560025490565b6124df9190612cf9565b9050808411156124ed578093505b50505b9094909350915050565b6001600160a01b03821661255a5760405162461bcd60e51b815260206004820152602160248201527f45524332303a206275726e2066726f6d20746865207a65726f206164647265736044820152607360f81b6064820152608401610bef565b61256682600083612774565b6125a381604051806060016040528060228152602001612db8602291396001600160a01b0385166000908152602081905260409020549190612358565b6001600160a01b0383166000908152602081905260409020556002546125c99082612985565b6002556040518181526000906001600160a01b03841690600080516020612e5c83398151915290602001612158565b6001600160a01b03831661265c5760405162461bcd60e51b815260206004820152602560248201527f45524332303a207472616e736665722066726f6d20746865207a65726f206164604482015264647265737360d81b6064820152608401610bef565b6001600160a01b0382166126be5760405162461bcd60e51b815260206004820152602360248201527f45524332303a207472616e7366657220746f20746865207a65726f206164647260448201526265737360e81b6064820152608401610bef565b6126c9838383612774565b61270681604051806060016040528060268152602001612dda602691396001600160a01b0386166000908152602081905260409020549190612358565b6001600160a01b038085166000908152602081905260408082209390935590841681522054612735908261202c565b6001600160a01b03838116600081815260208181526040918290209490945551848152909291861691600080516020612e5c8339815191529101611ee0565b6001600160a01b038316612027576008548161278f60025490565b6127999190612c63565b11156120275760405162461bcd60e51b8152602060048201526019602482015278115490cc8c10d85c1c19590e8818d85c08195e18d959591959603a1b6044820152606401610bef565b600061280743604051806060016040528060348152602001612e00603491396129c7565b905060008463ffffffff1611801561286157506001600160a01b0385166000908152601a6020526040812063ffffffff831691612845600188612d10565b63ffffffff908116825260208201929092526040016000205416145b156128aa576001600160a01b0385166000908152601a60205260408120839161288b600188612d10565b63ffffffff16815260208101919091526040016000206001015561293a565b60408051808201825263ffffffff838116825260208083018681526001600160a01b038a166000908152601a83528581208a851682529092529390209151825463ffffffff191691161781559051600191820155612909908590612c7b565b6001600160a01b0386166000908152601b60205260409020805463ffffffff191663ffffffff929092169190911790555b60408051848152602081018490526001600160a01b038716917fdec2bacdd2f05b59de34da9b523dff8be42e5e38e818c82fdb0bae774387a724910160405180910390a25050505050565b6000610b6083836040518060400160405280601e81526020017f536166654d6174683a207375627472616374696f6e206f766572666c6f770000815250612358565b60008164010000000084106129ef5760405162461bcd60e51b8152600401610bef9190612b7b565b509192915050565b80356001600160a01b0381168114610afa57600080fd5b600060208284031215612a2057600080fd5b610b60826129f7565b60008060408385031215612a3c57600080fd5b612a45836129f7565b9150612a53602084016129f7565b90509250929050565b600080600060608486031215612a7157600080fd5b612a7a846129f7565b9250612a88602085016129f7565b9150604084013590509250925092565b60008060408385031215612aab57600080fd5b612ab4836129f7565b946020939093013593505050565b60008060008060008060c08789031215612adb57600080fd5b612ae4876129f7565b95506020870135945060408701359350606087013560ff81168114612b0857600080fd5b9598949750929560808101359460a0909101359350915050565b60008060408385031215612b3557600080fd5b612b3e836129f7565b9150602083013563ffffffff81168114612b5757600080fd5b809150509250929050565b600060208284031215612b7457600080fd5b5035919050565b600060208083528351808285015260005b81811015612ba857858101830151858201604001528201612b8c565b81811115612bba576000604083870101525b50601f01601f1916929092016040019392505050565b6020808252818101527f4f776e61626c653a2063616c6c6572206973206e6f7420746865206f776e6572604082015260600190565b60208082526013908201527277686974656c6973746564204164647265737360681b604082015260600190565b6020808252601790820152764e6f6e2077686974656c6973746564204164647265737360481b604082015260600190565b60008219821115612c7657612c76612d8b565b500190565b600063ffffffff808316818516808303821115612c9a57612c9a612d8b565b01949350505050565b600082612cb257612cb2612da1565b500490565b600063ffffffff80841680612cce57612cce612da1565b92169190910492915050565b6000816000190483118215151615612cf457612cf4612d8b565b500290565b600082821015612d0b57612d0b612d8b565b500390565b600063ffffffff83811690831681811015612d2d57612d2d612d8b565b039392505050565b600181811c90821680612d4957607f821691505b60208210811415612d6a57634e487b7160e01b600052602260045260246000fd5b50919050565b6000600019821415612d8457612d84612d8b565b5060010190565b634e487b7160e01b600052601160045260246000fd5b634e487b7160e01b600052601260045260246000fdfe45524332303a206275726e20616d6f756e7420657863656564732062616c616e636545524332303a207472616e7366657220616d6f756e7420657863656564732062616c616e6365424156413a3a5f7772697465436865636b706f696e743a20626c6f636b206e756d6265722065786365656473203332206269747345524332303a207472616e7366657220616d6f756e74206578636565647320616c6c6f77616e6365ddf252ad1be2c89b69c2b068fc378daa952ba7f163c4a11628f55a4df523b3ef45524332303a2064656372656173656420616c6c6f77616e63652062656c6f77207a65726fa26469706673582212203c7133d6e12c5bd99f865212af44e758a97aa8e7cfc513c97be491a9ff373c2364736f6c63430008070033",
  "immutableReferences": {},
  "source": "// SPDX-License-Identifier: MIT\r\n\r\npragma solidity ^0.8.0;\r\n\r\nimport \"./Ownable.sol\";\r\nimport \"./ERC20.sol\";\r\n\r\n// BAVAToken with Governance.\r\ncontract BavaToken is ERC20(\"BavaToken\", \"BAVA\"), Ownable, Authorizable {\r\n    uint256 private _cap = 1000000000e18;     // 1 billion tokens\r\n    uint256 private _totalLock;\r\n\r\n    uint256 public lockFromBlock;\r\n    uint256 public lockToBlock;\r\n    uint256 public manualMintLimit = 500000000e18;   // 1 thousand tokens\r\n    uint256 public manualMinted = 0;\r\n    uint256 public minimumSupply = 1000000e18;      // 1 million tokens\r\n    address public disPool;\r\n    uint256 public burnPercent;\r\n    uint256 public disPercent;\r\n    uint256 public taxStartDate;                    // in timestamp second\r\n    uint256 public taxReductionDuration;\r\n    uint256 public dynamicTaxReduction;\r\n\r\n    mapping(address => uint256) private _locks;\r\n    mapping(address => uint256) private _lastUnlockBlock;\r\n    mapping(address => bool) public isWhitelistedTo;\r\n    mapping(address => bool) public isWhitelistedFrom;\r\n\r\n    event Lock(address indexed to, uint256 value);\r\n    event Burn(address indexed _from, uint256 _value);\r\n\r\n    constructor(uint256 _lockFromBlock, uint256 _lockToBlock, address _disPool, uint256 _burnPercent, uint256 _disPercent, uint256 _taxStartDate) {\r\n        lockFromBlock = _lockFromBlock;\r\n        lockToBlock = _lockToBlock;\r\n        disPool = _disPool;\r\n        burnPercent = _burnPercent;\r\n        disPercent = _disPercent;\r\n        taxStartDate = _taxStartDate;\r\n        taxReductionDuration = 604800;      // Seconds per Week\r\n        dynamicTaxReduction = 10;\r\n    }\r\n\r\n    /**\r\n     * @dev Returns the cap on the token's total supply.\r\n     */\r\n    function cap() public view returns (uint256) {\r\n        return _cap;\r\n    }\r\n    \r\n    // Update the total cap - can go up or down but wont destroy prevoius tokens.\r\n    function capUpdate(uint256 _newCap) public onlyAuthorized {\r\n        _cap = _newCap;\r\n    }\r\n    \r\n     // Update the lockFromBlock\r\n    function lockFromUpdate(uint256 _newLockFrom) public onlyAuthorized {\r\n        lockFromBlock = _newLockFrom;\r\n    }\r\n    \r\n     // Update the lockToBlock\r\n    function lockToUpdate(uint256 _newLockTo) public onlyAuthorized {\r\n        lockToBlock = _newLockTo;\r\n    }\r\n\r\n    // Update the taxStartDate\r\n    function taxStartDateUpdate(uint256 _newTaxStartDate) public onlyAuthorized {\r\n        taxStartDate = _newTaxStartDate;\r\n    }\r\n\r\n    // Update the burnPercent\r\n    function burnPercentUpdate(uint256 _newBurnPercent) public onlyAuthorized {\r\n        burnPercent = _newBurnPercent;\r\n    }\r\n\r\n    // Update the disPercent\r\n    function minimumSupplyUpdate(uint256 _newMinimumSupply) public onlyAuthorized {\r\n        minimumSupply = _newMinimumSupply;\r\n    }\r\n\r\n    // Update the disPercent\r\n    function disPoolUpdate(address _newDisPool) public onlyAuthorized {\r\n        disPool = _newDisPool;\r\n    }\r\n\r\n    // Update the disPercent\r\n    function disPercentUpdate(uint256 _newDisPercent) public onlyAuthorized {\r\n        disPercent = _newDisPercent;\r\n    }\r\n\r\n    // Update the taxReductionDuration\r\n    function taxReductionDurationUpdate(uint256 _newTaxReductionDuration) public onlyAuthorized {\r\n        taxReductionDuration = _newTaxReductionDuration;\r\n    }\r\n\r\n    // Update the taxStartDate\r\n    function dynamicTaxReductionUpdate(uint256 _newDynamicTaxReduction) public onlyAuthorized {\r\n        dynamicTaxReduction = _newDynamicTaxReduction;\r\n    }  \r\n\r\n    function setWhitelistedTo(address newWhitelist) external onlyAuthorized {\r\n        require(!isWhitelistedTo[newWhitelist], \"whitelisted Address\");\r\n\r\n        isWhitelistedTo[newWhitelist] = true;\r\n    }\r\n\r\n    function removeWhitelistedTo(address newWhitelist) external onlyAuthorized {\r\n        require(isWhitelistedTo[newWhitelist], \"Non whitelisted Address\");\r\n\r\n        isWhitelistedTo[newWhitelist] = false;\r\n    }\r\n\r\n    function setWhitelistedFrom(address newWhitelist) external onlyAuthorized {\r\n        require(!isWhitelistedFrom[newWhitelist], \"whitelisted Address\");\r\n\r\n        isWhitelistedFrom[newWhitelist] = true;\r\n    }\r\n\r\n    function removeWhitelistedFrom(address newWhitelist) external onlyAuthorized {\r\n        require(isWhitelistedFrom[newWhitelist], \"Non whitelisted Address\");\r\n\r\n        isWhitelistedFrom[newWhitelist] = false;\r\n    } \r\n\r\n    function unlockedSupply() public view returns (uint256) {\r\n        return (totalSupply()-_totalLock);\r\n    }\r\n    \r\n    function lockedSupply() public view returns (uint256) {\r\n        return totalLock();\r\n    }\r\n    \r\n    function circulatingSupply() public view returns (uint256) {\r\n        return totalSupply();\r\n    }\r\n\r\n    function totalLock() public view returns (uint256) {\r\n        return _totalLock;\r\n    }\r\n\r\n    /**\r\n     * @dev See {ERC20-_beforeTokenTransfer}.\r\n     *\r\n     * Requirements:\r\n     *\r\n     * - minted tokens must not cause the total supply to go over the cap.\r\n     */\r\n    function _beforeTokenTransfer(address from, address to, uint256 amount) internal virtual override {\r\n        super._beforeTokenTransfer(from, to, amount);\r\n\r\n        if (from == address(0)) { // When minting tokens\r\n            require(totalSupply()+amount <= _cap, \"ERC20Capped: cap exceeded\");\r\n        }\r\n    }\r\n\r\n    /**\r\n     * @dev Moves tokens `amount` from `sender` to `recipient`.\r\n     *\r\n     * This is internal function is equivalent to {transfer}, and can be used to\r\n     * e.g. implement automatic token fees, slashing mechanisms, etc.\r\n     *\r\n     * Emits a {Transfer} event.\r\n     *\r\n     * Requirements:\r\n     *\r\n     * - `sender` cannot be the zero address.\r\n     * - `recipient` cannot be the zero address.\r\n     * - `sender` must have a balance of at least `amount`.\r\n     */\r\n    function _transfer(address sender, address recipient, uint256 amount) internal virtual override {\r\n        super._transfer(sender, recipient, amount);\r\n        _moveDelegates(_delegates[sender], _delegates[recipient], amount);\r\n    }\r\n\r\n    /// @notice Creates `_amount` token to `_to`. Must only be called by the owner (MasterChef).\r\n    function mint(address _to, uint256 _amount) public onlyAuthorized {\r\n        _mint(_to, _amount);\r\n        _moveDelegates(address(0), _delegates[_to], _amount);\r\n    }\r\n    \r\n    function manualMint(address _to, uint256 _amount) public onlyAuthorized {\r\n        if(manualMinted < manualMintLimit){\r\n            _mint(_to, _amount);\r\n            _moveDelegates(address(0), _delegates[_to], _amount);\r\n            manualMinted = manualMinted+(_amount);\r\n        }\r\n    }\r\n\r\n    function transfer(address to, uint256 amount) public override returns (bool) {\r\n        if (isWhitelistedTo[to] || isWhitelistedFrom[msg.sender]) {\r\n            return super.transfer(to, amount);\r\n        } else {\r\n            return super.transfer(to, _partialBurn(amount, msg.sender));\r\n        }\r\n    }\r\n\r\n    function transferFrom(address from, address to, uint256 amount) public override returns (bool) {\r\n        if (isWhitelistedTo[to] || isWhitelistedFrom[msg.sender]) {\r\n            return super.transferFrom(from, to, amount);\r\n        } else {\r\n            return super.transferFrom(from, to, _partialBurn(amount, msg.sender));\r\n        }\r\n    }\r\n\r\n    function _partialBurn(uint256 _amount, address _from) internal returns (uint256) {\r\n        uint256 transferAmount = 0;\r\n        uint256 burnAmount;\r\n        uint256 disAmount;\r\n        (burnAmount, disAmount) = _calculateDeductAmount(_amount);\r\n\r\n        _burn(_from, burnAmount);\r\n        _transfer(_from, disPool, disAmount);\r\n        \r\n        transferAmount = _amount - burnAmount - disAmount;\r\n        emit Burn(_from, burnAmount);\r\n        return transferAmount; \r\n    }\r\n\r\n    function _calculateDeductAmount(uint256 _amount) internal view returns (uint256, uint256) {\r\n        uint256 burnAmount = 0;\r\n        uint256 disAmount = 0;\r\n\r\n        if (totalSupply() > minimumSupply) {\r\n            if (block.timestamp < taxStartDate) {\r\n                burnAmount = (_amount * burnPercent) / 10000;\r\n                disAmount = (_amount * disPercent) / 10000;\r\n                uint256 availableBurn = totalSupply() - minimumSupply;\r\n                if (burnAmount > availableBurn) {\r\n                    burnAmount = availableBurn;\r\n                }               \r\n            } else {\r\n                uint256 dynamicTaxReductionPercent = (block.timestamp - taxStartDate)/taxReductionDuration * dynamicTaxReduction;\r\n                if (dynamicTaxReductionPercent >= burnPercent) {\r\n                    burnAmount = 0;\r\n                } else {\r\n                    burnAmount = (_amount * (burnPercent - dynamicTaxReductionPercent)) / 10000;\r\n                }\r\n                if (dynamicTaxReductionPercent >= disPercent) {\r\n                    disAmount = 0;\r\n                } else {\r\n                    disAmount = (_amount * (disPercent - dynamicTaxReductionPercent)) / 10000;\r\n                }\r\n\r\n                uint256 availableBurn = totalSupply() - minimumSupply;\r\n                if (burnAmount > availableBurn) {\r\n                    burnAmount = availableBurn;\r\n                } \r\n            }\r\n        }\r\n        return (burnAmount, disAmount);\r\n    }\r\n\r\n    function totalBalanceOf(address _holder) public view returns (uint256) {\r\n        return _locks[_holder]+(balanceOf(_holder));\r\n    }\r\n\r\n    function lockOf(address _holder) public view returns (uint256) {\r\n        return _locks[_holder];\r\n    }\r\n\r\n    function lastUnlockBlock(address _holder) public view returns (uint256) {\r\n        return _lastUnlockBlock[_holder];\r\n    }\r\n\r\n    function lock(address _holder, uint256 _amount) public onlyAuthorized {\r\n        require(_holder != address(0), \"ERC20: lock to the zero address\");\r\n        require(_amount <= balanceOf(_holder), \"ERC20: lock amount over blance\");\r\n\r\n        _transfer(_holder, address(this), _amount);\r\n\r\n        _locks[_holder] = _locks[_holder]+(_amount);\r\n        _totalLock = _totalLock+(_amount);\r\n        if (_lastUnlockBlock[_holder] < lockFromBlock) {\r\n            _lastUnlockBlock[_holder] = lockFromBlock;\r\n        }\r\n        emit Lock(_holder, _amount);\r\n    }\r\n\r\n    function canUnlockAmount(address _holder) public view returns (uint256) {\r\n        if (block.number < lockFromBlock) {\r\n            return 0;\r\n        }\r\n        else if (block.number >= lockToBlock) {\r\n            return _locks[_holder];\r\n        }\r\n        else {\r\n            uint256 releaseBlock = block.number-(_lastUnlockBlock[_holder]);\r\n            uint256 numberLockBlock = lockToBlock-(_lastUnlockBlock[_holder]);\r\n            return _locks[_holder]*(releaseBlock)/(numberLockBlock);\r\n        }\r\n    }\r\n\r\n    function unlock() public {\r\n        require(_locks[msg.sender] > 0, \"ERC20: cannot unlock\");\r\n        \r\n        uint256 amount = canUnlockAmount(msg.sender);\r\n        // just for sure\r\n        if (amount > balanceOf(address(this))) {\r\n            amount = balanceOf(address(this));\r\n        }\r\n        _transfer(address(this), msg.sender, amount);\r\n        _locks[msg.sender] = _locks[msg.sender]-(amount);\r\n        _lastUnlockBlock[msg.sender] = block.number;\r\n        _totalLock = _totalLock-(amount);\r\n    }\r\n\r\n    // This function is for dev address migrate all balance to a multi sig address\r\n    function transferAll(address _to) public {\r\n        _locks[_to] = _locks[_to]+(_locks[msg.sender]);\r\n\r\n        if (_lastUnlockBlock[_to] < lockFromBlock) {\r\n            _lastUnlockBlock[_to] = lockFromBlock;\r\n        }\r\n\r\n        if (_lastUnlockBlock[_to] < _lastUnlockBlock[msg.sender]) {\r\n            _lastUnlockBlock[_to] = _lastUnlockBlock[msg.sender];\r\n        }\r\n\r\n        _locks[msg.sender] = 0;\r\n        _lastUnlockBlock[msg.sender] = 0;\r\n\r\n        _transfer(msg.sender, _to, balanceOf(msg.sender));\r\n    }\r\n\r\n    // Copied and modified from YAM code:\r\n    // https://github.com/yam-finance/yam-protocol/blob/master/contracts/token/YAMGovernanceStorage.sol\r\n    // https://github.com/yam-finance/yam-protocol/blob/master/contracts/token/YAMGovernance.sol\r\n    // Which is copied and modified from COMPOUND:\r\n    // https://github.com/compound-finance/compound-protocol/blob/master/contracts/Governance/Comp.sol\r\n\r\n    /// @dev A record of each accounts delegate\r\n    mapping (address => address) internal _delegates;\r\n\r\n    /// @notice A checkpoint for marking number of votes from a given block\r\n    struct Checkpoint {\r\n        uint32 fromBlock;\r\n        uint256 votes;\r\n    }\r\n\r\n    /// @notice A record of votes checkpoints for each account, by index\r\n    mapping (address => mapping (uint32 => Checkpoint)) public checkpoints;\r\n\r\n    /// @notice The number of checkpoints for each account\r\n    mapping (address => uint32) public numCheckpoints;\r\n\r\n    /// @notice The EIP-712 typehash for the contract's domain\r\n    bytes32 public constant DOMAIN_TYPEHASH = keccak256(\"EIP712Domain(string name,uint256 chainId,address verifyingContract)\");\r\n\r\n    /// @notice The EIP-712 typehash for the delegation struct used by the contract\r\n    bytes32 public constant DELEGATION_TYPEHASH = keccak256(\"Delegation(address delegatee,uint256 nonce,uint256 expiry)\");\r\n\r\n    /// @notice A record of states for signing / validating signatures\r\n    mapping (address => uint) public nonces;\r\n\r\n      /// @notice An event thats emitted when an account changes its delegate\r\n    event DelegateChanged(address indexed delegator, address indexed fromDelegate, address indexed toDelegate);\r\n\r\n    /// @notice An event thats emitted when a delegate account's vote balance changes\r\n    event DelegateVotesChanged(address indexed delegate, uint previousBalance, uint newBalance);\r\n\r\n    /**\r\n     * @notice Delegate votes from `msg.sender` to `delegatee`\r\n     * @param delegator The address to get delegatee for\r\n     */\r\n    function delegates(address delegator)\r\n        external\r\n        view\r\n        returns (address)\r\n    {\r\n        return _delegates[delegator];\r\n    }\r\n\r\n   /**\r\n    * @notice Delegate votes from `msg.sender` to `delegatee`\r\n    * @param delegatee The address to delegate votes to\r\n    */\r\n    function delegate(address delegatee) external {\r\n        return _delegate(msg.sender, delegatee);\r\n    }\r\n\r\n    /**\r\n     * @notice Delegates votes from signatory to `delegatee`\r\n     * @param delegatee The address to delegate votes to\r\n     * @param nonce The contract state required to match the signature\r\n     * @param expiry The time at which to expire the signature\r\n     * @param v The recovery byte of the signature\r\n     * @param r Half of the ECDSA signature pair\r\n     * @param s Half of the ECDSA signature pair\r\n     */\r\n    function delegateBySig(\r\n        address delegatee,\r\n        uint nonce,\r\n        uint expiry,\r\n        uint8 v,\r\n        bytes32 r,\r\n        bytes32 s\r\n    )\r\n        external\r\n    {\r\n        bytes32 domainSeparator = keccak256(\r\n            abi.encode(\r\n                DOMAIN_TYPEHASH,\r\n                keccak256(bytes(name())),\r\n                getChainId(),\r\n                address(this)\r\n            )\r\n        );\r\n\r\n        bytes32 structHash = keccak256(\r\n            abi.encode(\r\n                DELEGATION_TYPEHASH,\r\n                delegatee,\r\n                nonce,\r\n                expiry\r\n            )\r\n        );\r\n\r\n        bytes32 digest = keccak256(\r\n            abi.encodePacked(\r\n                \"\\x19\\x01\",\r\n                domainSeparator,\r\n                structHash\r\n            )\r\n        );\r\n\r\n        address signatory = ecrecover(digest, v, r, s);\r\n        require(signatory != address(0), \"BAVA::delegateBySig: invalid signature\");\r\n        require(nonce == nonces[signatory]++, \"BAVA::delegateBySig: invalid nonce\");\r\n        require(block.timestamp <= expiry, \"BAVA::delegateBySig: signature expired\");\r\n        return _delegate(signatory, delegatee);\r\n    }\r\n\r\n    /**\r\n     * @notice Gets the current votes balance for `account`\r\n     * @param account The address to get votes balance\r\n     * @return The number of current votes for `account`\r\n     */\r\n    function getCurrentVotes(address account)\r\n        external\r\n        view\r\n        returns (uint256)\r\n    {\r\n        uint32 nCheckpoints = numCheckpoints[account];\r\n        return nCheckpoints > 0 ? checkpoints[account][nCheckpoints - 1].votes : 0;\r\n    }\r\n\r\n    /**\r\n     * @notice Determine the prior number of votes for an account as of a block number\r\n     * @dev Block number must be a finalized block or else this function will revert to prevent misinformation.\r\n     * @param account The address of the account to check\r\n     * @param blockNumber The block number to get the vote balance at\r\n     * @return The number of votes the account had as of the given block\r\n     */\r\n    function getPriorVotes(address account, uint blockNumber)\r\n        external\r\n        view\r\n        returns (uint256)\r\n    {\r\n        require(blockNumber < block.number, \"BAVA::getPriorVotes: not yet determined\");\r\n\r\n        uint32 nCheckpoints = numCheckpoints[account];\r\n        if (nCheckpoints == 0) {\r\n            return 0;\r\n        }\r\n\r\n        // First check most recent balance\r\n        if (checkpoints[account][nCheckpoints - 1].fromBlock <= blockNumber) {\r\n            return checkpoints[account][nCheckpoints - 1].votes;\r\n        }\r\n\r\n        // Next check implicit zero balance\r\n        if (checkpoints[account][0].fromBlock > blockNumber) {\r\n            return 0;\r\n        }\r\n\r\n        uint32 lower = 0;\r\n        uint32 upper = nCheckpoints - 1;\r\n        while (upper > lower) {\r\n            uint32 center = upper - (upper - lower) / 2; // ceil, avoiding overflow\r\n            Checkpoint memory cp = checkpoints[account][center];\r\n            if (cp.fromBlock == blockNumber) {\r\n                return cp.votes;\r\n            } else if (cp.fromBlock < blockNumber) {\r\n                lower = center;\r\n            } else {\r\n                upper = center - 1;\r\n            }\r\n        }\r\n        return checkpoints[account][lower].votes;\r\n    }\r\n\r\n    function _delegate(address delegator, address delegatee)\r\n        internal\r\n    {\r\n        address currentDelegate = _delegates[delegator];\r\n        uint256 delegatorBalance = balanceOf(delegator);\r\n        _delegates[delegator] = delegatee;\r\n\r\n        emit DelegateChanged(delegator, currentDelegate, delegatee);\r\n\r\n        _moveDelegates(currentDelegate, delegatee, delegatorBalance);\r\n    }\r\n\r\n    function _moveDelegates(address srcRep, address dstRep, uint256 amount) internal {\r\n        if (srcRep != dstRep && amount > 0) {\r\n            if (srcRep != address(0)) {\r\n                // decrease old representative\r\n                uint32 srcRepNum = numCheckpoints[srcRep];\r\n                uint256 srcRepOld = srcRepNum > 0 ? checkpoints[srcRep][srcRepNum - 1].votes : 0;\r\n                uint256 srcRepNew = srcRepOld-(amount);\r\n                _writeCheckpoint(srcRep, srcRepNum, srcRepOld, srcRepNew);\r\n            }\r\n\r\n            if (dstRep != address(0)) {\r\n                // increase new representative\r\n                uint32 dstRepNum = numCheckpoints[dstRep];\r\n                uint256 dstRepOld = dstRepNum > 0 ? checkpoints[dstRep][dstRepNum - 1].votes : 0;\r\n                uint256 dstRepNew = dstRepOld+(amount);\r\n                _writeCheckpoint(dstRep, dstRepNum, dstRepOld, dstRepNew);\r\n            }\r\n        }\r\n    }\r\n\r\n    function _writeCheckpoint(\r\n        address delegatee,\r\n        uint32 nCheckpoints,\r\n        uint256 oldVotes,\r\n        uint256 newVotes\r\n    )\r\n        internal\r\n    {\r\n        uint32 blockNumber = safe32(block.number, \"BAVA::_writeCheckpoint: block number exceeds 32 bits\");\r\n\r\n        if (nCheckpoints > 0 && checkpoints[delegatee][nCheckpoints - 1].fromBlock == blockNumber) {\r\n            checkpoints[delegatee][nCheckpoints - 1].votes = newVotes;\r\n        } else {\r\n            checkpoints[delegatee][nCheckpoints] = Checkpoint(blockNumber, newVotes);\r\n            numCheckpoints[delegatee] = nCheckpoints + 1;\r\n        }\r\n\r\n        emit DelegateVotesChanged(delegatee, oldVotes, newVotes);\r\n    }\r\n\r\n    function safe32(uint n, string memory errorMessage) internal pure returns (uint32) {\r\n        require(n < 2**32, errorMessage);\r\n        return uint32(n);\r\n    }\r\n\r\n    function getChainId() internal view returns (uint) {\r\n        uint256 chainId;\r\n        assembly { chainId := chainid() }\r\n        return chainId;\r\n    }\r\n}",
  "sourcePath": "/Users/cheekeatlim/Desktop/Others Project/Baklava/bao2Finance_Testnet/src/contracts/BavaToken.sol",
  "compiler": {
    "name": "solc",
    "version": "0.8.7+commit.e28d00a7.Emscripten.clang"
  },
  "schemaVersion": "3.2.3",
  "updatedAt": "2022-02-24T11:14:36.166Z",
  "devdoc": {
    "kind": "dev",
    "methods": {
      "allowance(address,address)": {
        "details": "See {IERC20-allowance}."
      },
      "approve(address,uint256)": {
        "details": "See {IERC20-approve}. Requirements: - `spender` cannot be the zero address."
      },
      "balanceOf(address)": {
        "details": "See {IERC20-balanceOf}."
      },
      "cap()": {
        "details": "Returns the cap on the token's total supply."
      },
      "decimals()": {
        "details": "Returns the number of decimals used to get its user representation. For example, if `decimals` equals `2`, a balance of `505` tokens should be displayed to a user as `5,05` (`505 / 10 ** 2`). Tokens usually opt for a value of 18, imitating the relationship between Ether and Wei. This is the value {ERC20} uses, unless {_setupDecimals} is called. NOTE: This information is only used for _display_ purposes: it in no way affects any of the arithmetic of the contract, including {IERC20-balanceOf} and {IERC20-transfer}."
      },
      "decreaseAllowance(address,uint256)": {
        "details": "Atomically decreases the allowance granted to `spender` by the caller. This is an alternative to {approve} that can be used as a mitigation for problems described in {IERC20-approve}. Emits an {Approval} event indicating the updated allowance. Requirements: - `spender` cannot be the zero address. - `spender` must have allowance for the caller of at least `subtractedValue`."
      },
      "delegate(address)": {
        "params": {
          "delegatee": "The address to delegate votes to"
        }
      },
      "delegateBySig(address,uint256,uint256,uint8,bytes32,bytes32)": {
        "params": {
          "delegatee": "The address to delegate votes to",
          "expiry": "The time at which to expire the signature",
          "nonce": "The contract state required to match the signature",
          "r": "Half of the ECDSA signature pair",
          "s": "Half of the ECDSA signature pair",
          "v": "The recovery byte of the signature"
        }
      },
      "delegates(address)": {
        "params": {
          "delegator": "The address to get delegatee for"
        }
      },
      "getCurrentVotes(address)": {
        "params": {
          "account": "The address to get votes balance"
        },
        "returns": {
          "_0": "The number of current votes for `account`"
        }
      },
      "getPriorVotes(address,uint256)": {
        "details": "Block number must be a finalized block or else this function will revert to prevent misinformation.",
        "params": {
          "account": "The address of the account to check",
          "blockNumber": "The block number to get the vote balance at"
        },
        "returns": {
          "_0": "The number of votes the account had as of the given block"
        }
      },
      "increaseAllowance(address,uint256)": {
        "details": "Atomically increases the allowance granted to `spender` by the caller. This is an alternative to {approve} that can be used as a mitigation for problems described in {IERC20-approve}. Emits an {Approval} event indicating the updated allowance. Requirements: - `spender` cannot be the zero address."
      },
      "name()": {
        "details": "Returns the name of the token."
      },
      "owner()": {
        "details": "Returns the address of the current owner."
      },
      "previousOwner()": {
        "details": "Returns the address of the previous owner."
      },
      "renounceOwnership()": {
        "details": "Leaves the contract without owner. It will not be possible to call `onlyOwner` functions anymore. Can only be called by the current owner. NOTE: Renouncing ownership will leave the contract without an owner, thereby removing any functionality that is only available to the owner."
      },
      "symbol()": {
        "details": "Returns the symbol of the token, usually a shorter version of the name."
      },
      "totalSupply()": {
        "details": "See {IERC20-totalSupply}."
      },
      "transferOwnership(address)": {
        "details": "Transfers ownership of the contract to a new account (`newOwner`). Can only be called by the current owner."
      }
    },
    "stateVariables": {
      "_delegates": {
        "details": "A record of each accounts delegate"
      }
    },
    "version": 1
  },
  "userdoc": {
    "events": {
      "DelegateChanged(address,address,address)": {
        "notice": "An event thats emitted when an account changes its delegate"
      },
      "DelegateVotesChanged(address,uint256,uint256)": {
        "notice": "An event thats emitted when a delegate account's vote balance changes"
      }
    },
    "kind": "user",
    "methods": {
      "DELEGATION_TYPEHASH()": {
        "notice": "The EIP-712 typehash for the delegation struct used by the contract"
      },
      "DOMAIN_TYPEHASH()": {
        "notice": "The EIP-712 typehash for the contract's domain"
      },
      "checkpoints(address,uint32)": {
        "notice": "A record of votes checkpoints for each account, by index"
      },
      "delegate(address)": {
        "notice": "Delegate votes from `msg.sender` to `delegatee`"
      },
      "delegateBySig(address,uint256,uint256,uint8,bytes32,bytes32)": {
        "notice": "Delegates votes from signatory to `delegatee`"
      },
      "delegates(address)": {
        "notice": "Delegate votes from `msg.sender` to `delegatee`"
      },
      "getCurrentVotes(address)": {
        "notice": "Gets the current votes balance for `account`"
      },
      "getPriorVotes(address,uint256)": {
        "notice": "Determine the prior number of votes for an account as of a block number"
      },
      "mint(address,uint256)": {
        "notice": "Creates `_amount` token to `_to`. Must only be called by the owner (MasterChef)."
      },
      "nonces(address)": {
        "notice": "A record of states for signing / validating signatures"
      },
      "numCheckpoints(address)": {
        "notice": "The number of checkpoints for each account"
      }
    },
    "version": 1
  }
}