{
  "contractName": "BavaMasterFarmerV1",
  "abi": [
    {
      "inputs": [
        {
          "internalType": "contract IBavaToken",
          "name": "_IBava",
          "type": "address"
        },
        {
          "internalType": "address",
          "name": "_devaddr",
          "type": "address"
        },
        {
          "internalType": "address",
          "name": "_futureTreasuryaddr",
          "type": "address"
        },
        {
          "internalType": "address",
          "name": "_advisoraddr",
          "type": "address"
        },
        {
          "internalType": "address",
          "name": "_founderaddr",
          "type": "address"
        },
        {
          "internalType": "uint256",
          "name": "_userDepFee",
          "type": "uint256"
        },
        {
          "internalType": "uint256[]",
          "name": "_blockDeltaStartStage",
          "type": "uint256[]"
        },
        {
          "internalType": "uint256[]",
          "name": "_blockDeltaEndStage",
          "type": "uint256[]"
        },
        {
          "internalType": "uint256[]",
          "name": "_userFeeStage",
          "type": "uint256[]"
        }
      ],
      "stateMutability": "nonpayable",
      "type": "constructor"
    },
    {
      "anonymous": false,
      "inputs": [
        {
          "indexed": true,
          "internalType": "address",
          "name": "user",
          "type": "address"
        },
        {
          "indexed": true,
          "internalType": "uint256",
          "name": "pid",
          "type": "uint256"
        },
        {
          "indexed": false,
          "internalType": "uint256",
          "name": "amount",
          "type": "uint256"
        }
      ],
      "name": "Deposit",
      "type": "event"
    },
    {
      "anonymous": false,
      "inputs": [
        {
          "indexed": false,
          "internalType": "uint256",
          "name": "pid",
          "type": "uint256"
        },
        {
          "indexed": false,
          "internalType": "bool",
          "name": "newValue",
          "type": "bool"
        }
      ],
      "name": "DepositsEnabled",
      "type": "event"
    },
    {
      "anonymous": false,
      "inputs": [
        {
          "indexed": true,
          "internalType": "address",
          "name": "user",
          "type": "address"
        },
        {
          "indexed": true,
          "internalType": "uint256",
          "name": "pid",
          "type": "uint256"
        },
        {
          "indexed": false,
          "internalType": "uint256",
          "name": "amount",
          "type": "uint256"
        },
        {
          "indexed": false,
          "internalType": "uint256",
          "name": "devAmount",
          "type": "uint256"
        }
      ],
      "name": "EmergencyWithdraw",
      "type": "event"
    },
    {
      "anonymous": false,
      "inputs": [
        {
          "indexed": true,
          "internalType": "address",
          "name": "previousOwner",
          "type": "address"
        },
        {
          "indexed": true,
          "internalType": "address",
          "name": "newOwner",
          "type": "address"
        }
      ],
      "name": "OwnershipTransferred",
      "type": "event"
    },
    {
      "anonymous": false,
      "inputs": [
        {
          "indexed": true,
          "internalType": "address",
          "name": "user",
          "type": "address"
        },
        {
          "indexed": true,
          "internalType": "uint256",
          "name": "pid",
          "type": "uint256"
        },
        {
          "indexed": false,
          "internalType": "uint256",
          "name": "amount",
          "type": "uint256"
        },
        {
          "indexed": false,
          "internalType": "uint256",
          "name": "lockAmount",
          "type": "uint256"
        }
      ],
      "name": "SendBavaReward",
      "type": "event"
    },
    {
      "anonymous": false,
      "inputs": [
        {
          "indexed": true,
          "internalType": "address",
          "name": "user",
          "type": "address"
        },
        {
          "indexed": true,
          "internalType": "uint256",
          "name": "pid",
          "type": "uint256"
        },
        {
          "indexed": false,
          "internalType": "uint256",
          "name": "amount",
          "type": "uint256"
        }
      ],
      "name": "Withdraw",
      "type": "event"
    },
    {
      "inputs": [],
      "name": "Bava",
      "outputs": [
        {
          "internalType": "contract IBavaToken",
          "name": "",
          "type": "address"
        }
      ],
      "stateMutability": "view",
      "type": "function"
    },
    {
      "inputs": [],
      "name": "FINISH_BONUS_AT_BLOCK",
      "outputs": [
        {
          "internalType": "uint256",
          "name": "",
          "type": "uint256"
        }
      ],
      "stateMutability": "view",
      "type": "function"
    },
    {
      "inputs": [
        {
          "internalType": "uint256",
          "name": "",
          "type": "uint256"
        }
      ],
      "name": "HALVING_AT_BLOCK",
      "outputs": [
        {
          "internalType": "uint256",
          "name": "",
          "type": "uint256"
        }
      ],
      "stateMutability": "view",
      "type": "function"
    },
    {
      "inputs": [],
      "name": "PERCENT_FOR_ADR",
      "outputs": [
        {
          "internalType": "uint256",
          "name": "",
          "type": "uint256"
        }
      ],
      "stateMutability": "view",
      "type": "function"
    },
    {
      "inputs": [],
      "name": "PERCENT_FOR_DEV",
      "outputs": [
        {
          "internalType": "uint256",
          "name": "",
          "type": "uint256"
        }
      ],
      "stateMutability": "view",
      "type": "function"
    },
    {
      "inputs": [],
      "name": "PERCENT_FOR_FOUNDERS",
      "outputs": [
        {
          "internalType": "uint256",
          "name": "",
          "type": "uint256"
        }
      ],
      "stateMutability": "view",
      "type": "function"
    },
    {
      "inputs": [],
      "name": "PERCENT_FOR_FT",
      "outputs": [
        {
          "internalType": "uint256",
          "name": "",
          "type": "uint256"
        }
      ],
      "stateMutability": "view",
      "type": "function"
    },
    {
      "inputs": [],
      "name": "PERCENT_LOCK_BONUS_REWARD",
      "outputs": [
        {
          "internalType": "uint256",
          "name": "",
          "type": "uint256"
        }
      ],
      "stateMutability": "view",
      "type": "function"
    },
    {
      "inputs": [
        {
          "internalType": "uint256",
          "name": "",
          "type": "uint256"
        }
      ],
      "name": "REWARD_MULTIPLIER",
      "outputs": [
        {
          "internalType": "uint256",
          "name": "",
          "type": "uint256"
        }
      ],
      "stateMutability": "view",
      "type": "function"
    },
    {
      "inputs": [],
      "name": "REWARD_PER_BLOCK",
      "outputs": [
        {
          "internalType": "uint256",
          "name": "",
          "type": "uint256"
        }
      ],
      "stateMutability": "view",
      "type": "function"
    },
    {
      "inputs": [],
      "name": "START_BLOCK",
      "outputs": [
        {
          "internalType": "uint256",
          "name": "",
          "type": "uint256"
        }
      ],
      "stateMutability": "view",
      "type": "function"
    },
    {
      "inputs": [
        {
          "internalType": "address",
          "name": "_toAdd",
          "type": "address"
        }
      ],
      "name": "addAuthorized",
      "outputs": [],
      "stateMutability": "nonpayable",
      "type": "function"
    },
    {
      "inputs": [],
      "name": "advisoraddr",
      "outputs": [
        {
          "internalType": "address",
          "name": "",
          "type": "address"
        }
      ],
      "stateMutability": "view",
      "type": "function"
    },
    {
      "inputs": [
        {
          "internalType": "address",
          "name": "",
          "type": "address"
        }
      ],
      "name": "authorized",
      "outputs": [
        {
          "internalType": "bool",
          "name": "",
          "type": "bool"
        }
      ],
      "stateMutability": "view",
      "type": "function"
    },
    {
      "inputs": [
        {
          "internalType": "uint256",
          "name": "",
          "type": "uint256"
        }
      ],
      "name": "blockDeltaEndStage",
      "outputs": [
        {
          "internalType": "uint256",
          "name": "",
          "type": "uint256"
        }
      ],
      "stateMutability": "view",
      "type": "function"
    },
    {
      "inputs": [
        {
          "internalType": "uint256",
          "name": "",
          "type": "uint256"
        }
      ],
      "name": "blockDeltaStartStage",
      "outputs": [
        {
          "internalType": "uint256",
          "name": "",
          "type": "uint256"
        }
      ],
      "stateMutability": "view",
      "type": "function"
    },
    {
      "inputs": [],
      "name": "devaddr",
      "outputs": [
        {
          "internalType": "address",
          "name": "",
          "type": "address"
        }
      ],
      "stateMutability": "view",
      "type": "function"
    },
    {
      "inputs": [],
      "name": "founderaddr",
      "outputs": [
        {
          "internalType": "address",
          "name": "",
          "type": "address"
        }
      ],
      "stateMutability": "view",
      "type": "function"
    },
    {
      "inputs": [],
      "name": "futureTreasuryaddr",
      "outputs": [
        {
          "internalType": "address",
          "name": "",
          "type": "address"
        }
      ],
      "stateMutability": "view",
      "type": "function"
    },
    {
      "inputs": [],
      "name": "owner",
      "outputs": [
        {
          "internalType": "address",
          "name": "",
          "type": "address"
        }
      ],
      "stateMutability": "view",
      "type": "function"
    },
    {
      "inputs": [
        {
          "internalType": "address",
          "name": "",
          "type": "address"
        }
      ],
      "name": "poolId1",
      "outputs": [
        {
          "internalType": "uint256",
          "name": "",
          "type": "uint256"
        }
      ],
      "stateMutability": "view",
      "type": "function"
    },
    {
      "inputs": [
        {
          "internalType": "uint256",
          "name": "",
          "type": "uint256"
        }
      ],
      "name": "poolInfo",
      "outputs": [
        {
          "internalType": "contract IERC20",
          "name": "lpToken",
          "type": "address"
        },
        {
          "internalType": "uint256",
          "name": "allocPoint",
          "type": "uint256"
        },
        {
          "internalType": "uint256",
          "name": "lastRewardBlock",
          "type": "uint256"
        },
        {
          "internalType": "uint256",
          "name": "accBavaPerShare",
          "type": "uint256"
        },
        {
          "internalType": "uint256",
          "name": "depositAmount",
          "type": "uint256"
        },
        {
          "internalType": "bool",
          "name": "deposits_enabled",
          "type": "bool"
        }
      ],
      "stateMutability": "view",
      "type": "function"
    },
    {
      "inputs": [],
      "name": "previousOwner",
      "outputs": [
        {
          "internalType": "address",
          "name": "",
          "type": "address"
        }
      ],
      "stateMutability": "view",
      "type": "function"
    },
    {
      "inputs": [
        {
          "internalType": "address",
          "name": "_toRemove",
          "type": "address"
        }
      ],
      "name": "removeAuthorized",
      "outputs": [],
      "stateMutability": "nonpayable",
      "type": "function"
    },
    {
      "inputs": [],
      "name": "renounceOwnership",
      "outputs": [],
      "stateMutability": "nonpayable",
      "type": "function"
    },
    {
      "inputs": [],
      "name": "totalAllocPoint",
      "outputs": [
        {
          "internalType": "uint256",
          "name": "",
          "type": "uint256"
        }
      ],
      "stateMutability": "view",
      "type": "function"
    },
    {
      "inputs": [
        {
          "internalType": "address",
          "name": "newOwner",
          "type": "address"
        }
      ],
      "name": "transferOwnership",
      "outputs": [],
      "stateMutability": "nonpayable",
      "type": "function"
    },
    {
      "inputs": [],
      "name": "usdOracle",
      "outputs": [
        {
          "internalType": "address",
          "name": "",
          "type": "address"
        }
      ],
      "stateMutability": "view",
      "type": "function"
    },
    {
      "inputs": [],
      "name": "userDepFee",
      "outputs": [
        {
          "internalType": "uint256",
          "name": "",
          "type": "uint256"
        }
      ],
      "stateMutability": "view",
      "type": "function"
    },
    {
      "inputs": [
        {
          "internalType": "uint256",
          "name": "",
          "type": "uint256"
        }
      ],
      "name": "userFeeStage",
      "outputs": [
        {
          "internalType": "uint256",
          "name": "",
          "type": "uint256"
        }
      ],
      "stateMutability": "view",
      "type": "function"
    },
    {
      "inputs": [
        {
          "internalType": "uint256",
          "name": "",
          "type": "uint256"
        },
        {
          "internalType": "address",
          "name": "",
          "type": "address"
        }
      ],
      "name": "userInfo",
      "outputs": [
        {
          "internalType": "uint256",
          "name": "amount",
          "type": "uint256"
        },
        {
          "internalType": "uint256",
          "name": "rewardDebt",
          "type": "uint256"
        },
        {
          "internalType": "uint256",
          "name": "rewardDebtAtBlock",
          "type": "uint256"
        },
        {
          "internalType": "uint256",
          "name": "lastWithdrawBlock",
          "type": "uint256"
        },
        {
          "internalType": "uint256",
          "name": "firstDepositBlock",
          "type": "uint256"
        },
        {
          "internalType": "uint256",
          "name": "blockdelta",
          "type": "uint256"
        },
        {
          "internalType": "uint256",
          "name": "lastDepositBlock",
          "type": "uint256"
        }
      ],
      "stateMutability": "view",
      "type": "function"
    },
    {
      "inputs": [
        {
          "internalType": "uint256",
          "name": "_rewardPerBlock",
          "type": "uint256"
        },
        {
          "internalType": "uint256",
          "name": "_startBlock",
          "type": "uint256"
        },
        {
          "internalType": "uint256",
          "name": "_halvingAfterBlock",
          "type": "uint256"
        }
      ],
      "name": "initPool",
      "outputs": [],
      "stateMutability": "nonpayable",
      "type": "function"
    },
    {
      "inputs": [
        {
          "internalType": "uint256",
          "name": "_allocPoint",
          "type": "uint256"
        },
        {
          "internalType": "contract IERC20",
          "name": "_lpToken",
          "type": "address"
        },
        {
          "internalType": "bool",
          "name": "_withUpdate",
          "type": "bool"
        }
      ],
      "name": "add",
      "outputs": [],
      "stateMutability": "nonpayable",
      "type": "function"
    },
    {
      "inputs": [
        {
          "internalType": "uint256",
          "name": "_pid",
          "type": "uint256"
        },
        {
          "internalType": "contract IERC20",
          "name": "_lpToken",
          "type": "address"
        },
        {
          "internalType": "uint256",
          "name": "_allocPoint",
          "type": "uint256"
        },
        {
          "internalType": "bool",
          "name": "_withUpdate",
          "type": "bool"
        }
      ],
      "name": "set",
      "outputs": [],
      "stateMutability": "nonpayable",
      "type": "function"
    },
    {
      "inputs": [],
      "name": "massUpdatePools",
      "outputs": [],
      "stateMutability": "nonpayable",
      "type": "function"
    },
    {
      "inputs": [
        {
          "internalType": "uint256",
          "name": "_pid",
          "type": "uint256"
        }
      ],
      "name": "updatePool",
      "outputs": [],
      "stateMutability": "nonpayable",
      "type": "function"
    },
    {
      "inputs": [
        {
          "internalType": "uint256",
          "name": "_from",
          "type": "uint256"
        },
        {
          "internalType": "uint256",
          "name": "_to",
          "type": "uint256"
        }
      ],
      "name": "getMultiplier",
      "outputs": [
        {
          "internalType": "uint256",
          "name": "",
          "type": "uint256"
        }
      ],
      "stateMutability": "view",
      "type": "function"
    },
    {
      "inputs": [
        {
          "internalType": "uint256",
          "name": "_from",
          "type": "uint256"
        },
        {
          "internalType": "uint256",
          "name": "_to",
          "type": "uint256"
        },
        {
          "internalType": "uint256",
          "name": "_allocPoint",
          "type": "uint256"
        }
      ],
      "name": "getPoolReward",
      "outputs": [
        {
          "internalType": "uint256",
          "name": "forDev",
          "type": "uint256"
        },
        {
          "internalType": "uint256",
          "name": "forFarmer",
          "type": "uint256"
        },
        {
          "internalType": "uint256",
          "name": "forFT",
          "type": "uint256"
        },
        {
          "internalType": "uint256",
          "name": "forAdr",
          "type": "uint256"
        },
        {
          "internalType": "uint256",
          "name": "forFounders",
          "type": "uint256"
        }
      ],
      "stateMutability": "view",
      "type": "function"
    },
    {
      "inputs": [
        {
          "internalType": "uint256",
          "name": "_pid",
          "type": "uint256"
        }
      ],
      "name": "claimReward",
      "outputs": [],
      "stateMutability": "nonpayable",
      "type": "function"
    },
    {
      "inputs": [
        {
          "internalType": "uint256",
          "name": "_pid",
          "type": "uint256"
        },
        {
          "internalType": "uint256",
          "name": "_amount",
          "type": "uint256"
        }
      ],
      "name": "deposit",
      "outputs": [],
      "stateMutability": "nonpayable",
      "type": "function"
    },
    {
      "inputs": [
        {
          "internalType": "uint256",
          "name": "_pid",
          "type": "uint256"
        },
        {
          "internalType": "uint256",
          "name": "_amount",
          "type": "uint256"
        }
      ],
      "name": "withdraw",
      "outputs": [],
      "stateMutability": "nonpayable",
      "type": "function"
    },
    {
      "inputs": [
        {
          "internalType": "uint256",
          "name": "_pid",
          "type": "uint256"
        }
      ],
      "name": "emergencyWithdraw",
      "outputs": [],
      "stateMutability": "nonpayable",
      "type": "function"
    },
    {
      "inputs": [
        {
          "internalType": "uint256",
          "name": "_pid",
          "type": "uint256"
        },
        {
          "internalType": "bool",
          "name": "newValue",
          "type": "bool"
        }
      ],
      "name": "updateDepositsEnabled",
      "outputs": [],
      "stateMutability": "nonpayable",
      "type": "function"
    },
    {
      "inputs": [
        {
          "internalType": "address",
          "name": "token",
          "type": "address"
        },
        {
          "internalType": "uint256",
          "name": "amount",
          "type": "uint256"
        },
        {
          "internalType": "address",
          "name": "_to",
          "type": "address"
        }
      ],
      "name": "rescueDeployedFunds",
      "outputs": [],
      "stateMutability": "nonpayable",
      "type": "function"
    },
    {
      "inputs": [
        {
          "internalType": "address",
          "name": "_devaddr",
          "type": "address"
        },
        {
          "internalType": "address",
          "name": "_newFT",
          "type": "address"
        },
        {
          "internalType": "address",
          "name": "_newAdr",
          "type": "address"
        },
        {
          "internalType": "address",
          "name": "_newFounder",
          "type": "address"
        }
      ],
      "name": "addrUpdate",
      "outputs": [],
      "stateMutability": "nonpayable",
      "type": "function"
    },
    {
      "inputs": [
        {
          "internalType": "uint256",
          "name": "_newlock",
          "type": "uint256"
        },
        {
          "internalType": "uint256",
          "name": "_newdev",
          "type": "uint256"
        },
        {
          "internalType": "uint256",
          "name": "_newft",
          "type": "uint256"
        },
        {
          "internalType": "uint256",
          "name": "_newadr",
          "type": "uint256"
        },
        {
          "internalType": "uint256",
          "name": "_newfounder",
          "type": "uint256"
        }
      ],
      "name": "percentUpdate",
      "outputs": [],
      "stateMutability": "nonpayable",
      "type": "function"
    },
    {
      "inputs": [
        {
          "internalType": "uint256",
          "name": "_newFinish",
          "type": "uint256"
        }
      ],
      "name": "bonusFinishUpdate",
      "outputs": [],
      "stateMutability": "nonpayable",
      "type": "function"
    },
    {
      "inputs": [
        {
          "internalType": "uint256[]",
          "name": "_newHalving",
          "type": "uint256[]"
        }
      ],
      "name": "halvingUpdate",
      "outputs": [],
      "stateMutability": "nonpayable",
      "type": "function"
    },
    {
      "inputs": [
        {
          "internalType": "uint256",
          "name": "_newReward",
          "type": "uint256"
        }
      ],
      "name": "rewardUpdate",
      "outputs": [],
      "stateMutability": "nonpayable",
      "type": "function"
    },
    {
      "inputs": [
        {
          "internalType": "uint256[]",
          "name": "_newMulReward",
          "type": "uint256[]"
        }
      ],
      "name": "rewardMulUpdate",
      "outputs": [],
      "stateMutability": "nonpayable",
      "type": "function"
    },
    {
      "inputs": [
        {
          "internalType": "uint256",
          "name": "_newstarblock",
          "type": "uint256"
        }
      ],
      "name": "starblockUpdate",
      "outputs": [],
      "stateMutability": "nonpayable",
      "type": "function"
    },
    {
      "inputs": [
        {
          "internalType": "uint256[]",
          "name": "_blockStarts",
          "type": "uint256[]"
        }
      ],
      "name": "setStageStarts",
      "outputs": [],
      "stateMutability": "nonpayable",
      "type": "function"
    },
    {
      "inputs": [
        {
          "internalType": "uint256[]",
          "name": "_blockEnds",
          "type": "uint256[]"
        }
      ],
      "name": "setStageEnds",
      "outputs": [],
      "stateMutability": "nonpayable",
      "type": "function"
    },
    {
      "inputs": [
        {
          "internalType": "uint256[]",
          "name": "_userFees",
          "type": "uint256[]"
        }
      ],
      "name": "setUserFeeStage",
      "outputs": [],
      "stateMutability": "nonpayable",
      "type": "function"
    },
    {
      "inputs": [
        {
          "internalType": "uint256",
          "name": "_usrDepFees",
          "type": "uint256"
        }
      ],
      "name": "setDevDepFee",
      "outputs": [],
      "stateMutability": "nonpayable",
      "type": "function"
    },
    {
      "inputs": [
        {
          "internalType": "uint256",
          "name": "_pid",
          "type": "uint256"
        },
        {
          "internalType": "address",
          "name": "_user",
          "type": "address"
        },
        {
          "internalType": "uint256",
          "name": "_block",
          "type": "uint256"
        }
      ],
      "name": "reviseWithdraw",
      "outputs": [],
      "stateMutability": "nonpayable",
      "type": "function"
    },
    {
      "inputs": [
        {
          "internalType": "uint256",
          "name": "_pid",
          "type": "uint256"
        },
        {
          "internalType": "address",
          "name": "_user",
          "type": "address"
        },
        {
          "internalType": "uint256",
          "name": "_block",
          "type": "uint256"
        }
      ],
      "name": "reviseDeposit",
      "outputs": [],
      "stateMutability": "nonpayable",
      "type": "function"
    },
    {
      "inputs": [],
      "name": "poolLength",
      "outputs": [
        {
          "internalType": "uint256",
          "name": "",
          "type": "uint256"
        }
      ],
      "stateMutability": "view",
      "type": "function"
    },
    {
      "inputs": [
        {
          "internalType": "uint256",
          "name": "_pid",
          "type": "uint256"
        },
        {
          "internalType": "address",
          "name": "_user",
          "type": "address"
        }
      ],
      "name": "pendingReward",
      "outputs": [
        {
          "internalType": "uint256",
          "name": "",
          "type": "uint256"
        }
      ],
      "stateMutability": "view",
      "type": "function"
    }
  ],
  "bytecode": "0x60806040526000601a553480156200001657600080fd5b50604051620037da380380620037da833981016040819052620000399162000254565b600080546001600160a01b031916339081178255604051909182917f8be0079c531659141344cd1fd0a4f28419497f9722a3daafe3b4186f6b6457e0908290a350600380546001600160a01b03199081166001600160a01b038c8116919091179092556005805482168b84161790556006805482168a84161790556007805482168984161790556008805490911691871691909117905560108490558251620000ea90600c90602086019062000126565b5081516200010090600d90602085019062000126565b5080516200011690600e90602084019062000126565b5050505050505050505062000364565b82805482825590600052602060002090810192821562000164579160200282015b828111156200016457825182559160200191906001019062000147565b506200017292915062000176565b5090565b5b8082111562000172576000815560010162000177565b80516001600160a01b0381168114620001a557600080fd5b919050565b600082601f830112620001bc57600080fd5b815160206001600160401b0380831115620001db57620001db6200034e565b8260051b604051601f19603f830116810181811084821117156200020357620002036200034e565b604052848152838101925086840182880185018910156200022357600080fd5b600092505b858310156200024857805184529284019260019290920191840162000228565b50979650505050505050565b60008060008060008060008060006101208a8c0312156200027457600080fd5b6200027f8a6200018d565b98506200028f60208b016200018d565b97506200029f60408b016200018d565b9650620002af60608b016200018d565b9550620002bf60808b016200018d565b60a08b015160c08c015191965094506001600160401b0380821115620002e457600080fd5b620002f28d838e01620001aa565b945060e08c01519150808211156200030957600080fd5b620003178d838e01620001aa565b93506101008c01519150808211156200032f57600080fd5b506200033e8c828d01620001aa565b9150509295985092959850929598565b634e487b7160e01b600052604160045260246000fd5b61346680620003746000396000f3fe608060405234801561001057600080fd5b50600436106103195760003560e01c806382386d58116101a9578063c6929e53116100ef578063d1ae7d701161009d578063d1ae7d701461078a578063d49e77cd1461079d578063e2bbb158146107b0578063eb196895146107c3578063ec12173d146107d6578063ed9bdeda146107e9578063f2fde38b146107f2578063fb0754331461080557600080fd5b8063c6929e53146106da578063c8a4271f146106e3578063c8ed7680146106f6578063cb0b8ca114610731578063ce2529c914610744578063cf1c316a14610764578063d007db291461077757600080fd5b806393f1a40b1161015757806393f1a40b146105c157806395fdf25814610653578063975532dc1461065c578063980c2a981461066557806398969e821461066e578063a263c20e14610681578063ae169a5014610694578063b9181611146106a757600080fd5b806382386d581461055b57806382796e981461056e578063847bdaa41461057757806385ee2a7f1461058a5780638da5cb5b146105935780638dbb1e3a1461059b57806391fd81c5146105ae57600080fd5b8063354affb71161026e5780634af0e3e11161021c5780634af0e3e1146104db57806351eb05a6146104ee5780635312ea8e146105015780636066debd146105145780636245f08414610527578063630b5ba11461053a578063674f220f14610542578063715018a61461055357600080fd5b8063354affb71461046057806339b3e826146104735780633d479cd51461047c5780634179b4fb1461048f578063441a3e70146104a257806346664064146104b5578063485d7d94146104c857600080fd5b80631eaaa045116102cb5780631eaaa045146103e55780631f84593e146103f8578063245b211d1461040157806324b95c3e146104145780632a7b0107146104275780632fda77351461043a5780633273ed761461044d57600080fd5b8063077e2e371461031e578063081e3eda146103335780630ce4c9221461034a57806313bb3c331461035d5780631526fe271461037d57806317caf6f1146103c95780631e0872d7146103d2575b600080fd5b61033161032c366004612f55565b610818565b005b6017545b6040519081526020015b60405180910390f35b6103316103583660046131d0565b6108b5565b600354610370906001600160a01b031681565b6040516103419190613253565b61039061038b366004613079565b6109d0565b604080516001600160a01b03909716875260208701959095529385019290925260608401526080830152151560a082015260c001610341565b610337601a5481565b600754610370906001600160a01b031681565b6103316103f3366004613138565b610a23565b61033760145481565b61033161040f366004613079565b610c4f565b610331610422366004613079565b610c8a565b610331610435366004612f97565b610cc5565b610337610448366004613079565b610d12565b61033161045b366004612ef9565b610d33565b61033161046e366004612f97565b610db9565b61033760115481565b61033161048a366004613079565b610e02565b61033761049d366004613079565b610e3d565b6103316104b03660046131ae565b610e4d565b6103316104c3366004612f97565b611467565b6103316104d6366004612edc565b6114b0565b6103316104e9366004612f97565b611511565b6103316104fc366004613079565b61155a565b61033161050f366004613079565b611aa2565b6103316105223660046130db565b611c5b565b610337610535366004613079565b611cba565b610331611cca565b6001546001600160a01b0316610370565b610331611cf1565b6103316105693660046130db565b611d65565b61033760105481565b610331610585366004612f97565b611dc4565b61033760155481565b610370611e0d565b6103376105a93660046131ae565b611e1c565b6103316105bc3660046131fc565b611f28565b61061e6105cf3660046130ab565b6019602052816000526040600020602052806000526040600020600091509150508060000154908060010154908060020154908060030154908060040154908060050154908060060154905087565b604080519788526020880196909652948601939093526060850191909152608084015260a083015260c082015260e001610341565b61033760125481565b61033760095481565b610337600f5481565b61033761067c3660046130ab565b611f75565b61033161068f36600461316f565b6120d7565b6103316106a2366004613079565b6121c3565b6106ca6106b5366004612edc565b60026020526000908152604090205460ff1681565b6040519015158152602001610341565b61033760165481565b600454610370906001600160a01b031681565b6107096107043660046131d0565b6121d8565b604080519586526020860194909452928401919091526060830152608082015260a001610341565b61033761073f366004613079565b6123d8565b610337610752366004612edc565b60186020526000908152604090205481565b610331610772366004612edc565b6123e8565b610337610785366004613079565b612436565b600654610370906001600160a01b031681565b600554610370906001600160a01b031681565b6103316107be3660046131ae565b612446565b6103316107d1366004613113565b612679565b600854610370906001600160a01b031681565b61033760135481565b610331610800366004612edc565b612736565b610331610813366004613079565b612820565b6000546001600160a01b0316331461084b5760405162461bcd60e51b8152600401610842906132df565b60405180910390fd5b6001600160a01b03811661089c5760405162461bcd60e51b815260206004820152601860248201527773656e6420746f20746865207a65726f206164647265737360401b6044820152606401610842565b6108b06001600160a01b038416828461285b565b505050565b6000546001600160a01b031633146108df5760405162461bcd60e51b8152600401610842906132df565b6009839055601182905560005b600a546108fb9060019061336d565b81101561096a57600083610910836001613314565b61091a908561334e565b6109249190613314565b600b80546001810182556000919091527f0175b7a638427703f0dbe7bb9bbf987a2551717b34e79f33b5b1008d1fa01db901555080610962816133b0565b9150506108ec565b50600a54829061097c9060019061336d565b610986908361334e565b6109909190613314565b600f555050600b80546001810182556000919091526000197f0175b7a638427703f0dbe7bb9bbf987a2551717b34e79f33b5b1008d1fa01db99091015550565b601781815481106109e057600080fd5b60009182526020909120600690910201805460018201546002830154600384015460048501546005909501546001600160a01b0390941695509193909260ff1686565b6000546001600160a01b03163314610a4d5760405162461bcd60e51b8152600401610842906132df565b6001600160a01b03821660009081526018602052604090205415610aa35760405162461bcd60e51b815260206004820152600d60248201526c1b1c081a5cc81a5b881c1bdbdb609a1b6044820152606401610842565b8015610ab157610ab1611cca565b60006011544311610ac457601154610ac6565b435b905083601a54610ad69190613314565b601a55601754610ae7906001613314565b6001600160a01b03938416600081815260186020908152604080832094909455835160c08101855292835282019687529181019283526060810182815260808201838152600160a0840181815260178054928301815590955292517fc624b66cc0138b8fabc209247f72d758e1cf3343756d543badbf24212bed8c15600690940293840180546001600160a01b031916919098161790965595517fc624b66cc0138b8fabc209247f72d758e1cf3343756d543badbf24212bed8c1682015591517fc624b66cc0138b8fabc209247f72d758e1cf3343756d543badbf24212bed8c1783015593517fc624b66cc0138b8fabc209247f72d758e1cf3343756d543badbf24212bed8c1882015591517fc624b66cc0138b8fabc209247f72d758e1cf3343756d543badbf24212bed8c198301555090517fc624b66cc0138b8fabc209247f72d758e1cf3343756d543badbf24212bed8c1a909101805460ff1916911515919091179055565b3360009081526002602052604090205460ff1680610c7c575033610c71611e0d565b6001600160a01b0316145b610c8557600080fd5b600f55565b3360009081526002602052604090205460ff1680610cb7575033610cac611e0d565b6001600160a01b0316145b610cc057600080fd5b601155565b3360009081526002602052604090205460ff1680610cf2575033610ce7611e0d565b6001600160a01b0316145b610cfb57600080fd5b8051610d0e90600e906020840190612e7c565b5050565b600a8181548110610d2257600080fd5b600091825260209091200154905081565b3360009081526002602052604090205460ff1680610d60575033610d55611e0d565b6001600160a01b0316145b610d6957600080fd5b600580546001600160a01b039586166001600160a01b0319918216179091556006805494861694821694909417909355600780549285169284169290921790915560088054919093169116179055565b3360009081526002602052604090205460ff1680610de6575033610ddb611e0d565b6001600160a01b0316145b610def57600080fd5b8051610d0e90600b906020840190612e7c565b3360009081526002602052604090205460ff1680610e2f575033610e24611e0d565b6001600160a01b0316145b610e3857600080fd5b600955565b600b8181548110610d2257600080fd5b600060178381548110610e6257610e626133e1565b60009182526020808320868452601982526040808520338652909252818420600690930201805491516370a0823160e01b81529094509192916001600160a01b0391909116906370a0823190610ebc903090600401613253565b60206040518083038186803b158015610ed457600080fd5b505afa158015610ee8573d6000803e3d6000fd5b505050506040513d601f19601f82011682018060405250810190610f0c9190613092565b905083811015610f2e5760405162461bcd60e51b8152600401610842906132b3565b8154841115610f725760405162461bcd60e51b815260206004820152601060248201526f7769746864726177203e207374616b6560801b6044820152606401610842565b610f7b8561155a565b610f84856128b1565b8315611460578154610f9790859061336d565b8255600382015415610fbc576003820154610fb2904361336d565b6005830155610fd1565b6004820154610fcb904361336d565b60058301555b600c600081548110610fe557610fe56133e1565b9060005260206000200154826005015414806110045750816006015443145b156110a45760006064600e600081548110611021576110216133e1565b906000526020600020015486611037919061334e565b611041919061332c565b905084846004016000828254611057919061336d565b90915550508354611072906001600160a01b0316338361285b565b60055461109e906001600160a01b031661108c838861336d565b86546001600160a01b0316919061285b565b506113fc565b600c6001815481106110b8576110b86133e1565b90600052602060002001548260050154101580156110f85750600d6000815481106110e5576110e56133e1565b9060005260206000200154826005015411155b156111155760006064600e600181548110611021576110216133e1565b600c600281548110611129576111296133e1565b90600052602060002001548260050154101580156111695750600d600181548110611156576111566133e1565b9060005260206000200154826005015411155b156111865760006064600e600281548110611021576110216133e1565b600c60038154811061119a5761119a6133e1565b90600052602060002001548260050154101580156111da5750600d6002815481106111c7576111c76133e1565b9060005260206000200154826005015411155b156111f75760006064600e600381548110611021576110216133e1565b600c60048154811061120b5761120b6133e1565b906000526020600020015482600501541015801561124b5750600d600381548110611238576112386133e1565b9060005260206000200154826005015411155b156112685760006064600e600481548110611021576110216133e1565b600c60058154811061127c5761127c6133e1565b90600052602060002001548260050154101580156112bc5750600d6004815481106112a9576112a96133e1565b9060005260206000200154826005015411155b156112da5760006103e8600e600581548110611021576110216133e1565b600c6006815481106112ee576112ee6133e1565b906000526020600020015482600501541015801561132e5750600d60058154811061131b5761131b6133e1565b9060005260206000200154826005015411155b1561134c576000612710600e600681548110611021576110216133e1565b600c600781548110611360576113606133e1565b9060005260206000200154826005015411156113fc576000612710600e60078154811061138f5761138f6133e1565b9060005260206000200154866113a5919061334e565b6113af919061332c565b9050848460040160008282546113c5919061336d565b909155505083546113e0906001600160a01b0316338361285b565b6005546113fa906001600160a01b031661108c838861336d565b505b6003830154825464e8d4a51000916114139161334e565b61141d919061332c565b6001830155604051848152859033907ff279e6a1f5e320cca91135676d9cb6e44ca8a08c0b88342bcdb1144f6511b5689060200160405180910390a34360038301555b5050505050565b3360009081526002602052604090205460ff1680611494575033611489611e0d565b6001600160a01b0316145b61149d57600080fd5b8051610d0e90600a906020840190612e7c565b6000546001600160a01b031633146114da5760405162461bcd60e51b8152600401610842906132df565b6001600160a01b0381163314156114f057600080fd5b6001600160a01b03166000908152600260205260409020805460ff19169055565b3360009081526002602052604090205460ff168061153e575033611533611e0d565b6001600160a01b0316145b61154757600080fd5b8051610d0e90600d906020840190612e7c565b60006017828154811061156f5761156f6133e1565b906000526020600020906006020190508060020154431161158e575050565b80546040516370a0823160e01b81526000916001600160a01b0316906370a08231906115be903090600401613253565b60206040518083038186803b1580156115d657600080fd5b505afa1580156115ea573d6000803e3d6000fd5b505050506040513d601f19601f8201168201806040525081019061160e9190613092565b90508061162057504360029091015550565b600080600080600061163b87600201544389600101546121d8565b6003546040516340c10f1960e01b8152959a50939850919650945092506001600160a01b0316906340c10f19906116789030908890600401613267565b600060405180830381600087803b15801561169257600080fd5b505af11580156116a6573d6000803e3d6000fd5b50505050858464e8d4a510006116bc919061334e565b6116c6919061332c565b87600301546116d59190613314565b600388015543600288015584156117ce576003546005546040516340c10f1960e01b81526001600160a01b03928316926340c10f199261171c929116908990600401613267565b600060405180830381600087803b15801561173657600080fd5b505af115801561174a573d6000803e3d6000fd5b50506003546005546001600160a01b03918216935063282d3fdf925016606461177489604b61334e565b61177e919061332c565b6040518363ffffffff1660e01b815260040161179b929190613267565b600060405180830381600087803b1580156117b557600080fd5b505af11580156117c9573d6000803e3d6000fd5b505050505b82156118bc576003546006546040516340c10f1960e01b81526001600160a01b03928316926340c10f199261180a929116908790600401613267565b600060405180830381600087803b15801561182457600080fd5b505af1158015611838573d6000803e3d6000fd5b50506003546006546001600160a01b03918216935063282d3fdf925016606461186287602d61334e565b61186c919061332c565b6040518363ffffffff1660e01b8152600401611889929190613267565b600060405180830381600087803b1580156118a357600080fd5b505af11580156118b7573d6000803e3d6000fd5b505050505b81156119aa576003546007546040516340c10f1960e01b81526001600160a01b03928316926340c10f19926118f8929116908690600401613267565b600060405180830381600087803b15801561191257600080fd5b505af1158015611926573d6000803e3d6000fd5b50506003546007546001600160a01b03918216935063282d3fdf925016606461195086605561334e565b61195a919061332c565b6040518363ffffffff1660e01b8152600401611977929190613267565b600060405180830381600087803b15801561199157600080fd5b505af11580156119a5573d6000803e3d6000fd5b505050505b8015611a98576003546008546040516340c10f1960e01b81526001600160a01b03928316926340c10f19926119e6929116908590600401613267565b600060405180830381600087803b158015611a0057600080fd5b505af1158015611a14573d6000803e3d6000fd5b50506003546008546001600160a01b03918216935063282d3fdf9250166064611a3e85605f61334e565b611a48919061332c565b6040518363ffffffff1660e01b8152600401611a65929190613267565b600060405180830381600087803b158015611a7f57600080fd5b505af1158015611a93573d6000803e3d6000fd5b505050505b5050505050505050565b600060178281548110611ab757611ab76133e1565b60009182526020808320858452601982526040808520338652909252818420600690930201805491516370a0823160e01b81529094509192916001600160a01b0391909116906370a0823190611b11903090600401613253565b60206040518083038186803b158015611b2957600080fd5b505afa158015611b3d573d6000803e3d6000fd5b505050506040513d601f19601f82011682018060405250810190611b619190613092565b8254909150811015611b855760405162461bcd60e51b8152600401610842906132b3565b8154600090606490611b9890604b61334e565b611ba2919061332c565b90506000818460000154611bb6919061336d565b6000808655600186015560048601549091508190611bd590849061336d565b611bdf919061336d565b60048601558454611bfa906001600160a01b0316338461285b565b6005548554611c16916001600160a01b0391821691168361285b565b6040805183815260208101839052879133917f2369db1bafee945aee5630782f4a170682e3f8188d8dc247a4c73eb8c9e692d2910160405180910390a3505050505050565b3360009081526002602052604090205460ff1680611c88575033611c7d611e0d565b6001600160a01b0316145b611c9157600080fd5b60009283526019602090815260408085206001600160a01b039094168552929052912060030155565b600c8181548110610d2257600080fd5b60175460005b81811015610d0e57611ce18161155a565b611cea816133b0565b9050611cd0565b6000546001600160a01b03163314611d1b5760405162461bcd60e51b8152600401610842906132df565b600080546040516001600160a01b03909116907f8be0079c531659141344cd1fd0a4f28419497f9722a3daafe3b4186f6b6457e0908390a3600080546001600160a01b0319169055565b3360009081526002602052604090205460ff1680611d92575033611d87611e0d565b6001600160a01b0316145b611d9b57600080fd5b60009283526019602090815260408085206001600160a01b039094168552929052912060040155565b3360009081526002602052604090205460ff1680611df1575033611de6611e0d565b6001600160a01b0316145b611dfa57600080fd5b8051610d0e90600c906020840190612e7c565b6000546001600160a01b031690565b6011546000908190841015611e35576000915050611f22565b60005b600b54811015611f1e576000600b8281548110611e5757611e576133e1565b90600052602060002001549050808511611eb8576000600a8381548110611e8057611e806133e1565b90600052602060002001548787611e97919061336d565b611ea1919061334e565b9050611ead8185613314565b945050505050611f22565b80861015611f0b576000600a8381548110611ed557611ed56133e1565b90600052602060002001548783611eec919061336d565b611ef6919061334e565b90508196508084611f079190613314565b9350505b5080611f16816133b0565b915050611e38565b5090505b92915050565b3360009081526002602052604090205460ff1680611f55575033611f4a611e0d565b6001600160a01b0316145b611f5e57600080fd5b601294909455601392909255601455601555601655565b60008060178481548110611f8b57611f8b6133e1565b600091825260208083208784526019825260408085206001600160a01b03808a16875293528085206003600690950290920193840154845491516370a0823160e01b815294965091949193919216906370a0823190611fee903090600401613253565b60206040518083038186803b15801561200657600080fd5b505afa15801561201a573d6000803e3d6000fd5b505050506040513d601f19601f8201168201806040525081019061203e9190613092565b90508360020154431180156120535750600081115b1561209f57600061206d85600201544387600101546121d8565b50919350849250612087915083905064e8d4a5100061334e565b612091919061332c565b61209b9084613314565b9250505b6001830154835464e8d4a51000906120b890859061334e565b6120c2919061332c565b6120cc919061336d565b979650505050505050565b6000546001600160a01b031633146121015760405162461bcd60e51b8152600401610842906132df565b801561210f5761210f611cca565b8160178581548110612123576121236133e1565b906000526020600020906006020160010154601a54612142919061336d565b61214c9190613314565b601a819055508160178581548110612166576121666133e1565b906000526020600020906006020160010181905550826017858154811061218f5761218f6133e1565b6000918252602090912060069091020180546001600160a01b0319166001600160a01b039290921691909117905550505050565b6121cc8161155a565b6121d5816128b1565b50565b6000806000806000806121eb8989611e1c565b90506000601a548860095484612201919061334e565b61220b919061334e565b612215919061332c565b90506000600360009054906101000a90046001600160a01b03166001600160a01b03166318160ddd6040518163ffffffff1660e01b815260040160206040518083038186803b15801561226757600080fd5b505afa15801561227b573d6000803e3d6000fd5b505050506040513d601f19601f8201168201806040525081019061229f9190613092565b600360009054906101000a90046001600160a01b03166001600160a01b031663355274ea6040518163ffffffff1660e01b815260040160206040518083038186803b1580156122ed57600080fd5b505afa158015612301573d6000803e3d6000fd5b505050506040513d601f19601f820116820180604052508101906123259190613092565b61232f919061336d565b90508181101561235157600097508096506000955060009450600093506123ca565b620186a060135483612363919061334e565b61236d919061332c565b9750819650606460145483612382919061334e565b61238c919061332c565b95506127106015548361239f919061334e565b6123a9919061332c565b9450620186a0601654836123bd919061334e565b6123c7919061332c565b93505b505050939792965093509350565b600d8181548110610d2257600080fd5b6000546001600160a01b031633146124125760405162461bcd60e51b8152600401610842906132df565b6001600160a01b03166000908152600260205260409020805460ff19166001179055565b600e8181548110610d2257600080fd5b600081116124835760405162461bcd60e51b815260206004820152600a6024820152690616d6f756e74203c20360b41b6044820152606401610842565b600060178381548110612498576124986133e1565b6000918252602090912060056006909202019081015490915060ff1615156001146124f55760405162461bcd60e51b815260206004820152600d60248201526c6465706f7369742066616c736560981b6044820152606401610842565b60008381526019602090815260408083203384529091528082206005546001600160a01b0316835291206125288561155a565b612531856128b1565b8254612548906001600160a01b0316333087612ac1565b8383600401600082825461255c9190613314565b9091555050815461256e574360028301555b600061271060105486612581919061334e565b61258b919061332c565b612595908661336d565b9050808360000160008282546125ab9190613314565b90915550506003840154835464e8d4a51000916125c79161334e565b6125d1919061332c565b60018401556125e0818661336d565b8260000160008282546125f39190613314565b90915550506003840154825464e8d4a510009161260f9161334e565b612619919061332c565b6001830155604051858152869033907f90890809c654f11d6e72a28fa60149770a0d11ec6c92319d6ceb2bb0a4ea1a159060200160405180910390a36004830154156126645761266b565b4360048401555b505043600690910155505050565b6000546001600160a01b031633146126a35760405162461bcd60e51b8152600401610842906132df565b6000601783815481106126b8576126b86133e1565b6000918252602090912060056006909202019081015490915060ff16151582151514156126e457600080fd5b60058101805460ff19168315159081179091556040805185815260208101929092527f1c5217508131cd5bcb7a1baa67bf4e8778ad4dc48cd46b1d4a7583c38ff4da50910160405180910390a1505050565b6000546001600160a01b031633146127605760405162461bcd60e51b8152600401610842906132df565b6001600160a01b0381166127c55760405162461bcd60e51b815260206004820152602660248201527f4f776e61626c653a206e6577206f776e657220697320746865207a65726f206160448201526564647265737360d01b6064820152608401610842565b600080546040516001600160a01b03808516939216917f8be0079c531659141344cd1fd0a4f28419497f9722a3daafe3b4186f6b6457e091a3600080546001600160a01b0319166001600160a01b0392909216919091179055565b3360009081526002602052604090205460ff168061284d575033612842611e0d565b6001600160a01b0316145b61285657600080fd5b601055565b6108b08363a9059cbb60e01b848460405160240161287a929190613267565b60408051601f198184030181529190526020810180516001600160e01b03166001600160e01b031990931692909217909152612aff565b6000601782815481106128c6576128c66133e1565b600091825260208083208584526019825260408085203386529092529220805460069092029092019250156108b0576000816001015464e8d4a5100084600301548460000154612916919061334e565b612920919061332c565b61292a919061336d565b6003546040516370a0823160e01b81529192506000916001600160a01b03909116906370a0823190612960903090600401613253565b60206040518083038186803b15801561297857600080fd5b505afa15801561298c573d6000803e3d6000fd5b505050506040513d601f19601f820116820180604052508101906129b09190613092565b9050808211156129be578091505b8115612a94576129ce3383612bd1565b60006064601254846129e0919061334e565b6129ea919061332c565b60035460405163282d3fdf60e01b81529192506001600160a01b03169063282d3fdf90612a1d9033908590600401613267565b600060405180830381600087803b158015612a3757600080fd5b505af1158015612a4b573d6000803e3d6000fd5b505043600287015550506040805184815260208101839052879133917f93fdfb615a61d5d994a2a785eb4628417adaea7d6acdc5b224303687f2269a16910160405180910390a3505b6003840154835464e8d4a5100091612aab9161334e565b612ab5919061332c565b60018401555050505050565b6040516001600160a01b0380851660248301528316604482015260648101829052612af99085906323b872dd60e01b9060840161287a565b50505050565b6000612b54826040518060400160405280602081526020017f5361666545524332303a206c6f772d6c6576656c2063616c6c206661696c6564815250856001600160a01b0316612d129092919063ffffffff16565b8051909150156108b05780806020019051810190612b72919061305c565b6108b05760405162461bcd60e51b815260206004820152602a60248201527f5361666545524332303a204552433230206f7065726174696f6e20646964206e6044820152691bdd081cdd58d8d9595960b21b6064820152608401610842565b6003546040516370a0823160e01b81526000916001600160a01b0316906370a0823190612c02903090600401613253565b60206040518083038186803b158015612c1a57600080fd5b505afa158015612c2e573d6000803e3d6000fd5b505050506040513d601f19601f82011682018060405250810190612c529190613092565b905080821115612ce05760035460405163a9059cbb60e01b81526001600160a01b039091169063a9059cbb90612c8e9086908590600401613267565b602060405180830381600087803b158015612ca857600080fd5b505af1158015612cbc573d6000803e3d6000fd5b505050506040513d601f19601f82011682018060405250810190612af9919061305c565b60035460405163a9059cbb60e01b81526001600160a01b039091169063a9059cbb90612c8e9086908690600401613267565b6060612d218484600085612d2b565b90505b9392505050565b606082471015612d8c5760405162461bcd60e51b815260206004820152602660248201527f416464726573733a20696e73756666696369656e742062616c616e636520666f6044820152651c8818d85b1b60d21b6064820152608401610842565b843b612dda5760405162461bcd60e51b815260206004820152601d60248201527f416464726573733a2063616c6c20746f206e6f6e2d636f6e74726163740000006044820152606401610842565b600080866001600160a01b03168587604051612df69190613237565b60006040518083038185875af1925050503d8060008114612e33576040519150601f19603f3d011682016040523d82523d6000602084013e612e38565b606091505b50915091506120cc82828660608315612e52575081612d24565b825115612e625782518084602001fd5b8160405162461bcd60e51b81526004016108429190613280565b828054828255906000526020600020908101928215612eb7579160200282015b82811115612eb7578251825591602001919060010190612e9c565b50612ec3929150612ec7565b5090565b5b80821115612ec35760008155600101612ec8565b600060208284031215612eee57600080fd5b8135612d248161340d565b60008060008060808587031215612f0f57600080fd5b8435612f1a8161340d565b93506020850135612f2a8161340d565b92506040850135612f3a8161340d565b91506060850135612f4a8161340d565b939692955090935050565b600080600060608486031215612f6a57600080fd5b8335612f758161340d565b9250602084013591506040840135612f8c8161340d565b809150509250925092565b60006020808385031215612faa57600080fd5b823567ffffffffffffffff80821115612fc257600080fd5b818501915085601f830112612fd657600080fd5b813581811115612fe857612fe86133f7565b8060051b604051601f19603f8301168101818110858211171561300d5761300d6133f7565b604052828152858101935084860182860187018a101561302c57600080fd5b600095505b8386101561304f578035855260019590950194938601938601613031565b5098975050505050505050565b60006020828403121561306e57600080fd5b8151612d2481613422565b60006020828403121561308b57600080fd5b5035919050565b6000602082840312156130a457600080fd5b5051919050565b600080604083850312156130be57600080fd5b8235915060208301356130d08161340d565b809150509250929050565b6000806000606084860312156130f057600080fd5b8335925060208401356131028161340d565b929592945050506040919091013590565b6000806040838503121561312657600080fd5b8235915060208301356130d081613422565b60008060006060848603121561314d57600080fd5b83359250602084013561315f8161340d565b91506040840135612f8c81613422565b6000806000806080858703121561318557600080fd5b8435935060208501356131978161340d565b9250604085013591506060850135612f4a81613422565b600080604083850312156131c157600080fd5b50508035926020909101359150565b6000806000606084860312156131e557600080fd5b505081359360208301359350604090920135919050565b600080600080600060a0868803121561321457600080fd5b505083359560208501359550604085013594606081013594506080013592509050565b60008251613249818460208701613384565b9190910192915050565b6001600160a01b0391909116815260200190565b6001600160a01b03929092168252602082015260400190565b602081526000825180602084015261329f816040850160208701613384565b601f01601f19169190910160400192915050565b6020808252601290820152711dda5d1a191c985dc80f8819985c9b50985b60721b604082015260600190565b6020808252818101527f4f776e61626c653a2063616c6c6572206973206e6f7420746865206f776e6572604082015260600190565b60008219821115613327576133276133cb565b500190565b60008261334957634e487b7160e01b600052601260045260246000fd5b500490565b6000816000190483118215151615613368576133686133cb565b500290565b60008282101561337f5761337f6133cb565b500390565b60005b8381101561339f578181015183820152602001613387565b83811115612af95750506000910152565b60006000198214156133c4576133c46133cb565b5060010190565b634e487b7160e01b600052601160045260246000fd5b634e487b7160e01b600052603260045260246000fd5b634e487b7160e01b600052604160045260246000fd5b6001600160a01b03811681146121d557600080fd5b80151581146121d557600080fdfea2646970667358221220b44fa46e12c4294b4f282c3839853d7caf74bd6c9c8ece32b304ad4907390e6364736f6c63430008070033",
  "immutableReferences": {},
  "source": "// SPDX-License-Identifier: MIT\n\npragma solidity ^0.8.0;\n\nimport \"@openzeppelin/contracts/token/ERC20/utils/SafeERC20.sol\";\nimport \"@openzeppelin/contracts/token/ERC20/IERC20.sol\";\nimport \"./Ownable.sol\";\n\ninterface IBavaToken {\n    function transfer(address to, uint tokens) external returns (bool success);\n\n    function mint(address to, uint tokens) external;\n\n    function balanceOf(address tokenOwner) external view returns (uint balance);\n\n    function cap() external view returns (uint capSuppply);\n\n    function totalSupply() external view returns (uint _totalSupply);\n\n    function lock(address _holder, uint256 _amount) external;\n}\n\n// BavaMasterFarmer is the master of Bava. He can make Bava and he is a fair guy.\n//\n// Note that it's ownable and the owner wields tremendous power. The ownership\n// will be transferred to a governance smart contract once Bava is sufficiently\n// distributed and the community can show to govern itself.\n//\ncontract BavaMasterFarmerV1 is Ownable, Authorizable {\n    using SafeERC20 for IERC20;\n\n    // Info of each user.\n    struct UserInfo {\n        uint256 amount;             // How many LP tokens the user has provided.\n        uint256 rewardDebt;         // Reward debt. See explanation below.\n        uint256 rewardDebtAtBlock;  // the last block user stake\n\t\tuint256 lastWithdrawBlock;  // the last block a user withdrew at.\n\t\tuint256 firstDepositBlock;  // the first block a user deposited at.\n\t\tuint256 blockdelta;         // time passed since withdrawals\n\t\tuint256 lastDepositBlock;   // the last block a user deposited at.\n        \n        // We do some fancy math here. Basically, any point in time, the amount of Bavas\n        // entitled to a user but is pending to be distributed is:\n        //\n        //   pending reward = (user.amount * pool.accBavaPerShare) - user.rewardDebt\n        //\n        // Whenever a user deposits or withdraws LP tokens to a pool. Here's what happens:\n        //   1. The pool's `accBavaPerShare` (and `lastRewardBlock`) gets updated.\n        //   2. User receives the pending reward sent to his/her address.\n        //   3. User's `amount` gets updated.\n        //   4. User's `rewardDebt` gets updated.\n    }\n\n    // Info of each pool.\n    struct PoolInfo {\n        IERC20 lpToken;             // Address of LP token contract.\n        uint256 allocPoint;         // How many allocation points assigned to this pool. Bavas to distribute per block.\n        uint256 lastRewardBlock;    // Last block number that Bavas distribution occurs.\n        uint256 accBavaPerShare;    // Accumulated Bavas per share, times 1e12. See below.\n        uint256 depositAmount;      // Total deposit amount\n        bool deposits_enabled;\n    }\n\n    // The Bava TOKEN!\n    IBavaToken public Bava;\n    //An ETH/USDC Oracle (Chainlink)\n    address public usdOracle;\n    // Developer/Employee address.\n    address public devaddr;\n\t// Future Treasury address\n\taddress public futureTreasuryaddr;\n\t// Advisor Address\n\taddress public advisoraddr;\n\t// Founder Reward\n\taddress public founderaddr;\n    // Bava tokens created per block.\n    uint256 public REWARD_PER_BLOCK;\n    // Bonus muliplier for early Bava makers.\n    uint256[] public REWARD_MULTIPLIER;\n    uint256[] public HALVING_AT_BLOCK; // init in constructor function\n    uint256[] public blockDeltaStartStage;\n    uint256[] public blockDeltaEndStage;\n    uint256[] public userFeeStage;\n    uint256 public FINISH_BONUS_AT_BLOCK;\n    uint256 public userDepFee;\n    uint256 constant internal MAX_UINT = type(uint256).max;\n\n    // The block number when Bava mining starts.\n    uint256 public START_BLOCK;\n\n    uint256 public PERCENT_LOCK_BONUS_REWARD;   // lock xx% of bounus reward in 3 year\n    uint256 public PERCENT_FOR_DEV;             // Dev bounties + Employees\n\tuint256 public PERCENT_FOR_FT;              // Future Treasury fund\n\tuint256 public PERCENT_FOR_ADR;             // Advisor fund\n\tuint256 public PERCENT_FOR_FOUNDERS;        // founders fund\n\n    PoolInfo[] public poolInfo;                                             // Info of each pool.\n    mapping(address => uint256) public poolId1;                             // poolId1 count from 1, subtraction 1 before using with poolInfo\n    mapping (uint256 => mapping (address => UserInfo)) public userInfo;     // Info of each user that stakes LP tokens. pid => user address => info\n    uint256 public totalAllocPoint = 0;                                     // Total allocation points. Must be the sum of all allocation points in all pools.\n\n    event Deposit(address indexed user, uint256 indexed pid, uint256 amount);\n    event Withdraw(address indexed user, uint256 indexed pid, uint256 amount);\n    event EmergencyWithdraw(address indexed user, uint256 indexed pid, uint256 amount, uint256 devAmount);\n    event SendBavaReward(address indexed user, uint256 indexed pid, uint256 amount, uint256 lockAmount);\n    event DepositsEnabled(uint pid, bool newValue);\n\n    constructor(\n        IBavaToken _IBava,\n        address _devaddr,\n\t\taddress _futureTreasuryaddr,\n\t\taddress _advisoraddr,\n\t\taddress _founderaddr,\n        uint256 _userDepFee,\n        uint256[] memory _blockDeltaStartStage,\n        uint256[] memory _blockDeltaEndStage,\n        uint256[] memory _userFeeStage\n    ) {\n        Bava = _IBava;\n        devaddr = _devaddr;\n\t\tfutureTreasuryaddr = _futureTreasuryaddr;\n\t\tadvisoraddr = _advisoraddr;\n\t\tfounderaddr = _founderaddr;\n\t    userDepFee = _userDepFee;\n\t    blockDeltaStartStage = _blockDeltaStartStage;\n\t    blockDeltaEndStage = _blockDeltaEndStage;\n\t    userFeeStage = _userFeeStage;\n    }\n\n    function initPool(uint256 _rewardPerBlock, uint256 _startBlock,uint256 _halvingAfterBlock) external onlyOwner {\n        REWARD_PER_BLOCK = _rewardPerBlock;\n        START_BLOCK = _startBlock;\n        for (uint256 i = 0; i < REWARD_MULTIPLIER.length - 1; i++) {\n            uint256 halvingAtBlock = _halvingAfterBlock*(i + 1)+(_startBlock);\n            HALVING_AT_BLOCK.push(halvingAtBlock);\n        }\n        FINISH_BONUS_AT_BLOCK = _halvingAfterBlock*(REWARD_MULTIPLIER.length - 1)+(_startBlock);\n        HALVING_AT_BLOCK.push(type(uint256).max);\n    }  \n\n    // Add a new lp to the pool. Can only be called by the owner. Support LP from panglolin miniChef, PNG single assest staking contract and traderJOe masterChef\n    function add(uint256 _allocPoint, IERC20 _lpToken, bool _withUpdate) external onlyOwner {        \n        require(poolId1[address(_lpToken)] == 0, \"lp is in pool\");\n        if (_withUpdate) {\n            massUpdatePools();\n        }\n        uint256 lastRewardBlock = block.number > START_BLOCK ? block.number : START_BLOCK;\n        totalAllocPoint = totalAllocPoint + _allocPoint;\n        poolId1[address(_lpToken)] = poolInfo.length + 1;\n        poolInfo.push(PoolInfo({\n            lpToken: _lpToken,\n            allocPoint: _allocPoint,\n            lastRewardBlock: lastRewardBlock,\n            accBavaPerShare: 0,\n            depositAmount: 0,\n            deposits_enabled: true\n        }));\n    }\n\n    // Update the given pool's Bava allocation point. Can only be called by the owner.\n    function set(uint256 _pid, IERC20 _lpToken, uint256 _allocPoint, bool _withUpdate) external onlyOwner {\n        if (_withUpdate) {\n            massUpdatePools();\n        }\n        totalAllocPoint = totalAllocPoint-(poolInfo[_pid].allocPoint)+(_allocPoint);\n        poolInfo[_pid].allocPoint = _allocPoint;\n        poolInfo[_pid].lpToken = _lpToken;\n    }\n\n    // Update reward variables for all pools. Be careful of gas spending!\n    function massUpdatePools() public {\n        uint256 length = poolInfo.length;\n        for (uint256 pid = 0; pid < length; ++pid) {\n            updatePool(pid);\n        }\n    }\n\n    // Update reward variables of the given pool to be up-to-date.\n    function updatePool(uint256 _pid) public {\n        PoolInfo storage pool = poolInfo[_pid];\n        if (block.number <= pool.lastRewardBlock) {\n            return;\n        }\n        uint256 lpSupply = pool.lpToken.balanceOf(address(this));\n        if (lpSupply == 0) {\n            pool.lastRewardBlock = block.number;\n            return;\n        }\n        uint256 BavaForDev;\n        uint256 BavaForFarmer;\n\t\tuint256 BavaForFT;\n\t\tuint256 BavaForAdr;\n\t\tuint256 BavaForFounders;\n        (BavaForDev, BavaForFarmer, BavaForFT, BavaForAdr, BavaForFounders) = getPoolReward(pool.lastRewardBlock, block.number, pool.allocPoint);\n        Bava.mint(address(this), BavaForFarmer);\n        pool.accBavaPerShare = pool.accBavaPerShare+(BavaForFarmer*(1e12)/(lpSupply));\n        pool.lastRewardBlock = block.number;\n        if (BavaForDev > 0) {\n            Bava.mint(address(devaddr), BavaForDev);\n            //Dev fund has xx% locked during the starting bonus period. After which locked funds drip out linearly each block over 3 years.\n            Bava.lock(address(devaddr), BavaForDev*(75)/(100));            \n        }\n\t\tif (BavaForFT > 0) {\n            Bava.mint(futureTreasuryaddr, BavaForFT);\n\t\t\t//FT + Partnership fund has only xx% locked over time as most of it is needed early on for incentives and listings. The locked amount will drip out linearly each block after the bonus period.\n            Bava.lock(address(futureTreasuryaddr), BavaForFT*(45)/(100));            \n        }\n\t\tif (BavaForAdr > 0) {\n            Bava.mint(advisoraddr, BavaForAdr);\n\t\t\t//Advisor Fund has xx% locked during bonus period and then drips out linearly over 3 years.\n            Bava.lock(address(advisoraddr), BavaForAdr*(85)/(100));\n        }\n\t\tif (BavaForFounders > 0) {\n            Bava.mint(founderaddr, BavaForFounders);\n\t\t\t//The Founders reward has xx% of their funds locked during the bonus period which then drip out linearly per block over 3 years.\n            Bava.lock(address(founderaddr), BavaForFounders*(95)/(100));\n        }\n    }\n\n    // |--------------------------------------|\n    // [20, 30, 40, 50, 60, 70, 80, 99999999]\n    // Return reward multiplier over the given _from to _to block.\n    function getMultiplier(uint256 _from, uint256 _to) public view returns (uint256) {\n        uint256 result = 0;\n        if (_from < START_BLOCK) return 0;\n\n        for (uint256 i = 0; i < HALVING_AT_BLOCK.length; i++) {\n            uint256 endBlock = HALVING_AT_BLOCK[i];\n\n            if (_to <= endBlock) {\n                uint256 m = (_to-_from)*(REWARD_MULTIPLIER[i]);\n                return result+(m);\n            }\n\n            if (_from < endBlock) {\n                uint256 m = (endBlock-_from)*(REWARD_MULTIPLIER[i]);\n                _from = endBlock;\n                result = result+(m);\n            }\n        }\n        return result;\n    }\n\n    function getPoolReward(uint256 _from, uint256 _to, uint256 _allocPoint) public view returns (uint256 forDev, uint256 forFarmer, uint256 forFT, uint256 forAdr, uint256 forFounders) {\n        uint256 multiplier = getMultiplier(_from, _to);\n        uint256 amount = multiplier*(REWARD_PER_BLOCK)*(_allocPoint)/(totalAllocPoint);\n        uint256 BavaCanMint = Bava.cap()-(Bava.totalSupply());\n\n        if (BavaCanMint < amount) {\n            forDev = 0;\n\t\t\tforFarmer = BavaCanMint;\n\t\t\tforFT = 0;\n\t\t\tforAdr = 0;\n\t\t\tforFounders = 0;\n        }\n        else {\n            forDev = amount*(PERCENT_FOR_DEV)/(100000);\n\t\t\tforFarmer = amount;\n\t\t\tforFT = amount*(PERCENT_FOR_FT)/(100);\n\t\t\tforAdr = amount*(PERCENT_FOR_ADR)/(10000);\n\t\t\tforFounders = amount*(PERCENT_FOR_FOUNDERS)/(100000);\n        }\n    }\n\n    function claimReward(uint256 _pid) public {\n        updatePool(_pid);\n        _harvest(_pid);\n    }\n\n    // lock 95% of reward\n    function _harvest(uint256 _pid) internal {\n        PoolInfo storage pool = poolInfo[_pid];\n        UserInfo storage user = userInfo[_pid][msg.sender];\n\n        if (user.amount > 0) {\n            uint256 pending = user.amount*(pool.accBavaPerShare)/(1e12)-(user.rewardDebt);\n            uint256 masterBal = Bava.balanceOf(address(this));\n\n            if (pending > masterBal) {\n                pending = masterBal;\n            }\n            \n            if(pending > 0) {\n                safeBavaTransfer(msg.sender, pending);\n                uint256 lockAmount = 0;\n                lockAmount = pending*(PERCENT_LOCK_BONUS_REWARD)/(100);\n                Bava.lock(msg.sender, lockAmount);\n\n                user.rewardDebtAtBlock = block.number;\n\n                emit SendBavaReward(msg.sender, _pid, pending, lockAmount);\n            }\n            user.rewardDebt = user.amount*(pool.accBavaPerShare)/(1e12);\n        }\n    }\n    \n    // Deposit LP tokens to BavaMasterFarmer for $Bava allocation.\n    function deposit(uint256 _pid, uint256 _amount) public {\n        require(_amount > 0, \"amount < 0\");\n\n        PoolInfo storage pool = poolInfo[_pid];\n        require(pool.deposits_enabled == true, \"deposit false\");\n        UserInfo storage user = userInfo[_pid][msg.sender];\n        UserInfo storage devr = userInfo[_pid][devaddr];\n        \n        updatePool(_pid);\n        _harvest(_pid);\n        \n        pool.lpToken.safeTransferFrom(address(msg.sender), address(this), _amount);\n        pool.depositAmount += _amount;\n\n        if (user.amount == 0) {\n            user.rewardDebtAtBlock = block.number;\n        }\n\n        uint256 userAmount = _amount - _amount*(userDepFee)/(10000);\n        user.amount += userAmount;\n        user.rewardDebt = user.amount*(pool.accBavaPerShare)/(1e12);\n        devr.amount += (_amount - userAmount);\n        devr.rewardDebt = devr.amount*(pool.accBavaPerShare)/(1e12);\n\n        emit Deposit(msg.sender, _pid, _amount);\n\t\tif(user.firstDepositBlock > 0){\n\t\t} else {\n\t\t\tuser.firstDepositBlock = block.number;\n\t\t}\n\t\tuser.lastDepositBlock = block.number;\n    }\n    \n  // Withdraw LP tokens from BavaMasterFarmer. \n    function withdraw(uint256 _pid, uint256 _amount) public {\n        PoolInfo storage pool = poolInfo[_pid];\n        UserInfo storage user = userInfo[_pid][msg.sender];\n        \n        uint256 lpBal = pool.lpToken.balanceOf(address(this));\n        require(lpBal >= _amount, \"withdraw > farmBal\");\n        require(user.amount >= _amount, \"withdraw > stake\");\n\n        updatePool(_pid);\n        _harvest(_pid);\n        \n        if(_amount > 0) {\n            user.amount = user.amount-(_amount);\n\t\t\tif(user.lastWithdrawBlock > 0){\n\t\t\t\tuser.blockdelta = block.number - user.lastWithdrawBlock; }\n\t\t\telse {\n\t\t\t\tuser.blockdelta = block.number - user.firstDepositBlock;\n\t\t\t}\n\n\t\t\tif(user.blockdelta == blockDeltaStartStage[0] || block.number == user.lastDepositBlock){\n\t\t\t\t//25% fee for withdrawals of LP tokens in the same block this is to prevent abuse from flashloans\n                uint256 userWithdrawFee = _amount*(userFeeStage[0])/100;\n                pool.depositAmount -= _amount;\n\t\t\t\tpool.lpToken.safeTransfer(address(msg.sender), userWithdrawFee);\n\t\t\t\tpool.lpToken.safeTransfer(address(devaddr), _amount-userWithdrawFee);\n\t\t\t} else if (user.blockdelta >= blockDeltaStartStage[1] && user.blockdelta <= blockDeltaEndStage[0]){\n\t\t\t\t//8% fee if a user deposits and withdraws in under between same block and 59 minutes.\n                uint256 userWithdrawFee = _amount*(userFeeStage[1])/100;\n                pool.depositAmount -= _amount;\n\t\t\t\tpool.lpToken.safeTransfer(address(msg.sender), userWithdrawFee);\n\t\t\t\tpool.lpToken.safeTransfer(address(devaddr), _amount-userWithdrawFee);\n\t\t\t} else if (user.blockdelta >= blockDeltaStartStage[2] && user.blockdelta <= blockDeltaEndStage[1]){\n\t\t\t\t//4% fee if a user deposits and withdraws after 1 hour but before 1 day.\n                uint256 userWithdrawFee = _amount*(userFeeStage[2])/100;\n                pool.depositAmount -= _amount;\n\t\t\t\tpool.lpToken.safeTransfer(address(msg.sender), userWithdrawFee);\n\t\t\t\tpool.lpToken.safeTransfer(address(devaddr), _amount-userWithdrawFee);\n\t\t\t} else if (user.blockdelta >= blockDeltaStartStage[3] && user.blockdelta <= blockDeltaEndStage[2]){\n\t\t\t\t//2% fee if a user deposits and withdraws between after 1 day but before 3 days.\n                uint256 userWithdrawFee = _amount*(userFeeStage[3])/100;\n                pool.depositAmount -= _amount;\n\t\t\t\tpool.lpToken.safeTransfer(address(msg.sender), userWithdrawFee);\n\t\t\t\tpool.lpToken.safeTransfer(address(devaddr), _amount-userWithdrawFee);\n\t\t\t} else if (user.blockdelta >= blockDeltaStartStage[4] && user.blockdelta <= blockDeltaEndStage[3]){\n\t\t\t\t//1% fee if a user deposits and withdraws after 3 days but before 5 days.\n                uint256 userWithdrawFee = _amount*(userFeeStage[4])/100;\n                pool.depositAmount -= _amount;\n\t\t\t\tpool.lpToken.safeTransfer(address(msg.sender), userWithdrawFee);\n\t\t\t\tpool.lpToken.safeTransfer(address(devaddr), _amount-userWithdrawFee);\n\t\t\t}  else if (user.blockdelta >= blockDeltaStartStage[5] && user.blockdelta <= blockDeltaEndStage[4]){\n\t\t\t\t//0.5% fee if a user deposits and withdraws if the user withdraws after 5 days but before 2 weeks.\n                uint256 userWithdrawFee = _amount*(userFeeStage[5])/1000;\n                pool.depositAmount -= _amount;\n\t\t\t\tpool.lpToken.safeTransfer(address(msg.sender), userWithdrawFee);\n\t\t\t\tpool.lpToken.safeTransfer(address(devaddr), _amount-userWithdrawFee);\n\t\t\t} else if (user.blockdelta >= blockDeltaStartStage[6] && user.blockdelta <= blockDeltaEndStage[5]){\n\t\t\t\t//0.25% fee if a user deposits and withdraws after 2 weeks.\n                uint256 userWithdrawFee = _amount*(userFeeStage[6])/10000;\n                pool.depositAmount -= _amount;\n\t\t\t\tpool.lpToken.safeTransfer(address(msg.sender), userWithdrawFee);\n\t\t\t\tpool.lpToken.safeTransfer(address(devaddr), _amount-userWithdrawFee);\n\t\t\t} else if (user.blockdelta > blockDeltaStartStage[7]) {\n\t\t\t\t//0.1% fee if a user deposits and withdraws after 4 weeks.\n                uint256 userWithdrawFee = _amount*(userFeeStage[7])/10000;\n                pool.depositAmount -= _amount;\n\t\t\t\tpool.lpToken.safeTransfer(address(msg.sender), userWithdrawFee);\n\t\t\t\tpool.lpToken.safeTransfer(address(devaddr), _amount-userWithdrawFee);\n\t\t\t}\n\t\tuser.rewardDebt = user.amount*(pool.accBavaPerShare)/(1e12);\n\n        emit Withdraw(msg.sender, _pid, _amount);\n\t\tuser.lastWithdrawBlock = block.number;\n\t\t\t}\n        }\n\n    // Withdraw without caring about rewards. EMERGENCY ONLY. This has the same 25% fee as same block withdrawals to prevent abuse of thisfunction.\n    function emergencyWithdraw(uint256 _pid) public {\n        PoolInfo storage pool = poolInfo[_pid];\n        UserInfo storage user = userInfo[_pid][msg.sender];\n\n        uint256 lpBal = pool.lpToken.balanceOf(address(this));\n        require(lpBal >= user.amount, \"withdraw > farmBal\");\n\n        //reordered from Sushi function to prevent risk of reentrancy\n        uint256 amountToSend = user.amount*(75)/(100);\n        uint256 devAmountToSend = user.amount - amountToSend;\n        \n        user.amount = 0;\n        user.rewardDebt = 0;\n        pool.depositAmount = pool.depositAmount - amountToSend - devAmountToSend;\n\n        pool.lpToken.safeTransfer(address(msg.sender), amountToSend);\n        pool.lpToken.safeTransfer(address(devaddr), devAmountToSend);\n\n        emit EmergencyWithdraw(msg.sender, _pid, amountToSend, devAmountToSend);\n    }\n\n    /**\n     * @notice Enable/disable deposits\n     * @param newValue bool\n     */\n    function updateDepositsEnabled(uint _pid, bool newValue) public onlyOwner {\n        PoolInfo storage pool = poolInfo[_pid];\n        require(pool.deposits_enabled != newValue);\n        pool.deposits_enabled = newValue;\n        emit DepositsEnabled(_pid, newValue);\n    } \n\n    // Safe Bava transfer function, just in case if rounding error causes pool to not have enough Bavas.\n    function safeBavaTransfer(address _to, uint256 _amount) private {\n        uint256 BavaBal = Bava.balanceOf(address(this));\n        if (_amount > BavaBal) {\n            Bava.transfer(_to, BavaBal);\n        } else {\n            Bava.transfer(_to, _amount);\n        }\n    }\n\n    // Rescue any token function, just in case if any user not able to withdraw token from the smart contract.\n    function rescueDeployedFunds(address token, uint256 amount, address _to) external onlyOwner {\n        require(_to != address(0), \"send to the zero address\");\n        IERC20(token).safeTransfer(_to, amount);\n    }\n\n    /****** ONLY AUTHORIZED FUNCTIONS ******/\n    // Update smart contract general variable functions\n    // Update dev address by the previous dev.\n    function addrUpdate(address _devaddr, address _newFT, address _newAdr, address _newFounder) public onlyAuthorized {\n        devaddr = _devaddr;\n        futureTreasuryaddr = _newFT;\n        advisoraddr = _newAdr;\n        founderaddr = _newFounder;\n    }\n\n    // Update % lock for general users & percent for other roles\n    function percentUpdate(uint _newlock, uint _newdev, uint _newft, uint _newadr, uint _newfounder) public onlyAuthorized {\n       PERCENT_LOCK_BONUS_REWARD = _newlock;\n       PERCENT_FOR_DEV = _newdev;\n       PERCENT_FOR_FT = _newft;\n       PERCENT_FOR_ADR = _newadr;\n       PERCENT_FOR_FOUNDERS = _newfounder;\n    }\n\n    // Update Finish Bonus Block\n    function bonusFinishUpdate(uint256 _newFinish) public onlyAuthorized {\n        FINISH_BONUS_AT_BLOCK = _newFinish;\n    }\n    \n    // Update Halving At Block\n    function halvingUpdate(uint256[] memory _newHalving) public onlyAuthorized {\n        HALVING_AT_BLOCK = _newHalving;\n    }\n    \n    // Update Reward Per Block\n    function rewardUpdate(uint256 _newReward) public onlyAuthorized {\n       REWARD_PER_BLOCK = _newReward;\n    }\n    \n    // Update Rewards Mulitplier Array\n    function rewardMulUpdate(uint256[] memory _newMulReward) public onlyAuthorized {\n       REWARD_MULTIPLIER = _newMulReward;\n    }\n    \n    // Update START_BLOCK\n    function starblockUpdate(uint _newstarblock) public onlyAuthorized {\n       START_BLOCK = _newstarblock;\n    }\n\n\tfunction setStageStarts(uint[] memory _blockStarts) public onlyAuthorized() {\n        blockDeltaStartStage = _blockStarts;\n    }\n    \n    function setStageEnds(uint[] memory _blockEnds) public onlyAuthorized() {\n        blockDeltaEndStage = _blockEnds;\n    }\n    \n    function setUserFeeStage(uint[] memory _userFees) public onlyAuthorized() {\n        userFeeStage = _userFees;\n    }\n    \n    function setDevDepFee(uint _usrDepFees) public onlyAuthorized() {\n        userDepFee = _usrDepFees;\n        // devDepFee = _devDepFees;\n    }\n\t\n    // Update smart contract specific pool user variable function \n\tfunction reviseWithdraw(uint _pid, address _user, uint256 _block) public onlyAuthorized() {\n\t   UserInfo storage user = userInfo[_pid][_user];\n\t   user.lastWithdrawBlock = _block;\t    \n\t}\n\t\n\tfunction reviseDeposit(uint _pid, address _user, uint256 _block) public onlyAuthorized() {\n\t   UserInfo storage user = userInfo[_pid][_user];\n\t   user.firstDepositBlock = _block;\t    \n\t}\n\n    function poolLength() external view returns (uint256) {\n        return poolInfo.length;\n    }\n\n    // View function to see pending Bavas on frontend.\n    function pendingReward(uint256 _pid, address _user) external view returns (uint256) {\n        PoolInfo storage pool = poolInfo[_pid];\n        UserInfo storage user = userInfo[_pid][_user];\n        uint256 accBavaPerShare = pool.accBavaPerShare;\n        uint256 lpSupply = pool.lpToken.balanceOf(address(this));\n\n        if (block.number > pool.lastRewardBlock && lpSupply > 0) {\n            uint256 BavaForFarmer;\n            (, BavaForFarmer, , ,) = getPoolReward(pool.lastRewardBlock, block.number, pool.allocPoint);\n            accBavaPerShare = accBavaPerShare+(BavaForFarmer*(1e12)/(lpSupply));\n        }\n        return user.amount*(accBavaPerShare)/(1e12)-(user.rewardDebt);\n    }\n}",
  "sourcePath": "/Users/cheekeatlim/Desktop/Others Project/Baklava/bao2Finance_Testnet/src/contracts/BavaMasterFarmerV1.sol",
  "compiler": {
    "name": "solc",
    "version": "0.8.7+commit.e28d00a7.Emscripten.clang"
  },
  "schemaVersion": "3.2.3",
  "updatedAt": "2022-02-24T11:14:35.982Z",
  "devdoc": {
    "kind": "dev",
    "methods": {
      "owner()": {
        "details": "Returns the address of the current owner."
      },
      "previousOwner()": {
        "details": "Returns the address of the previous owner."
      },
      "renounceOwnership()": {
        "details": "Leaves the contract without owner. It will not be possible to call `onlyOwner` functions anymore. Can only be called by the current owner. NOTE: Renouncing ownership will leave the contract without an owner, thereby removing any functionality that is only available to the owner."
      },
      "transferOwnership(address)": {
        "details": "Transfers ownership of the contract to a new account (`newOwner`). Can only be called by the current owner."
      },
      "updateDepositsEnabled(uint256,bool)": {
        "params": {
          "newValue": "bool"
        }
      }
    },
    "version": 1
  },
  "userdoc": {
    "kind": "user",
    "methods": {
      "updateDepositsEnabled(uint256,bool)": {
        "notice": "Enable/disable deposits"
      }
    },
    "version": 1
  }
}