{
  "contractName": "BavaPool",
  "abi": [
    {
      "inputs": [
        {
          "internalType": "contract IBavaToken",
          "name": "_IBava",
          "type": "address"
        },
        {
          "internalType": "address",
          "name": "_devaddr",
          "type": "address"
        },
        {
          "internalType": "uint256",
          "name": "_userDepFee",
          "type": "uint256"
        },
        {
          "internalType": "uint256[]",
          "name": "_blockDeltaStartStage",
          "type": "uint256[]"
        },
        {
          "internalType": "uint256[]",
          "name": "_blockDeltaEndStage",
          "type": "uint256[]"
        },
        {
          "internalType": "uint256[]",
          "name": "_userFeeStage",
          "type": "uint256[]"
        }
      ],
      "stateMutability": "nonpayable",
      "type": "constructor"
    },
    {
      "anonymous": false,
      "inputs": [
        {
          "indexed": true,
          "internalType": "address",
          "name": "user",
          "type": "address"
        },
        {
          "indexed": true,
          "internalType": "uint256",
          "name": "pid",
          "type": "uint256"
        },
        {
          "indexed": false,
          "internalType": "uint256",
          "name": "amount",
          "type": "uint256"
        }
      ],
      "name": "Deposit",
      "type": "event"
    },
    {
      "anonymous": false,
      "inputs": [
        {
          "indexed": false,
          "internalType": "uint256",
          "name": "pid",
          "type": "uint256"
        },
        {
          "indexed": false,
          "internalType": "bool",
          "name": "newValue",
          "type": "bool"
        }
      ],
      "name": "DepositsEnabled",
      "type": "event"
    },
    {
      "anonymous": false,
      "inputs": [
        {
          "indexed": true,
          "internalType": "address",
          "name": "user",
          "type": "address"
        },
        {
          "indexed": true,
          "internalType": "uint256",
          "name": "pid",
          "type": "uint256"
        },
        {
          "indexed": false,
          "internalType": "uint256",
          "name": "amount",
          "type": "uint256"
        },
        {
          "indexed": false,
          "internalType": "uint256",
          "name": "devAmount",
          "type": "uint256"
        }
      ],
      "name": "EmergencyWithdraw",
      "type": "event"
    },
    {
      "anonymous": false,
      "inputs": [
        {
          "indexed": true,
          "internalType": "address",
          "name": "previousOwner",
          "type": "address"
        },
        {
          "indexed": true,
          "internalType": "address",
          "name": "newOwner",
          "type": "address"
        }
      ],
      "name": "OwnershipTransferred",
      "type": "event"
    },
    {
      "anonymous": false,
      "inputs": [
        {
          "indexed": true,
          "internalType": "address",
          "name": "user",
          "type": "address"
        },
        {
          "indexed": true,
          "internalType": "uint256",
          "name": "pid",
          "type": "uint256"
        },
        {
          "indexed": false,
          "internalType": "uint256",
          "name": "amount",
          "type": "uint256"
        },
        {
          "indexed": false,
          "internalType": "uint256",
          "name": "lockAmount",
          "type": "uint256"
        }
      ],
      "name": "SendBavaReward",
      "type": "event"
    },
    {
      "anonymous": false,
      "inputs": [
        {
          "indexed": true,
          "internalType": "address",
          "name": "user",
          "type": "address"
        },
        {
          "indexed": true,
          "internalType": "uint256",
          "name": "pid",
          "type": "uint256"
        },
        {
          "indexed": false,
          "internalType": "uint256",
          "name": "amount",
          "type": "uint256"
        }
      ],
      "name": "Withdraw",
      "type": "event"
    },
    {
      "inputs": [],
      "name": "Bava",
      "outputs": [
        {
          "internalType": "contract IBavaToken",
          "name": "",
          "type": "address"
        }
      ],
      "stateMutability": "view",
      "type": "function"
    },
    {
      "inputs": [],
      "name": "FINISH_BONUS_AT_BLOCK",
      "outputs": [
        {
          "internalType": "uint256",
          "name": "",
          "type": "uint256"
        }
      ],
      "stateMutability": "view",
      "type": "function"
    },
    {
      "inputs": [
        {
          "internalType": "uint256",
          "name": "",
          "type": "uint256"
        }
      ],
      "name": "HALVING_AT_BLOCK",
      "outputs": [
        {
          "internalType": "uint256",
          "name": "",
          "type": "uint256"
        }
      ],
      "stateMutability": "view",
      "type": "function"
    },
    {
      "inputs": [],
      "name": "PERCENT_FOR_ADR",
      "outputs": [
        {
          "internalType": "uint256",
          "name": "",
          "type": "uint256"
        }
      ],
      "stateMutability": "view",
      "type": "function"
    },
    {
      "inputs": [],
      "name": "PERCENT_FOR_DEV",
      "outputs": [
        {
          "internalType": "uint256",
          "name": "",
          "type": "uint256"
        }
      ],
      "stateMutability": "view",
      "type": "function"
    },
    {
      "inputs": [],
      "name": "PERCENT_FOR_FOUNDERS",
      "outputs": [
        {
          "internalType": "uint256",
          "name": "",
          "type": "uint256"
        }
      ],
      "stateMutability": "view",
      "type": "function"
    },
    {
      "inputs": [],
      "name": "PERCENT_FOR_FT",
      "outputs": [
        {
          "internalType": "uint256",
          "name": "",
          "type": "uint256"
        }
      ],
      "stateMutability": "view",
      "type": "function"
    },
    {
      "inputs": [],
      "name": "PERCENT_LOCK_BONUS_REWARD",
      "outputs": [
        {
          "internalType": "uint256",
          "name": "",
          "type": "uint256"
        }
      ],
      "stateMutability": "view",
      "type": "function"
    },
    {
      "inputs": [
        {
          "internalType": "uint256",
          "name": "",
          "type": "uint256"
        }
      ],
      "name": "REWARD_MULTIPLIER",
      "outputs": [
        {
          "internalType": "uint256",
          "name": "",
          "type": "uint256"
        }
      ],
      "stateMutability": "view",
      "type": "function"
    },
    {
      "inputs": [],
      "name": "REWARD_PER_BLOCK",
      "outputs": [
        {
          "internalType": "uint256",
          "name": "",
          "type": "uint256"
        }
      ],
      "stateMutability": "view",
      "type": "function"
    },
    {
      "inputs": [],
      "name": "START_BLOCK",
      "outputs": [
        {
          "internalType": "uint256",
          "name": "",
          "type": "uint256"
        }
      ],
      "stateMutability": "view",
      "type": "function"
    },
    {
      "inputs": [
        {
          "internalType": "address",
          "name": "_toAdd",
          "type": "address"
        }
      ],
      "name": "addAuthorized",
      "outputs": [],
      "stateMutability": "nonpayable",
      "type": "function"
    },
    {
      "inputs": [
        {
          "internalType": "address",
          "name": "",
          "type": "address"
        }
      ],
      "name": "authorized",
      "outputs": [
        {
          "internalType": "bool",
          "name": "",
          "type": "bool"
        }
      ],
      "stateMutability": "view",
      "type": "function"
    },
    {
      "inputs": [
        {
          "internalType": "uint256",
          "name": "",
          "type": "uint256"
        }
      ],
      "name": "blockDeltaEndStage",
      "outputs": [
        {
          "internalType": "uint256",
          "name": "",
          "type": "uint256"
        }
      ],
      "stateMutability": "view",
      "type": "function"
    },
    {
      "inputs": [
        {
          "internalType": "uint256",
          "name": "",
          "type": "uint256"
        }
      ],
      "name": "blockDeltaStartStage",
      "outputs": [
        {
          "internalType": "uint256",
          "name": "",
          "type": "uint256"
        }
      ],
      "stateMutability": "view",
      "type": "function"
    },
    {
      "inputs": [],
      "name": "devaddr",
      "outputs": [
        {
          "internalType": "address",
          "name": "",
          "type": "address"
        }
      ],
      "stateMutability": "view",
      "type": "function"
    },
    {
      "inputs": [],
      "name": "owner",
      "outputs": [
        {
          "internalType": "address",
          "name": "",
          "type": "address"
        }
      ],
      "stateMutability": "view",
      "type": "function"
    },
    {
      "inputs": [],
      "name": "poolInfo",
      "outputs": [
        {
          "internalType": "contract IERC20",
          "name": "lpToken",
          "type": "address"
        },
        {
          "internalType": "uint256",
          "name": "lastRewardBlock",
          "type": "uint256"
        },
        {
          "internalType": "uint256",
          "name": "depositAmount",
          "type": "uint256"
        },
        {
          "internalType": "uint256",
          "name": "receiptAmount",
          "type": "uint256"
        },
        {
          "internalType": "bool",
          "name": "deposits_enabled",
          "type": "bool"
        }
      ],
      "stateMutability": "view",
      "type": "function"
    },
    {
      "inputs": [],
      "name": "poolRestakingInfo",
      "outputs": [
        {
          "internalType": "contract IMiniChef",
          "name": "pglStakingContract",
          "type": "address"
        },
        {
          "internalType": "uint256",
          "name": "restakingFarmID",
          "type": "uint256"
        }
      ],
      "stateMutability": "view",
      "type": "function"
    },
    {
      "inputs": [],
      "name": "previousOwner",
      "outputs": [
        {
          "internalType": "address",
          "name": "",
          "type": "address"
        }
      ],
      "stateMutability": "view",
      "type": "function"
    },
    {
      "inputs": [
        {
          "internalType": "address",
          "name": "_toRemove",
          "type": "address"
        }
      ],
      "name": "removeAuthorized",
      "outputs": [],
      "stateMutability": "nonpayable",
      "type": "function"
    },
    {
      "inputs": [],
      "name": "renounceOwnership",
      "outputs": [],
      "stateMutability": "nonpayable",
      "type": "function"
    },
    {
      "inputs": [
        {
          "internalType": "address",
          "name": "newOwner",
          "type": "address"
        }
      ],
      "name": "transferOwnership",
      "outputs": [],
      "stateMutability": "nonpayable",
      "type": "function"
    },
    {
      "inputs": [],
      "name": "usdOracle",
      "outputs": [
        {
          "internalType": "address",
          "name": "",
          "type": "address"
        }
      ],
      "stateMutability": "view",
      "type": "function"
    },
    {
      "inputs": [],
      "name": "userDepFee",
      "outputs": [
        {
          "internalType": "uint256",
          "name": "",
          "type": "uint256"
        }
      ],
      "stateMutability": "view",
      "type": "function"
    },
    {
      "inputs": [
        {
          "internalType": "uint256",
          "name": "",
          "type": "uint256"
        }
      ],
      "name": "userFeeStage",
      "outputs": [
        {
          "internalType": "uint256",
          "name": "",
          "type": "uint256"
        }
      ],
      "stateMutability": "view",
      "type": "function"
    },
    {
      "inputs": [
        {
          "internalType": "address",
          "name": "",
          "type": "address"
        }
      ],
      "name": "userInfo",
      "outputs": [
        {
          "internalType": "uint256",
          "name": "amount",
          "type": "uint256"
        },
        {
          "internalType": "uint256",
          "name": "rewardDebt",
          "type": "uint256"
        },
        {
          "internalType": "uint256",
          "name": "rewardDebtAtBlock",
          "type": "uint256"
        },
        {
          "internalType": "uint256",
          "name": "lastWithdrawBlock",
          "type": "uint256"
        },
        {
          "internalType": "uint256",
          "name": "firstDepositBlock",
          "type": "uint256"
        },
        {
          "internalType": "uint256",
          "name": "blockdelta",
          "type": "uint256"
        },
        {
          "internalType": "uint256",
          "name": "lastDepositBlock",
          "type": "uint256"
        }
      ],
      "stateMutability": "view",
      "type": "function"
    },
    {
      "inputs": [
        {
          "internalType": "uint256",
          "name": "_rewardPerBlock",
          "type": "uint256"
        },
        {
          "internalType": "uint256",
          "name": "_startBlock",
          "type": "uint256"
        },
        {
          "internalType": "uint256",
          "name": "_halvingAfterBlock",
          "type": "uint256"
        }
      ],
      "name": "initPool",
      "outputs": [],
      "stateMutability": "nonpayable",
      "type": "function"
    },
    {
      "inputs": [
        {
          "internalType": "contract IERC20",
          "name": "_lpToken",
          "type": "address"
        },
        {
          "internalType": "contract IMiniChef",
          "name": "_stakingPglContract",
          "type": "address"
        },
        {
          "internalType": "uint256",
          "name": "_restakingFarmID",
          "type": "uint256"
        },
        {
          "internalType": "contract IERC20[]",
          "name": "_rewardTokens",
          "type": "address[]"
        }
      ],
      "name": "add",
      "outputs": [],
      "stateMutability": "nonpayable",
      "type": "function"
    },
    {
      "inputs": [
        {
          "internalType": "uint256",
          "name": "_amount",
          "type": "uint256"
        }
      ],
      "name": "setAllowances",
      "outputs": [],
      "stateMutability": "nonpayable",
      "type": "function"
    },
    {
      "inputs": [
        {
          "internalType": "contract IMiniChef",
          "name": "_stakingPglContract",
          "type": "address"
        },
        {
          "internalType": "uint256",
          "name": "_restakingFarmID",
          "type": "uint256"
        },
        {
          "internalType": "contract IERC20[]",
          "name": "_rewardTokens",
          "type": "address[]"
        },
        {
          "internalType": "bool",
          "name": "_withUpdate",
          "type": "bool"
        }
      ],
      "name": "setPoolRestakingInfo",
      "outputs": [],
      "stateMutability": "nonpayable",
      "type": "function"
    },
    {
      "inputs": [],
      "name": "updatePool",
      "outputs": [],
      "stateMutability": "nonpayable",
      "type": "function"
    },
    {
      "inputs": [
        {
          "internalType": "uint256",
          "name": "_from",
          "type": "uint256"
        },
        {
          "internalType": "uint256",
          "name": "_to",
          "type": "uint256"
        }
      ],
      "name": "getMultiplier",
      "outputs": [
        {
          "internalType": "uint256",
          "name": "",
          "type": "uint256"
        }
      ],
      "stateMutability": "view",
      "type": "function"
    },
    {
      "inputs": [],
      "name": "claimReward",
      "outputs": [],
      "stateMutability": "nonpayable",
      "type": "function"
    },
    {
      "inputs": [
        {
          "internalType": "uint256",
          "name": "_amount",
          "type": "uint256"
        }
      ],
      "name": "deposit",
      "outputs": [],
      "stateMutability": "nonpayable",
      "type": "function"
    },
    {
      "inputs": [
        {
          "internalType": "uint256",
          "name": "_amount",
          "type": "uint256"
        }
      ],
      "name": "withdraw",
      "outputs": [],
      "stateMutability": "nonpayable",
      "type": "function"
    },
    {
      "inputs": [],
      "name": "emergencyWithdraw",
      "outputs": [],
      "stateMutability": "nonpayable",
      "type": "function"
    },
    {
      "inputs": [],
      "name": "getReinvestRewardOwner",
      "outputs": [],
      "stateMutability": "nonpayable",
      "type": "function"
    },
    {
      "inputs": [
        {
          "internalType": "bool",
          "name": "disableDeposits",
          "type": "bool"
        }
      ],
      "name": "emergencyWithdrawDepositTokens",
      "outputs": [],
      "stateMutability": "nonpayable",
      "type": "function"
    },
    {
      "inputs": [
        {
          "internalType": "uint256",
          "name": "_amount",
          "type": "uint256"
        },
        {
          "internalType": "address",
          "name": "_to",
          "type": "address"
        }
      ],
      "name": "reinvest",
      "outputs": [],
      "stateMutability": "nonpayable",
      "type": "function"
    },
    {
      "inputs": [
        {
          "internalType": "uint256",
          "name": "_amount",
          "type": "uint256"
        }
      ],
      "name": "returnReinvestReward",
      "outputs": [],
      "stateMutability": "nonpayable",
      "type": "function"
    },
    {
      "inputs": [
        {
          "internalType": "uint256",
          "name": "_pid",
          "type": "uint256"
        },
        {
          "internalType": "bool",
          "name": "newValue",
          "type": "bool"
        }
      ],
      "name": "updateDepositsEnabled",
      "outputs": [],
      "stateMutability": "nonpayable",
      "type": "function"
    },
    {
      "inputs": [
        {
          "internalType": "uint256",
          "name": "amount",
          "type": "uint256"
        }
      ],
      "name": "getSharesForDepositTokens",
      "outputs": [
        {
          "internalType": "uint256",
          "name": "",
          "type": "uint256"
        }
      ],
      "stateMutability": "view",
      "type": "function"
    },
    {
      "inputs": [
        {
          "internalType": "uint256",
          "name": "amount",
          "type": "uint256"
        }
      ],
      "name": "getDepositTokensForShares",
      "outputs": [
        {
          "internalType": "uint256",
          "name": "",
          "type": "uint256"
        }
      ],
      "stateMutability": "view",
      "type": "function"
    },
    {
      "inputs": [
        {
          "internalType": "address",
          "name": "token",
          "type": "address"
        },
        {
          "internalType": "uint256",
          "name": "amount",
          "type": "uint256"
        },
        {
          "internalType": "address",
          "name": "_to",
          "type": "address"
        }
      ],
      "name": "rescueDeployedFunds",
      "outputs": [],
      "stateMutability": "nonpayable",
      "type": "function"
    },
    {
      "inputs": [
        {
          "internalType": "address",
          "name": "_devaddr",
          "type": "address"
        }
      ],
      "name": "addrUpdate",
      "outputs": [],
      "stateMutability": "nonpayable",
      "type": "function"
    },
    {
      "inputs": [
        {
          "internalType": "uint256",
          "name": "_newlock",
          "type": "uint256"
        },
        {
          "internalType": "uint256",
          "name": "_newdev",
          "type": "uint256"
        },
        {
          "internalType": "uint256",
          "name": "_newft",
          "type": "uint256"
        },
        {
          "internalType": "uint256",
          "name": "_newadr",
          "type": "uint256"
        },
        {
          "internalType": "uint256",
          "name": "_newfounder",
          "type": "uint256"
        }
      ],
      "name": "percentUpdate",
      "outputs": [],
      "stateMutability": "nonpayable",
      "type": "function"
    },
    {
      "inputs": [
        {
          "internalType": "uint256",
          "name": "_newFinish",
          "type": "uint256"
        }
      ],
      "name": "bonusFinishUpdate",
      "outputs": [],
      "stateMutability": "nonpayable",
      "type": "function"
    },
    {
      "inputs": [
        {
          "internalType": "uint256[]",
          "name": "_newHalving",
          "type": "uint256[]"
        }
      ],
      "name": "halvingUpdate",
      "outputs": [],
      "stateMutability": "nonpayable",
      "type": "function"
    },
    {
      "inputs": [
        {
          "internalType": "uint256",
          "name": "_newReward",
          "type": "uint256"
        }
      ],
      "name": "rewardUpdate",
      "outputs": [],
      "stateMutability": "nonpayable",
      "type": "function"
    },
    {
      "inputs": [
        {
          "internalType": "uint256[]",
          "name": "_newMulReward",
          "type": "uint256[]"
        }
      ],
      "name": "rewardMulUpdate",
      "outputs": [],
      "stateMutability": "nonpayable",
      "type": "function"
    },
    {
      "inputs": [
        {
          "internalType": "uint256",
          "name": "_newstarblock",
          "type": "uint256"
        }
      ],
      "name": "starblockUpdate",
      "outputs": [],
      "stateMutability": "nonpayable",
      "type": "function"
    },
    {
      "inputs": [
        {
          "internalType": "uint256[]",
          "name": "_blockStarts",
          "type": "uint256[]"
        }
      ],
      "name": "setStageStarts",
      "outputs": [],
      "stateMutability": "nonpayable",
      "type": "function"
    },
    {
      "inputs": [
        {
          "internalType": "uint256[]",
          "name": "_blockEnds",
          "type": "uint256[]"
        }
      ],
      "name": "setStageEnds",
      "outputs": [],
      "stateMutability": "nonpayable",
      "type": "function"
    },
    {
      "inputs": [
        {
          "internalType": "uint256[]",
          "name": "_userFees",
          "type": "uint256[]"
        }
      ],
      "name": "setUserFeeStage",
      "outputs": [],
      "stateMutability": "nonpayable",
      "type": "function"
    },
    {
      "inputs": [
        {
          "internalType": "uint256",
          "name": "_usrDepFees",
          "type": "uint256"
        }
      ],
      "name": "setDepFee",
      "outputs": [],
      "stateMutability": "nonpayable",
      "type": "function"
    },
    {
      "inputs": [
        {
          "internalType": "address",
          "name": "_user",
          "type": "address"
        },
        {
          "internalType": "uint256",
          "name": "_block",
          "type": "uint256"
        }
      ],
      "name": "reviseWithdraw",
      "outputs": [],
      "stateMutability": "nonpayable",
      "type": "function"
    },
    {
      "inputs": [
        {
          "internalType": "address",
          "name": "_user",
          "type": "address"
        },
        {
          "internalType": "uint256",
          "name": "_block",
          "type": "uint256"
        }
      ],
      "name": "reviseDeposit",
      "outputs": [],
      "stateMutability": "nonpayable",
      "type": "function"
    },
    {
      "inputs": [
        {
          "internalType": "address",
          "name": "_user",
          "type": "address"
        }
      ],
      "name": "pendingReward",
      "outputs": [
        {
          "internalType": "uint256",
          "name": "",
          "type": "uint256"
        }
      ],
      "stateMutability": "view",
      "type": "function"
    },
    {
      "inputs": [],
      "name": "pendingReinvestReward",
      "outputs": [
        {
          "internalType": "uint256",
          "name": "pending",
          "type": "uint256"
        },
        {
          "internalType": "address",
          "name": "bonusTokenAddress",
          "type": "address"
        },
        {
          "internalType": "string",
          "name": "bonusTokenSymbol",
          "type": "string"
        },
        {
          "internalType": "uint256",
          "name": "pendingBonusToken",
          "type": "uint256"
        }
      ],
      "stateMutability": "view",
      "type": "function"
    }
  ],
  "bytecode": "0x60806040523480156200001157600080fd5b5060405162003a9b38038062003a9b833981016040819052620000349162000209565b600080546001600160a01b031916339081178255604051909182917f8be0079c531659141344cd1fd0a4f28419497f9722a3daafe3b4186f6b6457e0908290a350600480546001600160a01b038089166001600160a01b0319928316179092556007805492881692909116919091179055600f8490558251620000bf90600b906020860190620000f8565b508151620000d590600c906020850190620000f8565b508051620000eb90600d906020840190620000f8565b50505050505050620002fd565b82805482825590600052602060002090810192821562000136579160200282015b828111156200013657825182559160200191906001019062000119565b506200014492915062000148565b5090565b5b8082111562000144576000815560010162000149565b600082601f8301126200017157600080fd5b815160206001600160401b0380831115620001905762000190620002ce565b8260051b604051601f19603f83011681018181108482111715620001b857620001b8620002ce565b60405284815283810192508684018288018501891015620001d857600080fd5b600092505b85831015620001fd578051845292840192600192909201918401620001dd565b50979650505050505050565b60008060008060008060c087890312156200022357600080fd5b86516200023081620002e4565b60208801519096506200024381620002e4565b6040880151606089015191965094506001600160401b03808211156200026857600080fd5b620002768a838b016200015f565b945060808901519150808211156200028d57600080fd5b6200029b8a838b016200015f565b935060a0890151915080821115620002b257600080fd5b50620002c189828a016200015f565b9150509295509295509295565b634e487b7160e01b600052604160045260246000fd5b6001600160a01b0381168114620002fa57600080fd5b50565b61378e806200030d6000396000f3fe608060405234801561001057600080fd5b50600436106103245760003560e01c806391fd81c5116101a9578063cf1c316a116100ef578063eab89a5a1161009d578063eab89a5a1461078d578063eb196895146107a0578063ebf6192b146107b3578063ed9bdeda146107c6578063ef7dc49d146107cf578063f2fde38b146107d7578063f31001fa146107ea578063f40f0f52146107fd57600080fd5b8063cf1c316a1461071e578063d007db2914610731578063d49e77cd14610744578063db2e21bc14610757578063dd8ce4d61461075f578063e3161ddd14610772578063e8167c821461077a57600080fd5b8063b6b55f2511610157578063b6b55f251461067b578063b84c7e371461068e578063b88a802f146106a1578063b9181611146106a9578063c3eed29a146106dc578063c6929e53146106ef578063c8a4271f146106f8578063cb0b8ca11461070b57600080fd5b806391fd81c51461060f57806395fdf25814610622578063975532dc1461062b578063980c2a98146106345780639b1dcd911461063d578063a1e6328b14610655578063b55a08451461066857600080fd5b80634179b4fb1161026e578063674f220f1161021c578063674f220f146105a357806370fb4b59146105b4578063715018a6146105c757806382796e98146105cf578063847bdaa4146105d857806385ee2a7f146105eb5780638da5cb5b146105f45780638dbb1e3a146105fc57600080fd5b80634179b4fb146104c557806346664064146104d8578063485d7d94146104eb5780634af0e3e1146104fe5780635a2f3d09146105115780635e30c1641461056b5780636245f0841461059057600080fd5b80632a7b0107116102d65780632a7b0107146104375780632b2177531461044a5780632e1a7d4d1461045d5780632fda773514610470578063354affb71461048357806339b3e826146104965780633d479cd51461049f5780633fed04dc146104b257600080fd5b8063077e2e37146103295780630ce4c9221461033e57806313bb3c33146103515780631959a0021461037a5780631f84593e146103fa578063245b211d1461041157806324b95c3e14610424575b600080fd5b61033c6103373660046130b1565b610810565b005b61033c61034c3660046133c2565b6108ad565b600454610364906001600160a01b031681565b60405161037191906134b1565b60405180910390f35b6103c5610388366004613068565b601f602052600090815260409020805460018201546002830154600384015460048501546005860154600690960154949593949293919290919087565b604080519788526020880196909652948601939093526060850191909152608084015260a083015260c082015260e001610371565b61040360135481565b604051908152602001610371565b61033c61041f3660046132f5565b6109c8565b61033c6104323660046132f5565b610a03565b61033c61044536600461314b565b610a3e565b61033c610458366004613085565b610a8b565b61033c61046b3660046132f5565b610ae0565b61040361047e3660046132f5565b611114565b61033c61049136600461314b565b611135565b61040360105481565b61033c6104ad3660046132f5565b61117e565b61033c6104c03660046131e3565b6111b9565b6104036104d33660046132f5565b6112a7565b61033c6104e636600461314b565b6112b7565b61033c6104f9366004613068565b611300565b61033c61050c36600461314b565b611361565b601654601754601854601954601a54610537946001600160a01b03169392919060ff1685565b604080516001600160a01b03909616865260208601949094529284019190915260608301521515608082015260a001610371565b601b54601c54610582916001600160a01b03169082565b6040516103719291906134c5565b61040361059e3660046132f5565b6113aa565b6001546001600160a01b0316610364565b61033c6105c2366004613068565b6113ba565b61033c611412565b610403600f5481565b61033c6105e636600461314b565b611486565b61040360145481565b6103646114cf565b61040361060a36600461337c565b6114de565b61033c61061d3660046133ee565b6115ea565b61040360115481565b61040360085481565b610403600e5481565b610645611637565b604051610371949392919061358d565b61033c610663366004613289565b611701565b61033c610676366004613085565b6117b4565b61033c6106893660046132f5565b611809565b61033c61069c3660046132f5565b611aaa565b61033c611ae5565b6106cc6106b7366004613068565b60026020526000908152604090205460ff1681565b6040519015158152602001610371565b61033c6106ea366004613327565b611af7565b61040360155481565b600654610364906001600160a01b031681565b6104036107193660046132f5565b611c5b565b61033c61072c366004613068565b611c6b565b61040361073f3660046132f5565b611cb9565b600754610364906001600160a01b031681565b61033c611cc9565b61040361076d3660046132f5565b611e25565b61033c611e6b565b61033c61078836600461321d565b611edd565b61040361079b3660046132f5565b612018565b61033c6107ae366004613357565b61204f565b61033c6107c13660046132f5565b6120e4565b61040360125481565b61033c6121aa565b61033c6107e5366004613068565b6121f4565b61033c6107f83660046132f5565b6122de565b61040361080b366004613068565b61236b565b6000546001600160a01b031633146108435760405162461bcd60e51b815260040161083a9061351d565b60405180910390fd5b6001600160a01b0381166108945760405162461bcd60e51b815260206004820152601860248201527773656e6420746f20746865207a65726f206164647265737360401b604482015260640161083a565b6108a86001600160a01b0384168284612527565b505050565b6000546001600160a01b031633146108d75760405162461bcd60e51b815260040161083a9061351d565b6008839055601082905560005b6009546108f390600190613695565b8110156109625760008361090883600161363c565b6109129085613676565b61091c919061363c565b600a80546001810182556000919091527fc65a7bb8d6351c1cf70c95a316cc6a92839c986682d98bc35f958f4883f9d2a80155508061095a816136d8565b9150506108e4565b50600954829061097490600190613695565b61097e9083613676565b610988919061363c565b600e555050600a80546001810182556000919091526000197fc65a7bb8d6351c1cf70c95a316cc6a92839c986682d98bc35f958f4883f9d2a89091015550565b3360009081526002602052604090205460ff16806109f55750336109ea6114cf565b6001600160a01b0316145b6109fe57600080fd5b600e55565b3360009081526002602052604090205460ff1680610a30575033610a256114cf565b6001600160a01b0316145b610a3957600080fd5b601055565b3360009081526002602052604090205460ff1680610a6b575033610a606114cf565b6001600160a01b0316145b610a7457600080fd5b8051610a8790600d906020840190612f38565b5050565b3360009081526002602052604090205460ff1680610ab8575033610aad6114cf565b6001600160a01b0316145b610ac157600080fd5b6001600160a01b039091166000908152601f6020526040902060040155565b336000908152601f60205260408120601854601692610afe85612018565b905080821015610b205760405162461bcd60e51b815260040161083a906134f1565b8254851115610b645760405162461bcd60e51b815260206004820152601060248201526f7769746864726177203e207374616b6560801b604482015260640161083a565b600354600554604051631526fe2760e01b815260048101919091526000916001600160a01b031690631526fe279060240160a06040518083038186803b158015610bad57600080fd5b505afa158015610bc1573d6000803e3d6000fd5b505050506040513d601f19601f82011682018060405250810190610be591906130f3565b509350505050610bf3611e6b565b610bfb61257d565b6000610c0561285c565b9050610c108361292c565b861561110b578454610c23908890613695565b8555600385015415610c48576003850154610c3e9043613695565b6005860155610c5d565b6004850154610c579043613695565b60058601555b86866003016000828254610c719190613695565b9091555050600b8054600090610c8957610c89613709565b906000526020600020015485600501541480610ca85750846006015443145b15610d485760006064600d600081548110610cc557610cc5613709565b906000526020600020015485610cdb9190613676565b610ce59190613654565b905083876002016000828254610cfb9190613695565b90915550508654610d16906001600160a01b03163383612527565b600754610d42906001600160a01b0316610d308387613695565b89546001600160a01b03169190612527565b506110a0565b600b600181548110610d5c57610d5c613709565b9060005260206000200154856005015410158015610d9c5750600c600081548110610d8957610d89613709565b9060005260206000200154856005015411155b15610db95760006064600d600181548110610cc557610cc5613709565b600b600281548110610dcd57610dcd613709565b9060005260206000200154856005015410158015610e0d5750600c600181548110610dfa57610dfa613709565b9060005260206000200154856005015411155b15610e2a5760006064600d600281548110610cc557610cc5613709565b600b600381548110610e3e57610e3e613709565b9060005260206000200154856005015410158015610e7e5750600c600281548110610e6b57610e6b613709565b9060005260206000200154856005015411155b15610e9b5760006064600d600381548110610cc557610cc5613709565b600b600481548110610eaf57610eaf613709565b9060005260206000200154856005015410158015610eef5750600c600381548110610edc57610edc613709565b9060005260206000200154856005015411155b15610f0c5760006064600d600481548110610cc557610cc5613709565b600b600581548110610f2057610f20613709565b9060005260206000200154856005015410158015610f605750600c600481548110610f4d57610f4d613709565b9060005260206000200154856005015411155b15610f7e5760006103e8600d600581548110610cc557610cc5613709565b600b600681548110610f9257610f92613709565b9060005260206000200154856005015410158015610fd25750600c600581548110610fbf57610fbf613709565b9060005260206000200154856005015411155b15610ff0576000612710600d600681548110610cc557610cc5613709565b600b60078154811061100457611004613709565b9060005260206000200154856005015411156110a0576000612710600d60078154811061103357611033613709565b9060005260206000200154856110499190613676565b6110539190613654565b9050838760020160008282546110699190613695565b90915550508654611084906001600160a01b03163383612527565b60075461109e906001600160a01b0316610d308387613695565b505b845464e8d4a51000906110b4908490613676565b6110be9190613654565b60018601556110cc81612a8c565b60055460405184815233907ff279e6a1f5e320cca91135676d9cb6e44ca8a08c0b88342bcdb1144f6511b5689060200160405180910390a34360038601555b50505050505050565b6009818154811061112457600080fd5b600091825260209091200154905081565b3360009081526002602052604090205460ff16806111625750336111576114cf565b6001600160a01b0316145b61116b57600080fd5b8051610a8790600a906020840190612f38565b3360009081526002602052604090205460ff16806111ab5750336111a06114cf565b6001600160a01b0316145b6111b457600080fd5b600855565b6000546001600160a01b031633146111e35760405162461bcd60e51b815260040161083a9061351d565b6016601b60006111f161285c565b82549091506001600160a01b03161561126b57815460018301546040516302f940c760e41b81526001600160a01b0390921691632f940c7091611238913090600401613576565b600060405180830381600087803b15801561125257600080fd5b505af1158015611266573d6000803e3d6000fd5b505050505b600483015460ff161515600114801561128657506001841515145b1561129857611298600554600061204f565b6112a181612a8c565b50505050565b600a818154811061112457600080fd5b3360009081526002602052604090205460ff16806112e45750336112d96114cf565b6001600160a01b0316145b6112ed57600080fd5b8051610a87906009906020840190612f38565b6000546001600160a01b0316331461132a5760405162461bcd60e51b815260040161083a9061351d565b6001600160a01b03811633141561134057600080fd5b6001600160a01b03166000908152600260205260409020805460ff19169055565b3360009081526002602052604090205460ff168061138e5750336113836114cf565b6001600160a01b0316145b61139757600080fd5b8051610a8790600c906020840190612f38565b600b818154811061112457600080fd5b3360009081526002602052604090205460ff16806113e75750336113dc6114cf565b6001600160a01b0316145b6113f057600080fd5b600780546001600160a01b0319166001600160a01b0392909216919091179055565b6000546001600160a01b0316331461143c5760405162461bcd60e51b815260040161083a9061351d565b600080546040516001600160a01b03909116907f8be0079c531659141344cd1fd0a4f28419497f9722a3daafe3b4186f6b6457e0908390a3600080546001600160a01b0319169055565b3360009081526002602052604090205460ff16806114b35750336114a86114cf565b6001600160a01b0316145b6114bc57600080fd5b8051610a8790600b906020840190612f38565b6000546001600160a01b031690565b60105460009081908410156114f75760009150506115e4565b60005b600a548110156115e0576000600a828154811061151957611519613709565b9060005260206000200154905080851161157a5760006009838154811061154257611542613709565b906000526020600020015487876115599190613695565b6115639190613676565b905061156f818561363c565b9450505050506115e4565b808610156115cd5760006009838154811061159757611597613709565b906000526020600020015487836115ae9190613695565b6115b89190613676565b905081965080846115c9919061363c565b9350505b50806115d8816136d8565b9150506114fa565b5090505b92915050565b3360009081526002602052604090205460ff168061161757503361160c6114cf565b6001600160a01b0316145b61162057600080fd5b601194909455601292909255601355601455601555565b601b8054600091829160609183916001600160a01b0316156116f95780546001820154604051634c4b4f4160e11b81526001600160a01b03909216916398969e8291611687913090600401613576565b60206040518083038186803b15801561169f57600080fd5b505afa1580156116b3573d6000803e3d6000fd5b505050506040513d601f19601f820116820180604052508101906116d7919061330e565b60006040518060200160405280600081525060009450945094509450506116fb565b505b90919293565b6000546001600160a01b0316331461172b5760405162461bcd60e51b815260040161083a9061351d565b6001600160a01b03841661176c5760405162461bcd60e51b8152602060048201526008602482015267041646420213d20360c41b604482015260640161083a565b801561177a5761177a611e6b565b601b80546001600160a01b0319166001600160a01b038616179055601c83905581516117ad90601d906020850190612f83565b5050505050565b3360009081526002602052604090205460ff16806117e15750336117d66114cf565b6001600160a01b0316145b6117ea57600080fd5b6001600160a01b039091166000908152601f6020526040902060030155565b600081116118295760405162461bcd60e51b815260040161083a90613552565b601a5460169060ff1615156001146118735760405162461bcd60e51b815260206004820152600d60248201526c6465706f7369742066616c736560981b604482015260640161083a565b336000908152601f60205260408082206007546001600160a01b03168352912061189b611e6b565b6118a361257d565b600354600554604051631526fe2760e01b815260048101919091526000916001600160a01b031690631526fe279060240160a06040518083038186803b1580156118ec57600080fd5b505afa158015611900573d6000803e3d6000fd5b505050506040513d601f19601f8201168201806040525081019061192491906130f3565b509350505050600061193461285c565b855490915061194e906001600160a01b0316333089612be5565b600061195987611e25565b90508686600201600082825461196f919061363c565b925050819055508086600301600082825461198a919061363c565b9091555050845461199c574360028601555b6000612710600f54836119af9190613676565b6119b99190613654565b6119c39083613695565b905060006119d18284613695565b87549091506119e190839061363c565b80885564e8d4a51000906119f6908790613676565b611a009190613654565b60018801558554611a1290829061363c565b80875564e8d4a5100090611a27908790613676565b611a319190613654565b6001870155611a3f89612c1d565b611a4884612a8c565b6005546040518a815233907f90890809c654f11d6e72a28fa60149770a0d11ec6c92319d6ceb2bb0a4ea1a159060200160405180910390a3600487015415611a8f57611a96565b4360048801555b438760060181905550505050505050505050565b3360009081526002602052604090205460ff1680611ad7575033611acc6114cf565b6001600160a01b0316145b611ae057600080fd5b600f55565b611aed611e6b565b611af561257d565b565b6000546001600160a01b03163314611b215760405162461bcd60e51b815260040161083a9061351d565b601b6000611b2d61285c565b600283015490915060005b81811015611c51576000846002018281548110611b5757611b57613709565b6000918252602090912001546040516370a0823160e01b81526001600160a01b03909116906370a0823190611b909030906004016134b1565b60206040518083038186803b158015611ba857600080fd5b505afa158015611bbc573d6000803e3d6000fd5b505050506040513d601f19601f82011682018060405250810190611be0919061330e565b9050868110611c2457611c1f8688876002018581548110611c0357611c03613709565b6000918252602090912001546001600160a01b03169190612527565b611c3e565b611c3e8682876002018581548110611c0357611c03613709565b5080611c49816136d8565b915050611b38565b506117ad82612a8c565b600c818154811061112457600080fd5b6000546001600160a01b03163314611c955760405162461bcd60e51b815260040161083a9061351d565b6001600160a01b03166000908152600260205260409020805460ff19166001179055565b600d818154811061112457600080fd5b336000908152601f602052604081208054601692611ce682612018565b90506000611cf261285c565b600286015490915082811015611d1a5760405162461bcd60e51b815260040161083a906134f1565b611d238361292c565b60006064611d3285604b613676565b611d3c9190613654565b905060006064611d4d866019613676565b611d579190613654565b60008089556001890181905560038a0180549293508892909190611d7c908490613695565b909155505060028801548190611d93908490613695565b611d9d9190613695565b60028901558754611db8906001600160a01b03163384612527565b6007548854611dd4916001600160a01b03918216911683612527565b611ddd84612a8c565b600554604080518481526020810184905233917f2369db1bafee945aee5630782f4a170682e3f8188d8dc247a4c73eb8c9e692d2910160405180910390a35050505050505050565b601854601954600091601691611e3b9190613676565b611e46575090919050565b60028101546003820154611e5a9085613676565b611e649190613654565b9392505050565b6017546016904311611e7a5750565b6003546005546040516328f582d360e11b81526001600160a01b03909216916351eb05a691611eaf9160040190815260200190565b600060405180830381600087803b158015611ec957600080fd5b505af11580156117ad573d6000803e3d6000fd5b6000546001600160a01b03163314611f075760405162461bcd60e51b815260040161083a9061351d565b6001600160a01b038416611f4e5760405162461bcd60e51b815260206004820152600e60248201526d06c702061646472657320213d20360941b604482015260640161083a565b6001600160a01b038316611f945760405162461bcd60e51b815260206004820152600d60248201526c031b7b73a3930b1ba10109e981609d1b604482015260640161083a565b60006010544311611fa757601054611fa9565b435b601680546001600160a01b038089166001600160a01b031992831617909255601783905560006018819055601955601a805460ff19166001179055601b805492881692909116919091179055601c849055825190915061201090601d906020850190612f83565b505050505050565b60185460195460009160169161202e9190613676565b61203b5750600092915050565b60038101546002820154611e5a9085613676565b6000546001600160a01b031633146120795760405162461bcd60e51b815260040161083a9061351d565b601a5460169060ff161515821515141561209257600080fd5b60048101805460ff19168315159081179091556040805185815260208101929092527f1c5217508131cd5bcb7a1baa67bf4e8778ad4dc48cd46b1d4a7583c38ff4da50910160405180910390a1505050565b6000546001600160a01b0316331461210e5760405162461bcd60e51b815260040161083a9061351d565b601b8054601691906001600160a01b0316156108a8578154815460405163095ea7b360e01b81526001600160a01b039283169263095ea7b3926121589291169087906004016134c5565b602060405180830381600087803b15801561217257600080fd5b505af1158015612186573d6000803e3d6000fd5b505050506040513d601f19601f820116820180604052508101906112a19190613200565b6000546001600160a01b031633146121d45760405162461bcd60e51b815260040161083a9061351d565b60006121de61285c565b90506121e8612cb8565b6121f181612a8c565b50565b6000546001600160a01b0316331461221e5760405162461bcd60e51b815260040161083a9061351d565b6001600160a01b0381166122835760405162461bcd60e51b815260206004820152602660248201527f4f776e61626c653a206e6577206f776e657220697320746865207a65726f206160448201526564647265737360d01b606482015260840161083a565b600080546040516001600160a01b03808516939216917f8be0079c531659141344cd1fd0a4f28419497f9722a3daafe3b4186f6b6457e091a3600080546001600160a01b0319166001600160a01b0392909216919091179055565b60168161231b5760405162461bcd60e51b815260206004820152600b60248201526a0416d6f756e74203c3d20360ac1b604482015260640161083a565b600061232561285c565b825490915061233f906001600160a01b0316333086612be5565b82826002016000828254612353919061363c565b90915550612362905083612c1d565b6108a881612a8c565b6001600160a01b038181166000908152601f60205260408082206003546005549251631526fe2760e01b8152600481019390935292936016939192859283921690631526fe279060240160a06040518083038186803b1580156123cd57600080fd5b505afa1580156123e1573d6000803e3d6000fd5b505050506040513d601f19601f8201168201806040525081019061240591906130f3565b509350509250506000846003015490508460010154431180156124285750600081115b156124ef576003546001860154604051630191daed60e71b81526004810191909152436024820152604481018590526000916001600160a01b03169063c8ed76809060640160a06040518083038186803b15801561248557600080fd5b505afa158015612499573d6000803e3d6000fd5b505050506040513d601f19601f820116820180604052508101906124bd9190613429565b509193508492506124d7915083905064e8d4a51000613676565b6124e19190613654565b6124eb908461363c565b9250505b6001840154845464e8d4a5100090612508908590613676565b6125129190613654565b61251c9190613695565b979650505050505050565b6108a88363a9059cbb60e01b84846040516024016125469291906134c5565b60408051601f198184030181529190526020810180516001600160e01b03166001600160e01b031990931692909217909152612cfe565b336000908152601f60205260408082206003546005549251631526fe2760e01b815260048101939093529092916001600160a01b0390911690631526fe279060240160a06040518083038186803b1580156125d757600080fd5b505afa1580156125eb573d6000803e3d6000fd5b505050506040513d601f19601f8201168201806040525081019061260f91906130f3565b508554909450159250610a87915050576000826001015464e8d4a5100083856000015461263c9190613676565b6126469190613654565b6126509190613695565b600480546040516370a0823160e01b81529293506000926001600160a01b03909116916370a0823191612685913091016134b1565b60206040518083038186803b15801561269d57600080fd5b505afa1580156126b1573d6000803e3d6000fd5b505050506040513d601f19601f820116820180604052508101906126d5919061330e565b9050808211156126e3578091505b8115612833576004805460405163a9059cbb60e01b81526001600160a01b039091169163a9059cbb9161271a9133918791016134c5565b602060405180830381600087803b15801561273457600080fd5b505af1158015612748573d6000803e3d6000fd5b505050506040513d601f19601f8201168201806040525081019061276c9190613200565b50600060646011548461277f9190613676565b6127899190613654565b6004805460405163282d3fdf60e01b81529293506001600160a01b03169163282d3fdf916127bb9133918691016134c5565b600060405180830381600087803b1580156127d557600080fd5b505af11580156127e9573d6000803e3d6000fd5b50504360028801555050600554604080518581526020810184905233917f93fdfb615a61d5d994a2a785eb4628417adaea7d6acdc5b224303687f2269a16910160405180910390a3505b835464e8d4a5100090612847908590613676565b6128519190613654565b600185015550505050565b601d54600090601b908290815b818110156129235783600201818154811061288657612886613709565b6000918252602090912001546040516370a0823160e01b81526001600160a01b03909116906370a08231906128bf9030906004016134b1565b60206040518083038186803b1580156128d757600080fd5b505afa1580156128eb573d6000803e3d6000fd5b505050506040513d601f19601f8201168201806040525081019061290f919061330e565b92508061291b816136d8565b915050612869565b50909392505050565b601b8161294b5760405162461bcd60e51b815260040161083a90613552565b612953612cb8565b80546001600160a01b031615610a8757805460018201546040516393f1a40b60e01b81526000926001600160a01b0316916393f1a40b9161299991903090600401613576565b604080518083038186803b1580156129b057600080fd5b505afa1580156129c4573d6000803e3d6000fd5b505050506040513d601f19601f820116820180604052508101906129e8919061339e565b509050828110612a565781546001830154604051630ad58d2f60e01b81526001600160a01b0390921691630ad58d2f91612a2891879030906004016135c8565b600060405180830381600087803b158015612a4257600080fd5b505af115801561110b573d6000803e3d6000fd5b81546001830154604051630ad58d2f60e01b81526001600160a01b0390921691630ad58d2f91612a2891859030906004016135c8565b601d54601b90600090815b818110156117ad57836002018181548110612ab457612ab4613709565b6000918252602090912001546040516370a0823160e01b81526001600160a01b03909116906370a0823190612aed9030906004016134b1565b60206040518083038186803b158015612b0557600080fd5b505afa158015612b19573d6000803e3d6000fd5b505050506040513d601f19601f82011682018060405250810190612b3d919061330e565b9250848310612b8f576000612b528685613695565b905080856003018381548110612b6a57612b6a613709565b906000526020600020016000828254612b83919061363c565b90915550612bd3915050565b6000612b9b8487613695565b905080856003018381548110612bb357612bb3613709565b906000526020600020016000828254612bcc9190613695565b9091555050505b80612bdd816136d8565b915050612a97565b6040516001600160a01b03808516602483015283166044820152606481018290526112a19085906323b872dd60e01b90608401612546565b601b81612c3c5760405162461bcd60e51b815260040161083a90613552565b612c44612cb8565b80546001600160a01b031615610a875780546001820154604051638dbdbe6d60e01b81526001600160a01b0390921691638dbdbe6d91612c8a91869030906004016135c8565b600060405180830381600087803b158015612ca457600080fd5b505af1158015612010573d6000803e3d6000fd5b601b80546001600160a01b0316156121f15780546001820154604051630c7e663b60e11b81526001600160a01b03909216916318fccc7691611eaf913090600401613576565b6000612d53826040518060400160405280602081526020017f5361666545524332303a206c6f772d6c6576656c2063616c6c206661696c6564815250856001600160a01b0316612dd09092919063ffffffff16565b8051909150156108a85780806020019051810190612d719190613200565b6108a85760405162461bcd60e51b815260206004820152602a60248201527f5361666545524332303a204552433230206f7065726174696f6e20646964206e6044820152691bdd081cdd58d8d9595960b21b606482015260840161083a565b6060612ddf8484600085612de7565b949350505050565b606082471015612e485760405162461bcd60e51b815260206004820152602660248201527f416464726573733a20696e73756666696369656e742062616c616e636520666f6044820152651c8818d85b1b60d21b606482015260840161083a565b843b612e965760405162461bcd60e51b815260206004820152601d60248201527f416464726573733a2063616c6c20746f206e6f6e2d636f6e7472616374000000604482015260640161083a565b600080866001600160a01b03168587604051612eb29190613495565b60006040518083038185875af1925050503d8060008114612eef576040519150601f19603f3d011682016040523d82523d6000602084013e612ef4565b606091505b509150915061251c82828660608315612f0e575081611e64565b825115612f1e5782518084602001fd5b8160405162461bcd60e51b815260040161083a91906134de565b828054828255906000526020600020908101928215612f73579160200282015b82811115612f73578251825591602001919060010190612f58565b50612f7f929150612fd8565b5090565b828054828255906000526020600020908101928215612f73579160200282015b82811115612f7357825182546001600160a01b0319166001600160a01b03909116178255602090920191600190910190612fa3565b5b80821115612f7f5760008155600101612fd9565b600082601f830112612ffe57600080fd5b8135602061301361300e83613618565b6135e7565b80838252828201915082860187848660051b890101111561303357600080fd5b60005b8581101561305b57813561304981613735565b84529284019290840190600101613036565b5090979650505050505050565b60006020828403121561307a57600080fd5b8135611e6481613735565b6000806040838503121561309857600080fd5b82356130a381613735565b946020939093013593505050565b6000806000606084860312156130c657600080fd5b83356130d181613735565b92506020840135915060408401356130e881613735565b809150509250925092565b600080600080600060a0868803121561310b57600080fd5b855161311681613735565b80955050602086015193506040860151925060608601519150608086015161313d81613735565b809150509295509295909350565b6000602080838503121561315e57600080fd5b823567ffffffffffffffff81111561317557600080fd5b8301601f8101851361318657600080fd5b803561319461300e82613618565b80828252848201915084840188868560051b87010111156131b457600080fd5b600094505b838510156131d75780358352600194909401939185019185016131b9565b50979650505050505050565b6000602082840312156131f557600080fd5b8135611e648161374a565b60006020828403121561321257600080fd5b8151611e648161374a565b6000806000806080858703121561323357600080fd5b843561323e81613735565b9350602085013561324e81613735565b925060408501359150606085013567ffffffffffffffff81111561327157600080fd5b61327d87828801612fed565b91505092959194509250565b6000806000806080858703121561329f57600080fd5b84356132aa81613735565b935060208501359250604085013567ffffffffffffffff8111156132cd57600080fd5b6132d987828801612fed565b92505060608501356132ea8161374a565b939692955090935050565b60006020828403121561330757600080fd5b5035919050565b60006020828403121561332057600080fd5b5051919050565b6000806040838503121561333a57600080fd5b82359150602083013561334c81613735565b809150509250929050565b6000806040838503121561336a57600080fd5b82359150602083013561334c8161374a565b6000806040838503121561338f57600080fd5b50508035926020909101359150565b600080604083850312156133b157600080fd5b505080516020909101519092909150565b6000806000606084860312156133d757600080fd5b505081359360208301359350604090920135919050565b600080600080600060a0868803121561340657600080fd5b505083359560208501359550604085013594606081013594506080013592509050565b600080600080600060a0868803121561344157600080fd5b5050835160208501516040860151606087015160809097015192989197509594509092509050565b600081518084526134818160208601602086016136ac565b601f01601f19169290920160200192915050565b600082516134a78184602087016136ac565b9190910192915050565b6001600160a01b0391909116815260200190565b6001600160a01b03929092168252602082015260400190565b602081526000611e646020830184613469565b6020808252601290820152711dda5d1a191c985dc80f8819985c9b50985b60721b604082015260600190565b6020808252818101527f4f776e61626c653a2063616c6c6572206973206e6f7420746865206f776e6572604082015260600190565b6020808252600a90820152690616d6f756e74203c20360b41b604082015260600190565b9182526001600160a01b0316602082015260400190565b8481526001600160a01b03841660208201526080604082018190526000906135b790830185613469565b905082606083015295945050505050565b92835260208301919091526001600160a01b0316604082015260600190565b604051601f8201601f1916810167ffffffffffffffff811182821017156136105761361061371f565b604052919050565b600067ffffffffffffffff8211156136325761363261371f565b5060051b60200190565b6000821982111561364f5761364f6136f3565b500190565b60008261367157634e487b7160e01b600052601260045260246000fd5b500490565b6000816000190483118215151615613690576136906136f3565b500290565b6000828210156136a7576136a76136f3565b500390565b60005b838110156136c75781810151838201526020016136af565b838111156112a15750506000910152565b60006000198214156136ec576136ec6136f3565b5060010190565b634e487b7160e01b600052601160045260246000fd5b634e487b7160e01b600052603260045260246000fd5b634e487b7160e01b600052604160045260246000fd5b6001600160a01b03811681146121f157600080fd5b80151581146121f157600080fdfea2646970667358221220b1d15ef716b5f4cf0c4c7c02a74f78d3efe74ca2565431a7c88557203f30752a64736f6c63430008070033",
  "immutableReferences": {},
  "source": "// SPDX-License-Identifier: MIT\n\npragma solidity ^0.8.0;\n\nimport \"@openzeppelin/contracts/token/ERC20/utils/SafeERC20.sol\";\nimport \"@openzeppelin/contracts/token/ERC20/IERC20.sol\";\nimport \"./Ownable.sol\";\nimport \"./IMiniChef.sol\";\n\ninterface IBavaToken {\n    function transfer(address to, uint tokens) external returns (bool success);\n\n    function mint(address to, uint tokens) external;\n\n    function balanceOf(address tokenOwner) external view returns (uint balance);\n\n    function cap() external view returns (uint capSuppply);\n\n    function totalSupply() external view returns (uint _totalSupply);\n\n    function lock(address _holder, uint256 _amount) external;\n}\n\ninterface IMasterFarm {\n    function updatePool(uint256 _pid) external;\n\n    function poolInfo(uint256 _pid) external view returns (\n        address lpToken,\n        uint256 allocPoint,\n        uint256 lastRewardBlock,\n        uint256 accBavaPerShare,\n        address poolContract\n    );\n\n    function getPoolReward(uint256 _from, uint256 _to, uint256 _allocPoint) external view returns (\n        uint256 forDev, \n        uint256 forFarmer, \n        uint256 forFT, \n        uint256 forAdr, \n        uint256 forFounders\n    );\n        \n}\n\n// BavaPool is the master of Bava. He can make Bava and he is a fair guy.\n//\n// Note that it's ownable and the owner wields tremendous power. The ownership\n// will be transferred to a governance smart contract once Bava is sufficiently\n// distributed and the community can show to govern itself.\n//\ncontract BavaPool is Ownable, Authorizable {\n    using SafeERC20 for IERC20;\n\n    // Info of each user.\n    struct UserInfo {\n        uint256 amount;             // How many LP tokens the user has provided.\n        uint256 rewardDebt;         // Reward debt. See explanation below.\n        uint256 rewardDebtAtBlock;  // the last block user stake\n\t\tuint256 lastWithdrawBlock;  // the last block a user withdrew at.\n\t\tuint256 firstDepositBlock;  // the first block a user deposited at.\n\t\tuint256 blockdelta;         // time passed since withdrawals\n\t\tuint256 lastDepositBlock;   // the last block a user deposited at.\n        \n        // We do some fancy math here. Basically, any point in time, the amount of Bavas\n        // entitled to a user but is pending to be distributed is:\n        //\n        //   pending reward = (user.amount * pool.accBavaPerShare) - user.rewardDebt\n        //\n        // Whenever a user deposits or withdraws LP tokens to a pool. Here's what happens:\n        //   1. The pool's `accBavaPerShare` (and `lastRewardBlock`) gets updated.\n        //   2. User receives the pending reward sent to his/her address.\n        //   3. User's `amount` gets updated.\n        //   4. User's `rewardDebt` gets updated.\n    }\n\n    // Info of pool.\n    struct PoolInfo {\n        IERC20 lpToken;             // Address of LP token contract.\n        uint256 lastRewardBlock;    // Last block number that Bavas distribution occurs.\n        uint256 depositAmount;      // Total deposit amount\n        uint256 receiptAmount;      // Restaking borrow amount\n        bool deposits_enabled;\n    }\n    \n    // Info of 3rd party restaking farm \n    struct PoolRestakingInfo {\n        IMiniChef pglStakingContract;       // Panglin LP Staking contract\n        uint256 restakingFarmID;            // RestakingFarm ID\n        IERC20[] rewardTokens;              // reward token from 3rd party restaking\n        uint256[] rewardAmount;             // reward token amount\n    }\n\n    IMasterFarm masterFarm;     // MasterFarm to mint BAVA token.\n    // The Bava TOKEN!\n    IBavaToken public Bava;\n    uint256 pid;        // Master Farm Pool Id\n    //An ETH/USDC Oracle (Chainlink)\n    address public usdOracle;\n    // Developer/Employee address.\n    address public devaddr;\n\t// Future Treasury address\n\t// address public futureTreasuryaddr;\n\t// Advisor Address\n\t// address public advisoraddr;\n\t// Founder Reward\n\t// address public founderaddr;\n    // Bava tokens created per block.\n    uint256 public REWARD_PER_BLOCK;\n    // Bonus muliplier for early Bava makers.\n    uint256[] public REWARD_MULTIPLIER;\n    uint256[] public HALVING_AT_BLOCK; // init in constructor function\n    uint256[] public blockDeltaStartStage;\n    uint256[] public blockDeltaEndStage;\n    uint256[] public userFeeStage;\n    // uint256[] public devFeeStage;\n    uint256 public FINISH_BONUS_AT_BLOCK;\n    uint256 public userDepFee;\n    // uint256 public devDepFee;\n    uint256 constant internal MAX_UINT = type(uint256).max;\n\n    // The block number when Bava mining starts.\n    uint256 public START_BLOCK;\n\n    uint256 public PERCENT_LOCK_BONUS_REWARD;   // lock xx% of bounus reward in 3 year\n    uint256 public PERCENT_FOR_DEV;             // Dev bounties + Employees\n\tuint256 public PERCENT_FOR_FT;              // Future Treasury fund\n\tuint256 public PERCENT_FOR_ADR;             // Advisor fund\n\tuint256 public PERCENT_FOR_FOUNDERS;        // founders fund\n\n    PoolInfo public poolInfo;                                             // Info of each pool.\n    PoolRestakingInfo public poolRestakingInfo;\n    mapping (address => UserInfo) public userInfo;     // Info of each user that stakes LP tokens. pid => user address => info\n\n    event Deposit(address indexed user, uint256 indexed pid, uint256 amount);\n    event Withdraw(address indexed user, uint256 indexed pid, uint256 amount);\n    event EmergencyWithdraw(address indexed user, uint256 indexed pid, uint256 amount, uint256 devAmount);\n    event SendBavaReward(address indexed user, uint256 indexed pid, uint256 amount, uint256 lockAmount);\n    event DepositsEnabled(uint pid, bool newValue);\n\n    constructor(\n        IBavaToken _IBava,\n        address _devaddr,\n        uint256 _userDepFee,\n        uint256[] memory _blockDeltaStartStage,\n        uint256[] memory _blockDeltaEndStage,\n        uint256[] memory _userFeeStage\n    ) {\n        Bava = _IBava;\n        devaddr = _devaddr;\n\t    userDepFee = _userDepFee;\n\t    blockDeltaStartStage = _blockDeltaStartStage;\n\t    blockDeltaEndStage = _blockDeltaEndStage;\n\t    userFeeStage = _userFeeStage;    \n    }\n\n    function initPool(uint256 _rewardPerBlock, uint256 _startBlock,uint256 _halvingAfterBlock) external onlyOwner {\n        REWARD_PER_BLOCK = _rewardPerBlock;\n        START_BLOCK = _startBlock;\n        for (uint256 i = 0; i < REWARD_MULTIPLIER.length - 1; i++) {\n            uint256 halvingAtBlock = _halvingAfterBlock*(i + 1)+(_startBlock);\n            HALVING_AT_BLOCK.push(halvingAtBlock);\n        }\n        FINISH_BONUS_AT_BLOCK = _halvingAfterBlock*(REWARD_MULTIPLIER.length - 1)+(_startBlock);\n        HALVING_AT_BLOCK.push(type(uint256).max);\n    }  \n\n    // Add a new lp to the pool. Can only be called by the owner. Support LP from panglolin miniChef, PNG single assest staking contract and traderJOe masterChef\n    function add(IERC20 _lpToken, IMiniChef _stakingPglContract, uint256 _restakingFarmID, IERC20[] memory _rewardTokens) external onlyOwner {        \n        require(address(_lpToken) != address(0), \"lp addres != 0\");\n        require(address(_stakingPglContract) != address(0), \"contract !=0 \");\n\n        uint256 lastRewardBlock = block.number > START_BLOCK ? block.number : START_BLOCK;\n        poolInfo.lpToken = _lpToken;\n        poolInfo.lastRewardBlock = lastRewardBlock;\n        poolInfo.depositAmount = 0;\n        poolInfo.receiptAmount = 0;\n        poolInfo.deposits_enabled = true;\n        \n        poolRestakingInfo.pglStakingContract = _stakingPglContract;\n        poolRestakingInfo.restakingFarmID = _restakingFarmID;\n        poolRestakingInfo.rewardTokens = _rewardTokens;\n    }\n\n    /**\n     * @notice Approve tokens for use in Strategy, Restricted to avoid griefing attacks\n     */\n    function setAllowances(uint256 _amount) external onlyOwner {\n        PoolInfo storage pool = poolInfo;\n        PoolRestakingInfo storage poolRestaking = poolRestakingInfo;        \n        if (address(poolRestaking.pglStakingContract) != address(0)) {\n            pool.lpToken.approve(address(poolRestaking.pglStakingContract), _amount);\n        }\n    }\n\n    // Update the given pool's Bava restaking contract. Can only be called by the owner.\n    function setPoolRestakingInfo(IMiniChef _stakingPglContract, uint256 _restakingFarmID, IERC20[] memory _rewardTokens, bool _withUpdate) external onlyOwner {\n        require(address(_stakingPglContract) != address(0) , \"Add != 0\");        \n        if (_withUpdate) {\n            updatePool();\n        }\n        poolRestakingInfo.pglStakingContract = _stakingPglContract;\n        poolRestakingInfo.restakingFarmID = _restakingFarmID;\n        poolRestakingInfo.rewardTokens = _rewardTokens;\n    }\n\n    // Update reward variables of the given pool to be up-to-date.\n    function updatePool() public {\n        PoolInfo storage pool = poolInfo;\n        if (block.number <= pool.lastRewardBlock) {\n            return;\n        }\n        masterFarm.updatePool(pid);\n    }\n\n    // |--------------------------------------|\n    // [20, 30, 40, 50, 60, 70, 80, 99999999]\n    // Return reward multiplier over the given _from to _to block.\n    function getMultiplier(uint256 _from, uint256 _to) public view returns (uint256) {\n        uint256 result = 0;\n        if (_from < START_BLOCK) return 0;\n\n        for (uint256 i = 0; i < HALVING_AT_BLOCK.length; i++) {\n            uint256 endBlock = HALVING_AT_BLOCK[i];\n\n            if (_to <= endBlock) {\n                uint256 m = (_to-_from)*(REWARD_MULTIPLIER[i]);\n                return result+(m);\n            }\n\n            if (_from < endBlock) {\n                uint256 m = (endBlock-_from)*(REWARD_MULTIPLIER[i]);\n                _from = endBlock;\n                result = result+(m);\n            }\n        }\n        return result;\n    }\n\n    function claimReward() public {\n        updatePool();\n        _harvest();\n    }\n\n    // lock 95% of reward\n    function _harvest() internal {\n        UserInfo storage user = userInfo[msg.sender];\n        (, , , uint256 accBavaPerShare, ) = masterFarm.poolInfo(pid);\n        if (user.amount > 0) {\n            uint256 pending = user.amount*(accBavaPerShare)/(1e12)-(user.rewardDebt);\n            uint256 masterBal = Bava.balanceOf(address(this));\n\n            if (pending > masterBal) {\n                pending = masterBal;\n            }\n            \n            if(pending > 0) {\n                Bava.transfer(msg.sender, pending);\n                uint256 lockAmount = 0;\n                lockAmount = pending*(PERCENT_LOCK_BONUS_REWARD)/(100);\n                Bava.lock(msg.sender, lockAmount);\n\n                user.rewardDebtAtBlock = block.number;\n\n                emit SendBavaReward(msg.sender, pid, pending, lockAmount);\n            }\n            user.rewardDebt = user.amount*(accBavaPerShare)/(1e12);\n        }\n    }\n    \n    // Deposit LP tokens to BavaMasterFarmer for $Bava allocation.\n    function deposit(uint256 _amount) public {\n        require(_amount > 0, \"amount < 0\");\n\n        PoolInfo storage pool = poolInfo;\n        require(pool.deposits_enabled == true, \"deposit false\");\n\n        UserInfo storage user = userInfo[msg.sender];\n        UserInfo storage devr = userInfo[devaddr];\n        \n        updatePool();\n        _harvest();\n        (, , , uint256 accBavaPerShare, ) = masterFarm.poolInfo(pid);\n        (uint256 rewardBalBefore) = _calRewardBefore();\n        \n        pool.lpToken.safeTransferFrom(address(msg.sender), address(this), _amount);\n        uint poolReceiptAmount = getSharesForDepositTokens(_amount);\n        pool.depositAmount += _amount;\n        pool.receiptAmount += poolReceiptAmount;\n\n        if (user.amount == 0) {\n            user.rewardDebtAtBlock = block.number;\n        }\n        uint userReceiptAmount = poolReceiptAmount - (poolReceiptAmount * userDepFee / 10000);  \n        uint devrReceiptAmount = poolReceiptAmount - userReceiptAmount;\n        user.amount = user.amount + userReceiptAmount;\n        user.rewardDebt = user.amount * (accBavaPerShare) / (1e12);\n        devr.amount = devr.amount + devrReceiptAmount;\n        devr.rewardDebt = devr.amount * (accBavaPerShare) / (1e12);\n\n        _stakeDepositTokens(_amount);\n        _calRewardAfter(rewardBalBefore);\n\n        emit Deposit(msg.sender, pid, _amount);\n\t\tif(user.firstDepositBlock > 0){\n\t\t} else {\n\t\t\tuser.firstDepositBlock = block.number;\n\t\t}\n\t\tuser.lastDepositBlock = block.number;\n    }\n    \n  // Withdraw LP tokens from BavaMasterFarmer. argument \"_amount\" is receipt amount.\n    function withdraw(uint256 _amount) public {\n        PoolInfo storage pool = poolInfo;\n        UserInfo storage user = userInfo[msg.sender];\n        uint256 lpBal = pool.depositAmount;\n        uint depositTokenAmount = getDepositTokensForShares(_amount);\n\n        require(lpBal >= depositTokenAmount, \"withdraw > farmBal\");\n        require(user.amount >= _amount, \"withdraw > stake\");\n       ( , , , uint256 accBavaPerShare, ) = masterFarm.poolInfo(pid);\n        updatePool();\n        _harvest();\n\n        (uint256 rewardBalBefore) = _calRewardBefore(); \n        _withdrawDepositTokens(depositTokenAmount);\n        \n        if(_amount > 0) {\n            user.amount = user.amount-(_amount);\n\t\t\tif(user.lastWithdrawBlock > 0){\n\t\t\t\tuser.blockdelta = block.number - user.lastWithdrawBlock; }\n\t\t\telse {\n\t\t\t\tuser.blockdelta = block.number - user.firstDepositBlock;\n\t\t\t}\n            pool.receiptAmount -= _amount;\n\t\t\tif(user.blockdelta == blockDeltaStartStage[0] || block.number == user.lastDepositBlock){\n\t\t\t\t//25% fee for withdrawals of LP tokens in the same block this is to prevent abuse from flashloans\n                uint256 userWithdrawFee = depositTokenAmount*(userFeeStage[0])/100;\n                pool.depositAmount -= depositTokenAmount;\n\t\t\t\tpool.lpToken.safeTransfer(address(msg.sender), userWithdrawFee);\n\t\t\t\tpool.lpToken.safeTransfer(address(devaddr), depositTokenAmount-userWithdrawFee);\n\t\t\t} else if (user.blockdelta >= blockDeltaStartStage[1] && user.blockdelta <= blockDeltaEndStage[0]){\n\t\t\t\t//8% fee if a user deposits and withdraws in under between same block and 59 minutes.\n                uint256 userWithdrawFee = depositTokenAmount*(userFeeStage[1])/100;\n                pool.depositAmount -= depositTokenAmount;\n\t\t\t\tpool.lpToken.safeTransfer(address(msg.sender), userWithdrawFee);\n\t\t\t\tpool.lpToken.safeTransfer(address(devaddr), depositTokenAmount-userWithdrawFee);\n\t\t\t} else if (user.blockdelta >= blockDeltaStartStage[2] && user.blockdelta <= blockDeltaEndStage[1]){\n\t\t\t\t//4% fee if a user deposits and withdraws after 1 hour but before 1 day.\n                uint256 userWithdrawFee = depositTokenAmount*(userFeeStage[2])/100;\n                pool.depositAmount -= depositTokenAmount;\n\t\t\t\tpool.lpToken.safeTransfer(address(msg.sender), userWithdrawFee);\n\t\t\t\tpool.lpToken.safeTransfer(address(devaddr), depositTokenAmount-userWithdrawFee);\n\t\t\t} else if (user.blockdelta >= blockDeltaStartStage[3] && user.blockdelta <= blockDeltaEndStage[2]){\n\t\t\t\t//2% fee if a user deposits and withdraws between after 1 day but before 3 days.\n                uint256 userWithdrawFee = depositTokenAmount*(userFeeStage[3])/100;\n                pool.depositAmount -= depositTokenAmount;\n\t\t\t\tpool.lpToken.safeTransfer(address(msg.sender), userWithdrawFee);\n\t\t\t\tpool.lpToken.safeTransfer(address(devaddr), depositTokenAmount-userWithdrawFee);\n\t\t\t} else if (user.blockdelta >= blockDeltaStartStage[4] && user.blockdelta <= blockDeltaEndStage[3]){\n\t\t\t\t//1% fee if a user deposits and withdraws after 3 days but before 5 days.\n                uint256 userWithdrawFee = depositTokenAmount*(userFeeStage[4])/100;\n                pool.depositAmount -= depositTokenAmount;\n\t\t\t\tpool.lpToken.safeTransfer(address(msg.sender), userWithdrawFee);\n\t\t\t\tpool.lpToken.safeTransfer(address(devaddr), depositTokenAmount-userWithdrawFee);\n\t\t\t}  else if (user.blockdelta >= blockDeltaStartStage[5] && user.blockdelta <= blockDeltaEndStage[4]){\n\t\t\t\t//0.5% fee if a user deposits and withdraws if the user withdraws after 5 days but before 2 weeks.\n                uint256 userWithdrawFee = depositTokenAmount*(userFeeStage[5])/1000;\n                pool.depositAmount -= depositTokenAmount;\n\t\t\t\tpool.lpToken.safeTransfer(address(msg.sender), userWithdrawFee);\n\t\t\t\tpool.lpToken.safeTransfer(address(devaddr), depositTokenAmount-userWithdrawFee);\n\t\t\t} else if (user.blockdelta >= blockDeltaStartStage[6] && user.blockdelta <= blockDeltaEndStage[5]){\n\t\t\t\t//0.25% fee if a user deposits and withdraws after 2 weeks.\n                uint256 userWithdrawFee = depositTokenAmount*(userFeeStage[6])/10000;\n                pool.depositAmount -= depositTokenAmount;\n\t\t\t\tpool.lpToken.safeTransfer(address(msg.sender), userWithdrawFee);\n\t\t\t\tpool.lpToken.safeTransfer(address(devaddr), depositTokenAmount-userWithdrawFee);\n\t\t\t} else if (user.blockdelta > blockDeltaStartStage[7]) {\n\t\t\t\t//0.1% fee if a user deposits and withdraws after 4 weeks.\n                uint256 userWithdrawFee = depositTokenAmount*(userFeeStage[7])/10000;\n                pool.depositAmount -= depositTokenAmount;\n\t\t\t\tpool.lpToken.safeTransfer(address(msg.sender), userWithdrawFee);\n\t\t\t\tpool.lpToken.safeTransfer(address(devaddr), depositTokenAmount-userWithdrawFee);\n\t\t\t}\n\t\tuser.rewardDebt = user.amount*(accBavaPerShare)/(1e12);\n        _calRewardAfter(rewardBalBefore);\n\n        emit Withdraw(msg.sender, pid, depositTokenAmount);\n\t\tuser.lastWithdrawBlock = block.number;\n\t\t\t}\n        }\n\n    // Withdraw without caring about rewards. EMERGENCY ONLY. This has the same 25% fee as same block withdrawals to prevent abuse of thisfunction.\n    function emergencyWithdraw() public {\n        PoolInfo storage pool = poolInfo;\n        UserInfo storage user = userInfo[msg.sender];\n        uint256 userReceiptAmount = user.amount;\n        uint depositTokenAmount = getDepositTokensForShares(user.amount);\n        (uint256 rewardBalBefore) = _calRewardBefore();\n\n        uint256 lpBal = pool.depositAmount;     //  pool.lpToken.balanceOf(address(this))\n        require(lpBal >= depositTokenAmount, \"withdraw > farmBal\");\n        _withdrawDepositTokens(depositTokenAmount);\n\n        // Reordered from Sushi function to prevent risk of reentrancy\n        uint256 amountToSend = depositTokenAmount*(75)/(100);\n        uint256 devToSend = depositTokenAmount*(25)/(100);\n        user.amount = 0;\n        user.rewardDebt = 0;\n        pool.receiptAmount -= userReceiptAmount;\n        pool.depositAmount = pool.depositAmount-amountToSend-devToSend;\n\n        pool.lpToken.safeTransfer(address(msg.sender), amountToSend);\n        pool.lpToken.safeTransfer(address(devaddr), devToSend);\n        _calRewardAfter(rewardBalBefore);\n\n        emit EmergencyWithdraw(msg.sender, pid, amountToSend, devToSend);\n    }\n\n    // Restake LP token to 3rd party restaking farm\n    function _stakeDepositTokens(uint amount) private {\n        PoolRestakingInfo storage poolRestaking = poolRestakingInfo;\n        require(amount > 0, \"amount < 0\");\n        getReinvestReward();\n        if (address(poolRestaking.pglStakingContract) != address(0)) {\n            poolRestaking.pglStakingContract.deposit(poolRestaking.restakingFarmID, amount, address(this));                \n        }\n    }\n\n    // Withdraw LP token to 3rd party restaking farm\n    function _withdrawDepositTokens(uint amount) private {\n        PoolRestakingInfo storage poolRestaking = poolRestakingInfo;\n        require(amount > 0, \"amount < 0\");\n        getReinvestReward();\n        if (address(poolRestaking.pglStakingContract) != address(0)) {\n            (uint256 depositAmount,) = poolRestaking.pglStakingContract.userInfo(poolRestaking.restakingFarmID, address(this));\n            if(depositAmount >= amount) {\n                poolRestaking.pglStakingContract.withdraw(poolRestaking.restakingFarmID, amount, address(this));\n            } else {\n                poolRestaking.pglStakingContract.withdraw(poolRestaking.restakingFarmID, depositAmount, address(this));\n            }\n        }\n    }\n\n    // Claim LP restaking reward from 3rd party restaking contract\n    function getReinvestReward() private {\n        PoolRestakingInfo storage poolRestaking = poolRestakingInfo;  \n\n        if (address(poolRestaking.pglStakingContract) != address(0)) {\n            poolRestaking.pglStakingContract.harvest(poolRestaking.restakingFarmID, address(this));\n        }\n    }\n\n    // Claim LP restaking reward from 3rd party restaking contract\n    function getReinvestRewardOwner() external onlyOwner {\n        (uint256 rewardBalBefore) = _calRewardBefore();\n        getReinvestReward();\n        \n        _calRewardAfter(rewardBalBefore);\n    }\n\n    // Emergency withdraw LP token from 3rd party restaking contract\n    function emergencyWithdrawDepositTokens(bool disableDeposits) external onlyOwner {\n        PoolInfo storage pool = poolInfo;\n        PoolRestakingInfo storage poolRestaking = poolRestakingInfo;\n\n        (uint256 rewardBalBefore) = _calRewardBefore();\n\n        if (address(poolRestaking.pglStakingContract) != address(0)) {\n            poolRestaking.pglStakingContract.emergencyWithdraw(poolRestaking.restakingFarmID, address(this));\n        }\n\n        if (pool.deposits_enabled == true && disableDeposits == true) {\n            updateDepositsEnabled(pid, false);\n        }\n        _calRewardAfter(rewardBalBefore);\n    }\n\n    // Compound reward token to restaking LP Token.\n    function reinvest(uint256 _amount, address _to) external onlyOwner {\n        PoolRestakingInfo storage poolRestaking = poolRestakingInfo;\n\n        (uint256 rewardBalBefore) = _calRewardBefore();\n        uint256 rewardType = poolRestaking.rewardTokens.length;\n        for (uint256 i; i < rewardType; i++) {\n            uint256 rewardBal = poolRestaking.rewardTokens[i].balanceOf(address(this));\n            if (rewardBal >= _amount) {\n                poolRestaking.rewardTokens[i].safeTransfer(_to, _amount);\n            } else {\n                poolRestaking.rewardTokens[i].safeTransfer(_to, rewardBal);\n            }\n        }\n        _calRewardAfter(rewardBalBefore);       \n    }\n\n    // Return reinvest reward-> convert to LP token to the pool\n    function returnReinvestReward(uint256 _amount) external {\n        PoolInfo storage pool = poolInfo;\n        require(_amount > 0 , \"Amount <= 0\");\n        (uint256 rewardBalBefore) = _calRewardBefore();\n        pool.lpToken.safeTransferFrom(address(msg.sender), address(this), _amount);\n        pool.depositAmount += _amount;\n\n        _stakeDepositTokens(_amount);\n        _calRewardAfter(rewardBalBefore);\n    }\n\n    function _calRewardBefore() private view returns(uint256) {\n        PoolRestakingInfo storage poolRestaking = poolRestakingInfo;\n\n        uint256 rewardBalBefore = 0;\n        uint256 rewardType = poolRestaking.rewardTokens.length;\n        for (uint256 i; i < rewardType; i++) {\n            rewardBalBefore = poolRestaking.rewardTokens[i].balanceOf(address(this));\n        }\n\n        return (rewardBalBefore);\n    }\n\n    function _calRewardAfter(uint256 _rewardBalBefore) private {\n        PoolRestakingInfo storage poolRestaking = poolRestakingInfo;\n\n        uint256 rewardBalAfter = 0;\n        uint256 rewardType = poolRestaking.rewardTokens.length;\n        for (uint256 i; i < rewardType; i++) {\n            rewardBalAfter = poolRestaking.rewardTokens[i].balanceOf(address(this));\n            if (rewardBalAfter >= _rewardBalBefore) {\n                uint256 diffRewardBal = rewardBalAfter - _rewardBalBefore;\n                poolRestaking.rewardAmount[i] += diffRewardBal;\n            } else {\n                uint256 diffRewardBal = _rewardBalBefore - rewardBalAfter;\n                poolRestaking.rewardAmount[i] -= diffRewardBal;\n            }\n        }\n    }\n\n    /**\n     * @notice Enable/disable deposits\n     * @param newValue bool\n     */\n    function updateDepositsEnabled(uint _pid, bool newValue) public onlyOwner {\n        PoolInfo storage pool = poolInfo;\n        require(pool.deposits_enabled != newValue);\n        pool.deposits_enabled = newValue;\n        emit DepositsEnabled(_pid, newValue);\n    }\n\n    /**\n     * @notice Calculate receipt tokens for a given amount of deposit tokens\n     * @dev If contract is empty, use 1:1 ratio\n     * @dev Could return zero shares for very low amounts of deposit tokens\n     * @param amount deposit tokens\n     * @return receipt tokens\n     */\n    function getSharesForDepositTokens(uint amount) public view returns (uint) {\n        PoolInfo storage pool = poolInfo;\n        if (pool.receiptAmount*pool.depositAmount == 0) {\n            return amount;\n        }\n        return amount*pool.receiptAmount/pool.depositAmount;\n    }\n\n    /**\n     * @notice Calculate deposit tokens for a given amount of receipt tokens\n     * @param amount receipt tokens\n     * @return deposit tokens\n     */\n    function getDepositTokensForShares(uint amount) public view returns (uint) {\n        PoolInfo storage pool = poolInfo;\n        if (pool.receiptAmount*pool.depositAmount == 0) {\n            return 0;\n        }\n        return amount*pool.depositAmount/pool.receiptAmount;\n    }\n\n    // Rescue any token function, just in case if any user not able to withdraw token from the smart contract.\n    function rescueDeployedFunds(address token, uint256 amount, address _to) external onlyOwner {\n        require(_to != address(0), \"send to the zero address\");\n        IERC20(token).safeTransfer(_to, amount);\n    }\n\n    /****** ONLY AUTHORIZED FUNCTIONS ******/\n    // Update smart contract general variable functions\n    // Update dev address by the previous dev.\n    function addrUpdate(address _devaddr) public onlyAuthorized {\n        devaddr = _devaddr;\n    }\n\n    // Update % lock for general users & percent for other roles\n    function percentUpdate(uint _newlock, uint _newdev, uint _newft, uint _newadr, uint _newfounder) public onlyAuthorized {\n       PERCENT_LOCK_BONUS_REWARD = _newlock;\n       PERCENT_FOR_DEV = _newdev;\n       PERCENT_FOR_FT = _newft;\n       PERCENT_FOR_ADR = _newadr;\n       PERCENT_FOR_FOUNDERS = _newfounder;\n    }\n\n    // Update Finish Bonus Block\n    function bonusFinishUpdate(uint256 _newFinish) public onlyAuthorized {\n        FINISH_BONUS_AT_BLOCK = _newFinish;\n    }\n    \n    // Update Halving At Block\n    function halvingUpdate(uint256[] memory _newHalving) public onlyAuthorized {\n        HALVING_AT_BLOCK = _newHalving;\n    }\n    \n    // Update Reward Per Block\n    function rewardUpdate(uint256 _newReward) public onlyAuthorized {\n       REWARD_PER_BLOCK = _newReward;\n    }\n    \n    // Update Rewards Mulitplier Array\n    function rewardMulUpdate(uint256[] memory _newMulReward) public onlyAuthorized {\n       REWARD_MULTIPLIER = _newMulReward;\n    }\n    \n    // Update START_BLOCK\n    function starblockUpdate(uint _newstarblock) public onlyAuthorized {\n       START_BLOCK = _newstarblock;\n    }\n\n\tfunction setStageStarts(uint[] memory _blockStarts) public onlyAuthorized() {\n        blockDeltaStartStage = _blockStarts;\n    }\n    \n    function setStageEnds(uint[] memory _blockEnds) public onlyAuthorized() {\n        blockDeltaEndStage = _blockEnds;\n    }\n    \n    function setUserFeeStage(uint[] memory _userFees) public onlyAuthorized() {\n        userFeeStage = _userFees;\n    }\n    \n    function setDepFee(uint _usrDepFees) public onlyAuthorized() {\n        userDepFee = _usrDepFees;\n    }\n\t\n    // Update smart contract specific pool user variable function \n\tfunction reviseWithdraw(address _user, uint256 _block) public onlyAuthorized() {\n\t   UserInfo storage user = userInfo[_user];\n\t   user.lastWithdrawBlock = _block;\t    \n\t}\n\t\n\tfunction reviseDeposit(address _user, uint256 _block) public onlyAuthorized() {\n\t   UserInfo storage user = userInfo[_user];\n\t   user.firstDepositBlock = _block;\t    \n\t}\n\n    // View function to see pending Bavas on frontend.\n    function pendingReward(address _user) external view returns (uint256) {\n        PoolInfo storage pool = poolInfo;\n        UserInfo storage user = userInfo[_user];\n        (, uint256 allocPoint, , uint256 accBavaPerShare, ) = masterFarm.poolInfo(pid);\n        uint256 lpSupply = pool.receiptAmount;\n\n        if (block.number > pool.lastRewardBlock && lpSupply > 0) {\n            uint256 BavaForFarmer;\n            (, BavaForFarmer, , ,) = masterFarm.getPoolReward(pool.lastRewardBlock, block.number, allocPoint);\n            accBavaPerShare = accBavaPerShare+(BavaForFarmer*(1e12)/(lpSupply));\n        }\n        return user.amount*(accBavaPerShare)/(1e12)-(user.rewardDebt);\n    }\n\n    function pendingReinvestReward() public view returns (uint256 pending, address bonusTokenAddress, string memory bonusTokenSymbol, uint256 pendingBonusToken) {\n        PoolRestakingInfo storage poolRestaking = poolRestakingInfo;\n        if (address(poolRestaking.pglStakingContract) != address(0)) {\n            return (poolRestaking.pglStakingContract.pendingReward(poolRestaking.restakingFarmID, address(this)), address(0), string(''), 0);  \n        }\n    }\n}",
  "sourcePath": "/Users/cheekeatlim/Desktop/Others Project/Baklava/bao2Finance_Testnet/src/contracts/BavaMasterFarmerV2_3_1.sol",
  "compiler": {
    "name": "solc",
    "version": "0.8.7+commit.e28d00a7.Emscripten.clang"
  },
  "schemaVersion": "3.2.3",
  "updatedAt": "2022-02-24T11:14:36.113Z",
  "devdoc": {
    "kind": "dev",
    "methods": {
      "getDepositTokensForShares(uint256)": {
        "params": {
          "amount": "receipt tokens"
        },
        "returns": {
          "_0": "deposit tokens"
        }
      },
      "getSharesForDepositTokens(uint256)": {
        "details": "If contract is empty, use 1:1 ratioCould return zero shares for very low amounts of deposit tokens",
        "params": {
          "amount": "deposit tokens"
        },
        "returns": {
          "_0": "receipt tokens"
        }
      },
      "owner()": {
        "details": "Returns the address of the current owner."
      },
      "previousOwner()": {
        "details": "Returns the address of the previous owner."
      },
      "renounceOwnership()": {
        "details": "Leaves the contract without owner. It will not be possible to call `onlyOwner` functions anymore. Can only be called by the current owner. NOTE: Renouncing ownership will leave the contract without an owner, thereby removing any functionality that is only available to the owner."
      },
      "transferOwnership(address)": {
        "details": "Transfers ownership of the contract to a new account (`newOwner`). Can only be called by the current owner."
      },
      "updateDepositsEnabled(uint256,bool)": {
        "params": {
          "newValue": "bool"
        }
      }
    },
    "version": 1
  },
  "userdoc": {
    "kind": "user",
    "methods": {
      "getDepositTokensForShares(uint256)": {
        "notice": "Calculate deposit tokens for a given amount of receipt tokens"
      },
      "getSharesForDepositTokens(uint256)": {
        "notice": "Calculate receipt tokens for a given amount of deposit tokens"
      },
      "setAllowances(uint256)": {
        "notice": "Approve tokens for use in Strategy, Restricted to avoid griefing attacks"
      },
      "updateDepositsEnabled(uint256,bool)": {
        "notice": "Enable/disable deposits"
      }
    },
    "version": 1
  }
}